{
  "contractName": "Account",
  "abi": [
    {
      "constant": true,
      "inputs": [
        {
          "name": "",
          "type": "address"
        }
      ],
      "name": "authKeys",
      "outputs": [
        {
          "name": "",
          "type": "bool"
        }
      ],
      "payable": false,
      "stateMutability": "view",
      "type": "function"
    },
    {
      "constant": true,
      "inputs": [],
      "name": "CHAIN_ID",
      "outputs": [
        {
          "name": "",
          "type": "uint256"
        }
      ],
      "payable": false,
      "stateMutability": "view",
      "type": "function"
    },
    {
      "constant": true,
      "inputs": [],
      "name": "nonce",
      "outputs": [
        {
          "name": "",
          "type": "uint256"
        }
      ],
      "payable": false,
      "stateMutability": "view",
      "type": "function"
    },
    {
      "constant": true,
      "inputs": [
        {
          "name": "",
          "type": "uint256"
        }
      ],
      "name": "authKeysArray",
      "outputs": [
        {
          "name": "",
          "type": "address"
        }
      ],
      "payable": false,
      "stateMutability": "view",
      "type": "function"
    },
    {
      "constant": true,
      "inputs": [
        {
          "name": "",
          "type": "address"
        }
      ],
      "name": "authKeysArrayIndex",
      "outputs": [
        {
          "name": "",
          "type": "uint256"
        }
      ],
      "payable": false,
      "stateMutability": "view",
      "type": "function"
    },
    {
      "payable": true,
      "stateMutability": "payable",
      "type": "fallback"
    },
    {
      "anonymous": false,
      "inputs": [
        {
          "indexed": true,
          "name": "sender",
          "type": "address"
        },
        {
          "indexed": true,
          "name": "value",
          "type": "uint256"
        }
      ],
      "name": "FundsReceived",
      "type": "event"
    },
    {
      "anonymous": false,
      "inputs": [
        {
          "indexed": true,
          "name": "authKey",
          "type": "address"
        }
      ],
      "name": "AddedAuthKey",
      "type": "event"
    },
    {
      "anonymous": false,
      "inputs": [
        {
          "indexed": true,
          "name": "authKey",
          "type": "address"
        }
      ],
      "name": "RemovedAuthKey",
      "type": "event"
    },
    {
      "anonymous": false,
      "inputs": [
        {
          "indexed": true,
          "name": "oldAuthKey",
          "type": "address"
        },
        {
          "indexed": true,
          "name": "newAuthKey",
          "type": "address"
        }
      ],
      "name": "SwappedAuthKeys",
      "type": "event"
    },
    {
      "anonymous": false,
      "inputs": [
        {
          "indexed": false,
          "name": "encodedData",
          "type": "bytes32"
        }
      ],
      "name": "CallFailed",
      "type": "event"
    },
    {
      "constant": false,
      "inputs": [],
      "name": "initialize",
      "outputs": [],
      "payable": false,
      "stateMutability": "nonpayable",
      "type": "function"
    },
    {
      "constant": true,
      "inputs": [],
      "name": "getAuthKeysArrayLength",
      "outputs": [
        {
          "name": "",
          "type": "uint256"
        }
      ],
      "payable": false,
      "stateMutability": "view",
      "type": "function"
    },
    {
      "constant": false,
      "inputs": [
        {
          "name": "_nonce",
          "type": "uint256"
        },
        {
          "name": "_destination",
          "type": "address"
        },
        {
          "name": "_value",
          "type": "uint256"
        },
        {
          "name": "_data",
          "type": "bytes"
        }
      ],
      "name": "executeTransaction",
      "outputs": [
        {
          "name": "",
          "type": "bytes"
        }
      ],
      "payable": false,
      "stateMutability": "nonpayable",
      "type": "function"
    },
    {
      "constant": false,
      "inputs": [
        {
          "name": "_authKey",
          "type": "address"
        }
      ],
      "name": "addAuthKey",
      "outputs": [],
      "payable": false,
      "stateMutability": "nonpayable",
      "type": "function"
    },
    {
      "constant": false,
      "inputs": [
        {
          "name": "_authKeys",
          "type": "address[]"
        }
      ],
      "name": "addMultipleAuthKeys",
      "outputs": [],
      "payable": false,
      "stateMutability": "nonpayable",
      "type": "function"
    },
    {
      "constant": false,
      "inputs": [
        {
          "name": "_authKey",
          "type": "address"
        }
      ],
      "name": "removeAuthKey",
      "outputs": [],
      "payable": false,
      "stateMutability": "nonpayable",
      "type": "function"
    },
    {
      "constant": false,
      "inputs": [
        {
          "name": "_authKeys",
          "type": "address[]"
        }
      ],
      "name": "removeMultipleAuthKeys",
      "outputs": [],
      "payable": false,
      "stateMutability": "nonpayable",
      "type": "function"
    },
    {
      "constant": false,
      "inputs": [
        {
          "name": "_oldAuthKey",
          "type": "address"
        },
        {
          "name": "_newAuthKey",
          "type": "address"
        }
      ],
      "name": "swapAuthKeys",
      "outputs": [],
      "payable": false,
      "stateMutability": "nonpayable",
      "type": "function"
    },
    {
      "constant": false,
      "inputs": [
        {
          "name": "_oldAuthKeys",
          "type": "address[]"
        },
        {
          "name": "_newAuthKeys",
          "type": "address[]"
        }
      ],
      "name": "swapMultipleAuthKeys",
      "outputs": [],
      "payable": false,
      "stateMutability": "nonpayable",
      "type": "function"
    },
    {
      "constant": true,
      "inputs": [
        {
          "name": "_msg",
          "type": "bytes"
        },
        {
          "name": "_signatures",
          "type": "bytes"
        }
      ],
      "name": "isValidSignature",
      "outputs": [
        {
          "name": "",
          "type": "bytes4"
        }
      ],
      "payable": false,
      "stateMutability": "view",
      "type": "function"
    },
    {
      "constant": true,
      "inputs": [
        {
          "name": "_msg",
          "type": "bytes"
        },
        {
          "name": "_signature",
          "type": "bytes"
        }
      ],
      "name": "isValidAuthKeySignature",
      "outputs": [
        {
          "name": "",
          "type": "bytes4"
        }
      ],
      "payable": false,
      "stateMutability": "view",
      "type": "function"
    },
    {
      "constant": true,
      "inputs": [
        {
          "name": "_msg",
          "type": "bytes"
        },
        {
          "name": "_signatures",
          "type": "bytes"
        }
      ],
      "name": "isValidLoginKeySignature",
      "outputs": [
        {
          "name": "",
          "type": "bytes4"
        }
      ],
      "payable": false,
      "stateMutability": "view",
      "type": "function"
    },
    {
      "constant": true,
      "inputs": [
        {
          "name": "_txDataMessageHash",
          "type": "bytes32"
        },
        {
          "name": "_transactionDataSignature",
          "type": "bytes"
        },
        {
          "name": "_loginKeyAuthorizationSignature",
          "type": "bytes"
        }
      ],
      "name": "validateLoginKeyMetaTxSigs",
      "outputs": [
        {
          "name": "",
          "type": "address"
        }
      ],
      "payable": false,
      "stateMutability": "view",
      "type": "function"
    }
  ],
  "bytecode": "0x608060405234801561001057600080fd5b50612562806100206000396000f3fe6080604052600436106101095760003560e01c80639565389e11610095578063cd11331e11610064578063cd11331e14610adc578063d59e3e9814610b07578063e0eae14d14610cb8578063ed8fc6b814610e2d578063f399f1dd14610e9257610109565b80639565389e14610974578063affed0e0146109c5578063b4c27164146109f0578063bd1a84ab14610a6157610109565b80634c477daf116100dc5780634c477daf146105c75780635175ca5e146107705780635b79818f146107d95780638129fc1c1461093257806385e1f4d01461094957610109565b806313f8c5781461014f5780631704db30146101a057806320c13b0b1461026557806340914b0614610416575b343373ffffffffffffffffffffffffffffffffffffffff167f8e47b87b0ef542cdfa1659c551d88bad38aa7f452d2bbb349ab7530dfec8be8f60405160405180910390a3005b34801561015b57600080fd5b5061019e6004803603602081101561017257600080fd5b81019080803573ffffffffffffffffffffffffffffffffffffffff169060200190929190505050610f57565b005b3480156101ac57600080fd5b50610263600480360360208110156101c357600080fd5b81019080803590602001906401000000008111156101e057600080fd5b8201836020820111156101f257600080fd5b8035906020019184602083028401116401000000008311171561021457600080fd5b919080806020026020016040519081016040528093929190818152602001838360200280828437600081840152601f19601f820116905080830192505050505050509192919290505050611170565b005b34801561027157600080fd5b506103c26004803603604081101561028857600080fd5b81019080803590602001906401000000008111156102a557600080fd5b8201836020820111156102b757600080fd5b803590602001918460018302840111640100000000831117156102d957600080fd5b91908080601f016020809104026020016040519081016040528093929190818152602001838380828437600081840152601f19601f8201169050808301925050505050505091929192908035906020019064010000000081111561033c57600080fd5b82018360208201111561034e57600080fd5b8035906020019184600183028401116401000000008311171561037057600080fd5b91908080601f016020809104026020016040519081016040528093929190818152602001838380828437600081840152601f19601f8201169050808301925050505050505091929192905050506111b5565b60405180827bffffffffffffffffffffffffffffffffffffffffffffffffffffffff19167bffffffffffffffffffffffffffffffffffffffffffffffffffffffff1916815260200191505060405180910390f35b34801561042257600080fd5b506105736004803603604081101561043957600080fd5b810190808035906020019064010000000081111561045657600080fd5b82018360208201111561046857600080fd5b8035906020019184600183028401116401000000008311171561048a57600080fd5b91908080601f016020809104026020016040519081016040528093929190818152602001838380828437600081840152601f19601f820116905080830192505050505050509192919290803590602001906401000000008111156104ed57600080fd5b8201836020820111156104ff57600080fd5b8035906020019184600183028401116401000000008311171561052157600080fd5b91908080601f016020809104026020016040519081016040528093929190818152602001838380828437600081840152601f19601f820116905080830192505050505050509192919290505050611261565b60405180827bffffffffffffffffffffffffffffffffffffffffffffffffffffffff19167bffffffffffffffffffffffffffffffffffffffffffffffffffffffff1916815260200191505060405180910390f35b3480156105d357600080fd5b5061072e600480360360608110156105ea57600080fd5b81019080803590602001909291908035906020019064010000000081111561061157600080fd5b82018360208201111561062357600080fd5b8035906020019184600183028401116401000000008311171561064557600080fd5b91908080601f016020809104026020016040519081016040528093929190818152602001838380828437600081840152601f19601f820116905080830192505050505050509192919290803590602001906401000000008111156106a857600080fd5b8201836020820111156106ba57600080fd5b803590602001918460018302840111640100000000831117156106dc57600080fd5b91908080601f016020809104026020016040519081016040528093929190818152602001838380828437600081840152601f19601f8201169050808301925050505050505091929192905050506112f5565b604051808273ffffffffffffffffffffffffffffffffffffffff1673ffffffffffffffffffffffffffffffffffffffff16815260200191505060405180910390f35b34801561077c57600080fd5b506107bf6004803603602081101561079357600080fd5b81019080803573ffffffffffffffffffffffffffffffffffffffff16906020019092919050505061139c565b604051808215151515815260200191505060405180910390f35b3480156107e557600080fd5b50610930600480360360408110156107fc57600080fd5b810190808035906020019064010000000081111561081957600080fd5b82018360208201111561082b57600080fd5b8035906020019184602083028401116401000000008311171561084d57600080fd5b919080806020026020016040519081016040528093929190818152602001838360200280828437600081840152601f19601f820116905080830192505050505050509192919290803590602001906401000000008111156108ad57600080fd5b8201836020820111156108bf57600080fd5b803590602001918460208302840111640100000000831117156108e157600080fd5b919080806020026020016040519081016040528093929190818152602001838360200280828437600081840152601f19601f8201169050808301925050505050505091929192905050506113bc565b005b34801561093e57600080fd5b5061094761148d565b005b34801561095557600080fd5b5061095e611594565b6040518082815260200191505060405180910390f35b34801561098057600080fd5b506109c36004803603602081101561099757600080fd5b81019080803573ffffffffffffffffffffffffffffffffffffffff16906020019092919050505061159a565b005b3480156109d157600080fd5b506109da6117cb565b6040518082815260200191505060405180910390f35b3480156109fc57600080fd5b50610a5f60048036036040811015610a1357600080fd5b81019080803573ffffffffffffffffffffffffffffffffffffffff169060200190929190803573ffffffffffffffffffffffffffffffffffffffff1690602001909291905050506117d1565b005b348015610a6d57600080fd5b50610a9a60048036036020811015610a8457600080fd5b81019080803590602001909291905050506119c0565b604051808273ffffffffffffffffffffffffffffffffffffffff1673ffffffffffffffffffffffffffffffffffffffff16815260200191505060405180910390f35b348015610ae857600080fd5b50610af16119fc565b6040518082815260200191505060405180910390f35b348015610b1357600080fd5b50610c6460048036036040811015610b2a57600080fd5b8101908080359060200190640100000000811115610b4757600080fd5b820183602082011115610b5957600080fd5b80359060200191846001830284011164010000000083111715610b7b57600080fd5b91908080601f016020809104026020016040519081016040528093929190818152602001838380828437600081840152601f19601f82011690508083019250505050505050919291929080359060200190640100000000811115610bde57600080fd5b820183602082011115610bf057600080fd5b80359060200191846001830284011164010000000083111715610c1257600080fd5b91908080601f016020809104026020016040519081016040528093929190818152602001838380828437600081840152601f19601f820116905080830192505050505050509192919290505050611a09565b60405180827bffffffffffffffffffffffffffffffffffffffffffffffffffffffff19167bffffffffffffffffffffffffffffffffffffffffffffffffffffffff1916815260200191505060405180910390f35b348015610cc457600080fd5b50610db260048036036080811015610cdb57600080fd5b8101908080359060200190929190803573ffffffffffffffffffffffffffffffffffffffff1690602001909291908035906020019092919080359060200190640100000000811115610d2c57600080fd5b820183602082011115610d3e57600080fd5b80359060200191846001830284011164010000000083111715610d6057600080fd5b91908080601f016020809104026020016040519081016040528093929190818152602001838380828437600081840152601f19601f820116905080830192505050505050509192919290505050611b54565b6040518080602001828103825283818151815260200191508051906020019080838360005b83811015610df2578082015181840152602081019050610dd7565b50505050905090810190601f168015610e1f5780820380516001836020036101000a031916815260200191505b509250505060405180910390f35b348015610e3957600080fd5b50610e7c60048036036020811015610e5057600080fd5b81019080803573ffffffffffffffffffffffffffffffffffffffff169060200190929190505050611b75565b6040518082815260200191505060405180910390f35b348015610e9e57600080fd5b50610f5560048036036020811015610eb557600080fd5b8101908080359060200190640100000000811115610ed257600080fd5b820183602082011115610ee457600080fd5b80359060200191846020830284011164010000000083111715610f0657600080fd5b919080806020026020016040519081016040528093929190818152602001838360200280828437600081840152601f19601f820116905080830192505050505050509192919290505050611b8d565b005b610f6033611bd2565b603560008273ffffffffffffffffffffffffffffffffffffffff1673ffffffffffffffffffffffffffffffffffffffff16815260200190815260200160002060009054906101000a900460ff1615611020576040517f08c379a00000000000000000000000000000000000000000000000000000000081526004018080602001828103825260168152602001807f41757468206b657920616c72656164792061646465640000000000000000000081525060200191505060405180910390fd5b6001603560008373ffffffffffffffffffffffffffffffffffffffff1673ffffffffffffffffffffffffffffffffffffffff16815260200190815260200160002060006101000a81548160ff02191690831515021790555060338190806001815401808255809150509060018203906000526020600020016000909192909190916101000a81548173ffffffffffffffffffffffffffffffffffffffff021916908373ffffffffffffffffffffffffffffffffffffffff16021790555050600160338054905003603460008373ffffffffffffffffffffffffffffffffffffffff1673ffffffffffffffffffffffffffffffffffffffff168152602001908152602001600020819055508073ffffffffffffffffffffffffffffffffffffffff167f9e46251f3febb4bf40cf64591f0efc1d6ac8a9f0b8900b2adaeb83227757058860405160405180910390a250565b61117933611bd2565b60008090505b81518110156111b1576111a482828151811061119757fe5b602002602001015161159a565b808060010191505061117f565b5050565b60006041825114156111d2576111cb8383611261565b905061125b565b6082825114156111ed576111e68383611a09565b905061125b565b6040517f08c379a000000000000000000000000000000000000000000000000000000000815260040180806020018281038252601a8152602001807f496e76616c6964205f7369676e617475726573206c656e67746800000000000081525060200191505060405180910390fd5b92915050565b60008061127f8361127186611cd1565b611dd090919063ffffffff16565b9050603560008273ffffffffffffffffffffffffffffffffffffffff1673ffffffffffffffffffffffffffffffffffffffff16815260200190815260200160002060009054906101000a900460ff16156112e3576320c13b0b60e01b9150506112ef565b63ffffffff60e01b9150505b92915050565b60008061130b8486611dd090919063ffffffff16565b9050600061136d82604051602001808273ffffffffffffffffffffffffffffffffffffffff1673ffffffffffffffffffffffffffffffffffffffff1660601b815260140191505060405160208183030381529060405280519060200120611ed4565b905060006113848583611dd090919063ffffffff16565b905061138f81611bd2565b8293505050509392505050565b60356020528060005260406000206000915054906101000a900460ff1681565b6113c533611bd2565b805182511461143c576040517f08c379a000000000000000000000000000000000000000000000000000000000815260040180806020018281038252601d8152602001807f496e70757420617272617973206e6f7420657175616c206c656e67746800000081525060200191505060405180910390fd5b60008090505b82518110156114885761147b83828151811061145a57fe5b602002602001015183838151811061146e57fe5b60200260200101516117d1565b8080600101915050611442565b505050565b600060019054906101000a900460ff16806114ac57506114ab611f2c565b5b806114c357506000809054906101000a900460ff16155b611518576040517f08c379a000000000000000000000000000000000000000000000000000000000815260040180806020018281038252602e815260200180612509602e913960400191505060405180910390fd5b60008060019054906101000a900460ff161590508015611568576001600060016101000a81548160ff02191690831515021790555060016000806101000a81548160ff0219169083151502179055505b600160378190555080156115915760008060016101000a81548160ff0219169083151502179055505b50565b60375481565b6115a333611bd2565b603560008273ffffffffffffffffffffffffffffffffffffffff1673ffffffffffffffffffffffffffffffffffffffff16815260200190815260200160002060009054906101000a900460ff16611662576040517f08c379a00000000000000000000000000000000000000000000000000000000081526004018080602001828103825260168152602001807f41757468206b6579206e6f74207965742061646465640000000000000000000081525060200191505060405180910390fd5b600161166c6119fc565b116116df576040517f08c379a000000000000000000000000000000000000000000000000000000000815260040180806020018281038252601b8152602001807f43616e6e6f742072656d6f7665206c6173742061757468206b6579000000000081525060200191505060405180910390fd5b6000603560008373ffffffffffffffffffffffffffffffffffffffff1673ffffffffffffffffffffffffffffffffffffffff16815260200190815260200160002060006101000a81548160ff02191690831515021790555061174081611f3d565b6000603460008373ffffffffffffffffffffffffffffffffffffffff1673ffffffffffffffffffffffffffffffffffffffff168152602001908152602001600020819055508073ffffffffffffffffffffffffffffffffffffffff167f24a1d50afe4670e7a657fa10322b233e347dc26799afb2d72147a679e693f31f60405160405180910390a250565b60365481565b603560008373ffffffffffffffffffffffffffffffffffffffff1673ffffffffffffffffffffffffffffffffffffffff16815260200190815260200160002060009054906101000a900460ff16611890576040517f08c379a000000000000000000000000000000000000000000000000000000000815260040180806020018281038252601b8152602001807f4f6c642061757468206b657920646f6573206e6f74206578697374000000000081525060200191505060405180910390fd5b603560008273ffffffffffffffffffffffffffffffffffffffff1673ffffffffffffffffffffffffffffffffffffffff16815260200190815260200160002060009054906101000a900460ff1615611950576040517f08c379a000000000000000000000000000000000000000000000000000000000815260040180806020018281038252601b8152602001807f4e65772061757468206b657920616c726561647920657869737473000000000081525060200191505060405180910390fd5b61195981610f57565b6119628261159a565b8073ffffffffffffffffffffffffffffffffffffffff168273ffffffffffffffffffffffffffffffffffffffff167f084d1bb6d163e102e9e0ca9dcb761e37f325346ac27c1d8bbfb23c105ffba70660405160405180910390a35050565b603381815481106119cd57fe5b906000526020600020016000915054906101000a900473ffffffffffffffffffffffffffffffffffffffff1681565b6000603380549050905090565b60006060611a2460006041856120919092919063ffffffff16565b90506060611a3e604180866120919092919063ffffffff16565b90506000611a5d83611a4f88611cd1565b611dd090919063ffffffff16565b90506000611abf82604051602001808273ffffffffffffffffffffffffffffffffffffffff1673ffffffffffffffffffffffffffffffffffffffff1660601b815260140191505060405160208183030381529060405280519060200120611ed4565b90506000611ad68483611dd090919063ffffffff16565b9050603560008273ffffffffffffffffffffffffffffffffffffffff1673ffffffffffffffffffffffffffffffffffffffff16815260200190815260200160002060009054906101000a900460ff1615611b3e576320c13b0b60e01b95505050505050611b4e565b63ffffffff60e01b955050505050505b92915050565b6060611b5f33611bd2565b611b6b8585858561211d565b9050949350505050565b60346020528060005260406000206000915090505481565b611b9633611bd2565b60008090505b8151811015611bce57611bc1828281518110611bb457fe5b6020026020010151610f57565b8080600101915050611b9c565b5050565b60011515603560008373ffffffffffffffffffffffffffffffffffffffff1673ffffffffffffffffffffffffffffffffffffffff16815260200190815260200160002060009054906101000a900460ff1615151480611c5c57503073ffffffffffffffffffffffffffffffffffffffff163373ffffffffffffffffffffffffffffffffffffffff16145b611cce576040517f08c379a00000000000000000000000000000000000000000000000000000000081526004018080602001828103825260138152602001807f41757468206b657920697320696e76616c69640000000000000000000000000081525060200191505060405180910390fd5b50565b6000611cdd82516122bf565b8260405160200180807f19457468657265756d205369676e6564204d6573736167653a0a000000000000815250601a0183805190602001908083835b60208310611d3c5780518252602082019150602081019050602083039250611d19565b6001836020036101000a03801982511681845116808217855250505050505090500182805190602001908083835b60208310611d8d5780518252602082019150602081019050602083039250611d6a565b6001836020036101000a03801982511681845116808217855250505050505090500192505050604051602081830303815290604052805190602001209050919050565b60006041825114611de45760009050611ece565b60008060006020850151925060408501519150606085015160001a90507f7fffffffffffffffffffffffffffffff5d576e7357a4501ddfe92f46681b20a08260001c1115611e385760009350505050611ece565b601b8160ff1614158015611e505750601c8160ff1614155b15611e615760009350505050611ece565b60018682858560405160008152602001604052604051808581526020018460ff1660ff1681526020018381526020018281526020019450505050506020604051602081039080840390855afa158015611ebe573d6000803e3d6000fd5b5050506020604051035193505050505b92915050565b60008160405160200180807f19457468657265756d205369676e6564204d6573736167653a0a333200000000815250601c01828152602001915050604051602081830303815290604052805190602001209050919050565b600080303b90506000811491505090565b6000603460008373ffffffffffffffffffffffffffffffffffffffff1673ffffffffffffffffffffffffffffffffffffffff16815260200190815260200160002054905060008190505b6001603380549050038110156120345760336001820181548110611fa757fe5b9060005260206000200160009054906101000a900473ffffffffffffffffffffffffffffffffffffffff1660338281548110611fdf57fe5b9060005260206000200160006101000a81548173ffffffffffffffffffffffffffffffffffffffff021916908373ffffffffffffffffffffffffffffffffffffffff1602179055508080600101915050611f87565b5060336001603380549050038154811061204a57fe5b9060005260206000200160006101000a81549073ffffffffffffffffffffffffffffffffffffffff0219169055603380548091906001900361208c91906124b7565b505050565b6060818301845110156120a357600080fd5b60608215600081146120c057604051915060208201604052612111565b6040519150601f8416801560200281840101858101878315602002848b0101015b818310156120fe57805183526020830192506020810190506120e1565b50868552601f19601f8301166040525050505b50809150509392505050565b60606036548514612196576040517f08c379a000000000000000000000000000000000000000000000000000000000815260040180806020018281038252600f8152602001807f496e636f7272656374206e6f6e6365000000000000000000000000000000000081525060200191505060405180910390fd5b603660008154809291906001019190505550600060608573ffffffffffffffffffffffffffffffffffffffff1685856040518082805190602001908083835b602083106121f857805182526020820191506020810190506020830392506121d5565b6001836020036101000a03801982511681845116808217855250505050505090500191505060006040518083038185875af1925050503d806000811461225a576040519150601f19603f3d011682016040523d82523d6000602084013e61225f565b606091505b5091509150816122b2576000612277888888886123f2565b90507fe22e3683fe845a34c5adea424d0beb84895f513ea06745002d9d65f90100591a816040518082815260200191505060405180910390a1505b8092505050949350505050565b60606000821415612307576040518060400160405280600181526020017f300000000000000000000000000000000000000000000000000000000000000081525090506123ed565b6000829050600083905060005b60008214612336578080600101915050600a828161232e57fe5b049150612314565b6060816040519080825280601f01601f19166020018201604052801561236b5781602001600182028038833980820191505090505b50905060006001830390505b600085146123e457600a858161238957fe5b0660300160f81b828280600190039350815181106123a357fe5b60200101907effffffffffffffffffffffffffffffffffffffffffffffffffffffffffffff1916908160001a905350600a85816123dc57fe5b049450612377565b81955050505050505b919050565b600084848484604051602001808581526020018473ffffffffffffffffffffffffffffffffffffffff1673ffffffffffffffffffffffffffffffffffffffff1660601b815260140183815260200182805190602001908083835b6020831061246f578051825260208201915060208101905060208303925061244c565b6001836020036101000a038019825116818451168082178552505050505050905001945050505050604051602081830303815290604052805190602001209050949350505050565b8154818355818111156124de578183600052602060002091820191016124dd91906124e3565b5b505050565b61250591905b808211156125015760008160009055506001016124e9565b5090565b9056fe436f6e747261637420696e7374616e63652068617320616c7265616479206265656e20696e697469616c697a6564a165627a7a72305820904bbac45b52f9eee14201b71751c0c977ee82b9f3495cd73b143b15ea07e0ae0029",
  "source": "pragma solidity ^0.5.8;\n\nimport \"../interfaces/IERC1271.sol\";\nimport \"openzeppelin-solidity/contracts/cryptography/ECDSA.sol\";\nimport \"openzeppelin-solidity/contracts/math/SafeMath.sol\";\nimport \"zos-lib/contracts/Initializable.sol\";\nimport \"solidity-bytes-utils/contracts/BytesLib.sol\";\n\ncontract Account is Initializable, IERC1271 {\n    using SafeMath for uint256;\n    using ECDSA for bytes32;\n    using BytesLib for bytes;\n\n    address[] public authKeysArray;\n    mapping(address => uint256) public authKeysArrayIndex;\n    mapping(address => bool) public authKeys;\n    uint256 public nonce;\n    uint256 public CHAIN_ID;\n\n    // bytes4(keccak256(\"isValidSignature(bytes,bytes)\")\n    bytes4 constant internal VALID_SIG = 0x20c13b0b;\n    bytes4 constant internal INVALID_SIG = 0xffffffff;\n\n    event FundsReceived(address indexed sender, uint256 indexed value);\n    event AddedAuthKey(address indexed authKey);\n    event RemovedAuthKey(address indexed authKey);\n    event SwappedAuthKeys(address indexed oldAuthKey, address indexed newAuthKey);\n\n    event CallFailed(bytes32 encodedData);\n\n    modifier onlyValidAuthKeyOrSelf {\n        _validateAuthKey(msg.sender);\n        _;\n    }\n\n    function initialize() public initializer {\n        CHAIN_ID = 1;\n    }\n\n    function () external payable {\n        emit FundsReceived(msg.sender, msg.value);\n    }\n\n    /**\n     *  Public functions\n     */\n\n    /// @dev Return the length of the authKeysArray\n    function getAuthKeysArrayLength() public view returns (uint256) {\n        return authKeysArray.length;\n    }\n\n    /// @dev Execute a transaction\n    /// @notice This is to be called directly by an AuthKey\n    /// @param _nonce Nonce of the transaction\n    /// @param _destination Destination of the transaction\n    /// @param _value Value of the transaction\n    /// @param _data Data of the transaction\n    function executeTransaction(\n        uint256 _nonce,\n        address _destination,\n        uint256 _value,\n        bytes memory _data\n    )\n        public\n        onlyValidAuthKeyOrSelf\n        returns (bytes memory)\n    {\n        return _executeTransaction(_nonce, _destination, _value, _data);\n    }\n    /// @dev Add an auth key to the list of auth keys\n    /// @param _authKey Address of the auth key to add\n    function addAuthKey(address _authKey) public onlyValidAuthKeyOrSelf {\n        require(!authKeys[_authKey], \"Auth key already added\");\n        authKeys[_authKey] = true;\n        authKeysArray.push(_authKey);\n        authKeysArrayIndex[_authKey] = authKeysArray.length - 1;\n        emit AddedAuthKey(_authKey);\n    }\n\n    /// @dev Add multiple auth keys to the list of auth keys\n    /// @param _authKeys Array of addresses to add to the auth keys list\n    function addMultipleAuthKeys(address[] memory _authKeys) public onlyValidAuthKeyOrSelf {\n        for (uint256 i = 0; i < _authKeys.length; i++) {\n            addAuthKey(_authKeys[i]);\n        }\n    }\n\n    /// @dev Remove an auth key from the list of auth keys\n    /// @param _authKey Address of the auth key to remove\n    function removeAuthKey(address _authKey) public onlyValidAuthKeyOrSelf {\n        require(authKeys[_authKey], \"Auth key not yet added\");\n        require(getAuthKeysArrayLength() > 1, \"Cannot remove last auth key\");\n        authKeys[_authKey] = false;\n        _removeAuthKeyFromArray(_authKey);\n        authKeysArrayIndex[_authKey] = 0;\n        emit RemovedAuthKey(_authKey);\n    }\n\n    /// @dev Remove multiple auth keys to the list of auth keys\n    /// @param _authKeys Array of addresses to remove to the auth keys list\n    function removeMultipleAuthKeys(address[] memory _authKeys) public onlyValidAuthKeyOrSelf {\n        for (uint256 i = 0; i < _authKeys.length; i++) {\n            removeAuthKey(_authKeys[i]);\n        }\n    }\n\n    /// @dev Swap one authKey for a non-authKey\n    /// @param _oldAuthKey An existing authKey\n    /// @param _newAuthKey A non-existing authKey\n    function swapAuthKeys(\n        address _oldAuthKey,\n        address _newAuthKey\n    )\n        public\n    {\n        require(authKeys[_oldAuthKey], \"Old auth key does not exist\");\n        require(!authKeys[_newAuthKey], \"New auth key already exists\");\n        addAuthKey(_newAuthKey);\n        removeAuthKey(_oldAuthKey);\n        emit SwappedAuthKeys(_oldAuthKey, _newAuthKey);\n    }\n\n    /// @dev Swap multiple auth keys to the list of auth keys\n    /// @param _oldAuthKeys Array of addresses to remove to the auth keys list\n    /// @param _newAuthKeys Array of addresses to add to the auth keys list\n    function swapMultipleAuthKeys(\n        address[] memory _oldAuthKeys,\n        address[] memory _newAuthKeys\n    )\n        public\n        onlyValidAuthKeyOrSelf\n    {\n        require(_oldAuthKeys.length == _newAuthKeys.length, \"Input arrays not equal length\");\n        for (uint256 i = 0; i < _oldAuthKeys.length; i++) {\n            swapAuthKeys(_oldAuthKeys[i], _newAuthKeys[i]);\n        }\n    }\n\n    function isValidSignature(\n        bytes memory _msg,\n        bytes memory _signatures\n    )\n        public\n        view\n        returns (bytes4)\n    {\n        if (_signatures.length == 65) {\n            return isValidAuthKeySignature(_msg, _signatures);\n        } else if (_signatures.length == 130) {\n            return isValidLoginKeySignature(_msg, _signatures);\n        } else {\n            revert(\"Invalid _signatures length\");\n        }\n    }\n\n    function isValidAuthKeySignature(\n        bytes memory _msg,\n        bytes memory _signature\n    )\n        public\n        view\n        returns (bytes4)\n    {\n        address authKeyAddress = getEthSignedMessageHash(_msg).recover(\n            _signature\n        );\n\n        if(authKeys[authKeyAddress]) {\n            return VALID_SIG;\n        } else {\n            return INVALID_SIG;\n        }\n    }\n\n    function isValidLoginKeySignature(\n        bytes memory _msg,\n        bytes memory _signatures\n    )\n        public\n        view\n        returns (bytes4)\n    {\n        bytes memory msgHashSignature = _signatures.slice(0, 65);\n        bytes memory loginKeyAuthorizationSignature = _signatures.slice(65, 65);\n\n        address loginKeyAddress = getEthSignedMessageHash(_msg).recover(\n            msgHashSignature\n        );\n\n        bytes32 loginKeyAuthorizationMessageHash = keccak256(abi.encodePacked(\n            loginKeyAddress\n        )).toEthSignedMessageHash();\n\n        address authorizationSigner = loginKeyAuthorizationMessageHash.recover(\n            loginKeyAuthorizationSignature\n        );\n\n        if(authKeys[authorizationSigner]) {\n            return VALID_SIG;\n        } else {\n            return INVALID_SIG;\n        }\n    }\n\n    /**\n     *  Internal functions\n     */\n\n    /// Remove an authKey from the authKeys array\n    /// @param _authKey authKey to remove\n    function _removeAuthKeyFromArray(address _authKey) internal {\n        uint256 index = authKeysArrayIndex[_authKey];\n\n        for (uint256 i = index; i < authKeysArray.length - 1; i++) {\n            authKeysArray[i] = authKeysArray[i + 1];\n        }\n\n        delete authKeysArray[authKeysArray.length - 1];\n        authKeysArray.length--;\n    }\n\n    /// @dev Validate an authKey\n    /// @param _authKey Address of the auth key to validate\n    function _validateAuthKey(address _authKey) internal view {\n        require(authKeys[_authKey] == true || msg.sender == address(this), \"Auth key is invalid\");\n    }\n\n    /// @dev Validate signatures from an AuthKeyMetaTx\n    /// @param _txDataMessageHash Ethereum signed message of the transaction\n    /// @param _transactionDataSignature Signed tx data\n    function _validateAuthKeyMetaTxSigs(\n        bytes32 _txDataMessageHash,\n        bytes memory _transactionDataSignature\n    )\n        internal\n        view\n        returns (address)\n    {\n        address transactionDataSigner = _txDataMessageHash.recover(_transactionDataSignature);\n        _validateAuthKey(transactionDataSigner);\n        return transactionDataSigner;\n    }\n\n    /// @dev Validate signatures from an AuthKeyMetaTx\n    /// @param _txDataMessageHash Ethereum signed message of the transaction\n    /// @param _transactionDataSignature Signed tx data\n    /// @param _loginKeyAuthorizationSignature Signed loginKey\n    function validateLoginKeyMetaTxSigs(\n        bytes32 _txDataMessageHash,\n        bytes memory _transactionDataSignature,\n        bytes memory _loginKeyAuthorizationSignature\n    )\n        public\n        view\n        returns (address)\n    {\n        address transactionDataSigner = _txDataMessageHash.recover(\n            _transactionDataSignature\n        );\n\n        bytes32 loginKeyAuthorizationMessageHash = keccak256(abi.encodePacked(\n            transactionDataSigner\n        )).toEthSignedMessageHash();\n\n        address authorizationSigner = loginKeyAuthorizationMessageHash.recover(\n            _loginKeyAuthorizationSignature\n        );\n        _validateAuthKey(authorizationSigner);\n\n        return transactionDataSigner;\n    }\n\n    /// @dev Execute a transaction without a refund\n    /// @notice This is the transaction sent from the CBA\n    /// @param _nonce Nonce of the transaction\n    /// @param _destination Destination of the transaction\n    /// @param _value Value of the transaction\n    /// @param _data Data of the transaction\n    function _executeTransaction(\n        uint256 _nonce,\n        address _destination,\n        uint256 _value,\n        bytes memory _data\n    )\n        internal\n        returns (bytes memory)\n    {\n        require(_nonce == nonce, \"Incorrect nonce\");\n        nonce++;\n        (bool success, bytes memory response) = _destination.call.value(_value)(_data);\n\n        if (!success) {\n            bytes32 encodedData = _encodeData(_nonce, _destination, _value, _data);\n            emit CallFailed(encodedData);\n        }\n        return response;\n    }\n\n    /// @dev Execute a transaction with a refund\n    /// @notice This is meant to be used by executeAuthKeyMetaTx when being called\n    /// @notice from a relayer.\n    /// @param _nonce Nonce of the transaction\n    /// @param _destination Destination of the transaction\n    /// @param _value Value of the transaction\n    /// @param _data Data of the transaction\n    /// @param _gasPrice Gas price of the transaction\n    /// @param _gasLimit Gas limit of the transaction\n    /// @param _startGas Starting gas at the beginning of the transaction\n    function _executeTransactionWithRefund(\n        uint256 _nonce,\n        address _destination,\n        uint256 _value,\n        bytes memory _data,\n        uint256 _gasPrice,\n        uint256 _gasLimit,\n        uint256 _startGas\n    )\n        internal\n        returns (bytes memory)\n    {\n        bytes memory response = _executeTransaction(_nonce, _destination, _value, _data);\n        uint256 gasUsed = _startGas.sub(gasleft());\n        _issueRefund(gasUsed, _gasPrice, _gasLimit);\n        return response;\n    }\n\n    /// @dev Issue a refund\n    /// @param _gasUsed Gas used during the execution of the CBA transaction\n    /// @param _gasPrice Gas price to use when sending a refund\n    /// @param _gasLimit Gas limit for the entire transaction\n    function _issueRefund(\n        uint256 _gasUsed,\n        uint256 _gasPrice,\n        uint256 _gasLimit\n    )\n        private\n    {\n        require(_gasUsed <= _gasLimit, \"Insufficient gas for refund\");\n        msg.sender.transfer(_gasUsed.mul(_gasPrice));\n    }\n\n    /// @dev Encode data for a failed transaction\n    /// @param _nonce Nonce of the transaction\n    /// @param _destination Destination of the transaction\n    /// @param _value Value of the transaction\n    /// @param _data Data of the transaction\n    function _encodeData(\n        uint256 _nonce,\n        address _destination,\n        uint256 _value,\n        bytes memory _data\n    )\n        internal\n        pure\n        returns (bytes32)\n    {\n        return keccak256(abi.encodePacked(\n            _nonce,\n            _destination,\n            _value,\n            _data\n        ));\n    }\n\n    /// @dev Adds ETH signed message prefix to bytes message and hashes it\n    /// @param _msg the bytes message before adding the prefix\n    /// @return the prefixed and hashed message\n    function getEthSignedMessageHash(bytes memory _msg) internal pure returns (bytes32) {\n        return keccak256(abi.encodePacked(\"\\x19Ethereum Signed Message:\\n\", uint2str(_msg.length), _msg));\n    }\n\n    /// @dev Convert uint to string\n    /// @param _num uint to be converted\n    /// @return the string equivalent of the uint\n    function uint2str(uint _num) private pure returns (string memory _uintAsString) {\n        if (_num == 0) {\n            return \"0\";\n        }\n        uint i = _num;\n        uint j = _num;\n        uint len;\n        while (j != 0) {\n            len++;\n            j /= 10;\n        }\n        bytes memory bstr = new bytes(len);\n        uint k = len - 1;\n        while (i != 0) {\n            bstr[k--] = byte(uint8(48 + i % 10));\n            i /= 10;\n        }\n        return string(bstr);\n    }\n}",
  "sourcePath": "/Users/sh/Dev/authereumorg/authereum/monorepo/packages/contracts/contracts/account/Account.sol",
  "compiler": {
    "name": "solc",
    "version": "0.5.8+commit.23d335f2.Emscripten.clang"
  },
  "schemaVersion": "3.0.11",
  "updatedAt": "2019-08-03T02:41:48.255Z",
  "devdoc": {
    "methods": {
      "addAuthKey(address)": {
        "details": "Add an auth key to the list of auth keys",
        "params": {
          "_authKey": "Address of the auth key to add"
        }
      },
      "addMultipleAuthKeys(address[])": {
        "details": "Add multiple auth keys to the list of auth keys",
        "params": {
          "_authKeys": "Array of addresses to add to the auth keys list"
        }
      },
      "executeTransaction(uint256,address,uint256,bytes)": {
        "details": "Execute a transaction",
        "params": {
          "_data": "Data of the transaction",
          "_destination": "Destination of the transaction",
          "_nonce": "Nonce of the transaction",
          "_value": "Value of the transaction"
        }
      },
      "getAuthKeysArrayLength()": {
        "details": "Return the length of the authKeysArray"
      },
      "removeAuthKey(address)": {
        "details": "Remove an auth key from the list of auth keys",
        "params": {
          "_authKey": "Address of the auth key to remove"
        }
      },
      "removeMultipleAuthKeys(address[])": {
        "details": "Remove multiple auth keys to the list of auth keys",
        "params": {
          "_authKeys": "Array of addresses to remove to the auth keys list"
        }
      },
      "swapAuthKeys(address,address)": {
        "details": "Swap one authKey for a non-authKey",
        "params": {
          "_newAuthKey": "A non-existing authKey",
          "_oldAuthKey": "An existing authKey"
        }
      },
      "swapMultipleAuthKeys(address[],address[])": {
        "details": "Swap multiple auth keys to the list of auth keys",
        "params": {
          "_newAuthKeys": "Array of addresses to add to the auth keys list",
          "_oldAuthKeys": "Array of addresses to remove to the auth keys list"
        }
      },
      "validateLoginKeyMetaTxSigs(bytes32,bytes,bytes)": {
        "details": "Validate signatures from an AuthKeyMetaTx",
        "params": {
          "_loginKeyAuthorizationSignature": "Signed loginKey",
          "_transactionDataSignature": "Signed tx data",
          "_txDataMessageHash": "Ethereum signed message of the transaction"
        }
      }
    }
  },
  "userdoc": {
    "methods": {
      "executeTransaction(uint256,address,uint256,bytes)": {
        "notice": "This is to be called directly by an AuthKey"
      }
    }
  }
}