{
  "contractName": "AuthereumEnsResolver",
  "abi": [
    {
      "constant": false,
      "inputs": [
        {
          "name": "_manager",
          "type": "address"
        }
      ],
      "name": "addManager",
      "outputs": [],
      "payable": false,
      "stateMutability": "nonpayable",
      "type": "function"
    },
    {
      "constant": true,
      "inputs": [
        {
          "name": "_potentialOwner",
          "type": "address"
        }
      ],
      "name": "isOwner",
      "outputs": [
        {
          "name": "",
          "type": "bool"
        }
      ],
      "payable": false,
      "stateMutability": "view",
      "type": "function"
    },
    {
      "constant": false,
      "inputs": [
        {
          "name": "_manager",
          "type": "address"
        }
      ],
      "name": "revokeManager",
      "outputs": [],
      "payable": false,
      "stateMutability": "nonpayable",
      "type": "function"
    },
    {
      "constant": true,
      "inputs": [],
      "name": "authereumEnsManager",
      "outputs": [
        {
          "name": "",
          "type": "address"
        }
      ],
      "payable": false,
      "stateMutability": "view",
      "type": "function"
    },
    {
      "constant": true,
      "inputs": [],
      "name": "owner",
      "outputs": [
        {
          "name": "",
          "type": "address"
        }
      ],
      "payable": false,
      "stateMutability": "view",
      "type": "function"
    },
    {
      "constant": false,
      "inputs": [
        {
          "name": "_newOwner",
          "type": "address"
        }
      ],
      "name": "changeOwner",
      "outputs": [],
      "payable": false,
      "stateMutability": "nonpayable",
      "type": "function"
    },
    {
      "constant": true,
      "inputs": [],
      "name": "timelockContract",
      "outputs": [
        {
          "name": "",
          "type": "address"
        }
      ],
      "payable": false,
      "stateMutability": "view",
      "type": "function"
    },
    {
      "constant": true,
      "inputs": [
        {
          "name": "",
          "type": "address"
        }
      ],
      "name": "managers",
      "outputs": [
        {
          "name": "",
          "type": "bool"
        }
      ],
      "payable": false,
      "stateMutability": "view",
      "type": "function"
    },
    {
      "inputs": [
        {
          "name": "ensAddr",
          "type": "address"
        },
        {
          "name": "_timelockContract",
          "type": "address"
        }
      ],
      "payable": false,
      "stateMutability": "nonpayable",
      "type": "constructor"
    },
    {
      "anonymous": false,
      "inputs": [
        {
          "indexed": true,
          "name": "node",
          "type": "bytes32"
        },
        {
          "indexed": false,
          "name": "a",
          "type": "address"
        }
      ],
      "name": "AddrChanged",
      "type": "event"
    },
    {
      "anonymous": false,
      "inputs": [
        {
          "indexed": true,
          "name": "node",
          "type": "bytes32"
        },
        {
          "indexed": false,
          "name": "name",
          "type": "string"
        }
      ],
      "name": "NameChanged",
      "type": "event"
    },
    {
      "anonymous": false,
      "inputs": [
        {
          "indexed": true,
          "name": "_manager",
          "type": "address"
        }
      ],
      "name": "ManagerAdded",
      "type": "event"
    },
    {
      "anonymous": false,
      "inputs": [
        {
          "indexed": true,
          "name": "_manager",
          "type": "address"
        }
      ],
      "name": "ManagerRevoked",
      "type": "event"
    },
    {
      "anonymous": false,
      "inputs": [
        {
          "indexed": true,
          "name": "_newOwner",
          "type": "address"
        }
      ],
      "name": "OwnerChanged",
      "type": "event"
    },
    {
      "constant": false,
      "inputs": [
        {
          "name": "node",
          "type": "bytes32"
        },
        {
          "name": "addr",
          "type": "address"
        }
      ],
      "name": "setAddr",
      "outputs": [],
      "payable": false,
      "stateMutability": "nonpayable",
      "type": "function"
    },
    {
      "constant": false,
      "inputs": [
        {
          "name": "node",
          "type": "bytes32"
        },
        {
          "name": "name",
          "type": "string"
        }
      ],
      "name": "setName",
      "outputs": [],
      "payable": false,
      "stateMutability": "nonpayable",
      "type": "function"
    },
    {
      "constant": true,
      "inputs": [
        {
          "name": "node",
          "type": "bytes32"
        }
      ],
      "name": "addr",
      "outputs": [
        {
          "name": "",
          "type": "address"
        }
      ],
      "payable": false,
      "stateMutability": "view",
      "type": "function"
    },
    {
      "constant": true,
      "inputs": [
        {
          "name": "node",
          "type": "bytes32"
        }
      ],
      "name": "name",
      "outputs": [
        {
          "name": "",
          "type": "string"
        }
      ],
      "payable": false,
      "stateMutability": "view",
      "type": "function"
    },
    {
      "constant": true,
      "inputs": [
        {
          "name": "interfaceID",
          "type": "bytes4"
        }
      ],
      "name": "supportsInterface",
      "outputs": [
        {
          "name": "",
          "type": "bool"
        }
      ],
      "payable": false,
      "stateMutability": "pure",
      "type": "function"
    }
  ],
  "bytecode": "0x608060405234801561001057600080fd5b506040516040806114018339810180604052604081101561003057600080fd5b810190808051906020019092919080519060200190929190505050336000806101000a81548173ffffffffffffffffffffffffffffffffffffffff021916908373ffffffffffffffffffffffffffffffffffffffff16021790555081600260006101000a81548173ffffffffffffffffffffffffffffffffffffffff021916908373ffffffffffffffffffffffffffffffffffffffff16021790555080600560006101000a81548173ffffffffffffffffffffffffffffffffffffffff021916908373ffffffffffffffffffffffffffffffffffffffff16021790555050506112e38061011e6000396000f3fe608060405234801561001057600080fd5b50600436106100cf5760003560e01c8063691f34311161008c578063a6f9dae111610066578063a6f9dae11461048b578063a9181cc4146104cf578063d5fa2b0014610519578063fdff9b4d14610567576100cf565b8063691f3431146102d5578063773722131461037c5780638da5cb5b14610441576100cf565b806301ffc9a7146100d45780632d06177a146101395780632f54bf6e1461017d578063377e32e6146101d95780633b3b57de1461021d5780635f70df5f1461028b575b600080fd5b61011f600480360360208110156100ea57600080fd5b8101908080357bffffffffffffffffffffffffffffffffffffffffffffffffffffffff191690602001909291905050506105c3565b604051808215151515815260200191505060405180910390f35b61017b6004803603602081101561014f57600080fd5b81019080803573ffffffffffffffffffffffffffffffffffffffff1690602001909291905050506106b2565b005b6101bf6004803603602081101561019357600080fd5b81019080803573ffffffffffffffffffffffffffffffffffffffff16906020019092919050505061090e565b604051808215151515815260200191505060405180910390f35b61021b600480360360208110156101ef57600080fd5b81019080803573ffffffffffffffffffffffffffffffffffffffff169060200190929190505050610967565b005b6102496004803603602081101561023357600080fd5b8101908080359060200190929190505050610b67565b604051808273ffffffffffffffffffffffffffffffffffffffff1673ffffffffffffffffffffffffffffffffffffffff16815260200191505060405180910390f35b610293610ba7565b604051808273ffffffffffffffffffffffffffffffffffffffff1673ffffffffffffffffffffffffffffffffffffffff16815260200191505060405180910390f35b610301600480360360208110156102eb57600080fd5b8101908080359060200190929190505050610bcd565b6040518080602001828103825283818151815260200191508051906020019080838360005b83811015610341578082015181840152602081019050610326565b50505050905090810190601f16801561036e5780820380516001836020036101000a031916815260200191505b509250505060405180910390f35b61043f6004803603604081101561039257600080fd5b8101908080359060200190929190803590602001906401000000008111156103b957600080fd5b8201836020820111156103cb57600080fd5b803590602001918460018302840111640100000000831117156103ed57600080fd5b91908080601f016020809104026020016040519081016040528093929190818152602001838380828437600081840152601f19601f820116905080830192505050505050509192919290505050610c85565b005b610449610e17565b604051808273ffffffffffffffffffffffffffffffffffffffff1673ffffffffffffffffffffffffffffffffffffffff16815260200191505060405180910390f35b6104cd600480360360208110156104a157600080fd5b81019080803573ffffffffffffffffffffffffffffffffffffffff169060200190929190505050610e3c565b005b6104d7611027565b604051808273ffffffffffffffffffffffffffffffffffffffff1673ffffffffffffffffffffffffffffffffffffffff16815260200191505060405180910390f35b6105656004803603604081101561052f57600080fd5b8101908080359060200190929190803573ffffffffffffffffffffffffffffffffffffffff16906020019092919050505061104d565b005b6105a96004803603602081101561057d57600080fd5b81019080803573ffffffffffffffffffffffffffffffffffffffff1690602001909291905050506111d0565b604051808215151515815260200191505060405180910390f35b60006301ffc9a760e01b7bffffffffffffffffffffffffffffffffffffffffffffffffffffffff1916827bffffffffffffffffffffffffffffffffffffffffffffffffffffffff1916148061065c5750633b3b57de60e01b7bffffffffffffffffffffffffffffffffffffffffffffffffffffffff1916827bffffffffffffffffffffffffffffffffffffffffffffffffffffffff1916145b806106ab575063691f343160e01b7bffffffffffffffffffffffffffffffffffffffffffffffffffffffff1916827bffffffffffffffffffffffffffffffffffffffffffffffffffffffff1916145b9050919050565b6000809054906101000a900473ffffffffffffffffffffffffffffffffffffffff1673ffffffffffffffffffffffffffffffffffffffff163373ffffffffffffffffffffffffffffffffffffffff1614610774576040517f08c379a000000000000000000000000000000000000000000000000000000000815260040180806020018281038252600d8152602001807f4d757374206265206f776e65720000000000000000000000000000000000000081525060200191505060405180910390fd5b600073ffffffffffffffffffffffffffffffffffffffff168173ffffffffffffffffffffffffffffffffffffffff161415610817576040517f08c379a00000000000000000000000000000000000000000000000000000000081526004018080602001828103825260188152602001807f41646472657373206d757374206e6f74206265206e756c6c000000000000000081525060200191505060405180910390fd5b60001515600160008373ffffffffffffffffffffffffffffffffffffffff1673ffffffffffffffffffffffffffffffffffffffff16815260200190815260200160002060009054906101000a900460ff161515141561090b5760018060008373ffffffffffffffffffffffffffffffffffffffff1673ffffffffffffffffffffffffffffffffffffffff16815260200190815260200160002060006101000a81548160ff0219169083151502179055508073ffffffffffffffffffffffffffffffffffffffff167f3b4a40cccf2058c593542587329dd385be4f0b588db5471fbd9598e56dd7093a60405160405180910390a25b50565b60008173ffffffffffffffffffffffffffffffffffffffff166000809054906101000a900473ffffffffffffffffffffffffffffffffffffffff1673ffffffffffffffffffffffffffffffffffffffff16149050919050565b6000809054906101000a900473ffffffffffffffffffffffffffffffffffffffff1673ffffffffffffffffffffffffffffffffffffffff163373ffffffffffffffffffffffffffffffffffffffff1614610a29576040517f08c379a000000000000000000000000000000000000000000000000000000000815260040180806020018281038252600d8152602001807f4d757374206265206f776e65720000000000000000000000000000000000000081525060200191505060405180910390fd5b60011515600160008373ffffffffffffffffffffffffffffffffffffffff1673ffffffffffffffffffffffffffffffffffffffff16815260200190815260200160002060009054906101000a900460ff16151514610ad2576040517f08c379a00000000000000000000000000000000000000000000000000000000081526004018080602001828103825260228152602001806112966022913960400191505060405180910390fd5b600160008273ffffffffffffffffffffffffffffffffffffffff1673ffffffffffffffffffffffffffffffffffffffff16815260200190815260200160002060006101000a81549060ff02191690558073ffffffffffffffffffffffffffffffffffffffff167fe5def11e0516f317f9c37b8835aec29fc01db4d4b6d6fecaca339d3596a29bc160405160405180910390a250565b60006003600083815260200190815260200160002060000160009054906101000a900473ffffffffffffffffffffffffffffffffffffffff169050919050565b600460009054906101000a900473ffffffffffffffffffffffffffffffffffffffff1681565b6060600360008381526020019081526020016000206001018054600181600116156101000203166002900480601f016020809104026020016040519081016040528092919081815260200182805460018160011615610100020316600290048015610c795780601f10610c4e57610100808354040283529160200191610c79565b820191906000526020600020905b815481529060010190602001808311610c5c57829003601f168201915b50505050509050919050565b60011515600160003373ffffffffffffffffffffffffffffffffffffffff1673ffffffffffffffffffffffffffffffffffffffff16815260200190815260200160002060009054906101000a900460ff16151514610d4b576040517f08c379a000000000000000000000000000000000000000000000000000000000815260040180806020018281038252600f8152602001807f4d757374206265206d616e61676572000000000000000000000000000000000081525060200191505060405180910390fd5b80600360008481526020019081526020016000206001019080519060200190610d759291906111f0565b50817fb7d29e911041e8d9b843369e890bcb72c9388692ba48b65ac54e7214c4c348f7826040518080602001828103825283818151815260200191508051906020019080838360005b83811015610dd9578082015181840152602081019050610dbe565b50505050905090810190601f168015610e065780820380516001836020036101000a031916815260200191505b509250505060405180910390a25050565b6000809054906101000a900473ffffffffffffffffffffffffffffffffffffffff1681565b6000809054906101000a900473ffffffffffffffffffffffffffffffffffffffff1673ffffffffffffffffffffffffffffffffffffffff163373ffffffffffffffffffffffffffffffffffffffff1614610efe576040517f08c379a000000000000000000000000000000000000000000000000000000000815260040180806020018281038252600d8152602001807f4d757374206265206f776e65720000000000000000000000000000000000000081525060200191505060405180910390fd5b600073ffffffffffffffffffffffffffffffffffffffff168173ffffffffffffffffffffffffffffffffffffffff161415610fa1576040517f08c379a00000000000000000000000000000000000000000000000000000000081526004018080602001828103825260188152602001807f41646472657373206d757374206e6f74206265206e756c6c000000000000000081525060200191505060405180910390fd5b806000806101000a81548173ffffffffffffffffffffffffffffffffffffffff021916908373ffffffffffffffffffffffffffffffffffffffff1602179055508073ffffffffffffffffffffffffffffffffffffffff167fa2ea9883a321a3e97b8266c2b078bfeec6d50c711ed71f874a90d500ae2eaf3660405160405180910390a250565b600560009054906101000a900473ffffffffffffffffffffffffffffffffffffffff1681565b60011515600160003373ffffffffffffffffffffffffffffffffffffffff1673ffffffffffffffffffffffffffffffffffffffff16815260200190815260200160002060009054906101000a900460ff16151514611113576040517f08c379a000000000000000000000000000000000000000000000000000000000815260040180806020018281038252600f8152602001807f4d757374206265206d616e61676572000000000000000000000000000000000081525060200191505060405180910390fd5b806003600084815260200190815260200160002060000160006101000a81548173ffffffffffffffffffffffffffffffffffffffff021916908373ffffffffffffffffffffffffffffffffffffffff160217905550817f52d7d861f09ab3d26239d492e8968629f95e9e318cf0b73bfddc441522a15fd282604051808273ffffffffffffffffffffffffffffffffffffffff1673ffffffffffffffffffffffffffffffffffffffff16815260200191505060405180910390a25050565b60016020528060005260406000206000915054906101000a900460ff1681565b828054600181600116156101000203166002900490600052602060002090601f016020900481019282601f1061123157805160ff191683800117855561125f565b8280016001018555821561125f579182015b8281111561125e578251825591602001919060010190611243565b5b50905061126c9190611270565b5090565b61129291905b8082111561128e576000816000905550600101611276565b5090565b9056fe546172676574206d75737420626520616e206578697374696e67206d616e61676572a165627a7a723058208d5d4693821abb8a85723259aa8bb68abaceb33e3195922f9cfad5f26f6c87c00029",
  "source": "pragma solidity ^0.5.8;\n\nimport \"../base/Owned.sol\";\nimport \"../base/Managed.sol\";\nimport \"./ENS.sol\";\n\n/**\n * @title AuthereumEnsResolver\n * @dev Authereum implementation of a Resolver.\n */\n\ncontract AuthereumEnsResolver is Owned, Managed {\n\n    bytes4 constant INTERFACE_META_ID = 0x01ffc9a7;\n    bytes4 constant ADDR_INTERFACE_ID = 0x3b3b57de;\n    bytes4 constant NAME_INTERFACE_ID = 0x691f3431;\n\n    event AddrChanged(bytes32 indexed node, address a);\n    event NameChanged(bytes32 indexed node, string name);\n\n    struct Record {\n        address addr;\n        string name;\n    }\n\n    EnsRegistry ens;\n    mapping (bytes32 => Record) records;\n    address public authereumEnsManager;\n    address public timelockContract;\n\n    /// @dev Constructor\n    /// @param ensAddr The ENS registrar contract.\n    /// @param _timelockContract Authereum timelock contract address\n    constructor(EnsRegistry ensAddr, address _timelockContract) public {\n        ens = ensAddr;\n        timelockContract = _timelockContract;\n    }\n\n    /**\n     * Setters\n     */\n\n    /// @dev Sets the address associated with an ENS node.\n    /// @notice May only be called by the owner of that node in the ENS registry.\n    /// @param node The node to update.\n    /// @param addr The address to set.\n    function setAddr(bytes32 node, address addr) public onlyManager {\n        records[node].addr = addr;\n        emit AddrChanged(node, addr);\n    }\n\n    /// @dev Sets the name associated with an ENS node, for reverse records.\n    /// @notice May only be called by the owner of that node in the ENS registry.\n    /// @param node The node to update.\n    /// @param name The name to set.\n    function setName(bytes32 node, string memory name) public onlyManager {\n        records[node].name = name;\n        emit NameChanged(node, name);\n    }\n\n    /**\n     * Getters\n     */\n\n    /// @dev Returns the address associated with an ENS node.\n    /// @param node The ENS node to query.\n    /// @return The associated address.\n    function addr(bytes32 node) public view returns (address) {\n        return records[node].addr;\n    }\n\n    /// @dev Returns the name associated with an ENS node, for reverse records.\n    /// @notice Defined in EIP181.\n    /// @param node The ENS node to query.\n    /// @return The associated name.\n    function name(bytes32 node) public view returns (string memory) {\n        return records[node].name;\n    }\n\n    /// @dev Returns true if the resolver implements the interface specified by the provided hash.\n    /// @param interfaceID The ID of the interface to check for.\n    /// @return True if the contract implements the requested interface.\n    function supportsInterface(bytes4 interfaceID) public pure returns (bool) {\n        return interfaceID == INTERFACE_META_ID ||\n        interfaceID == ADDR_INTERFACE_ID ||\n        interfaceID == NAME_INTERFACE_ID;\n    }\n}\n",
  "sourcePath": "/Users/sh/Dev/authereumorg/authereum/monorepo/packages/contracts/contracts/ens/AuthereumENSResolver.sol",
  "compiler": {
    "name": "solc",
    "version": "0.5.8+commit.23d335f2.Emscripten.clang"
  },
  "schemaVersion": "3.0.11",
  "updatedAt": "2019-08-03T02:41:48.290Z",
  "devdoc": {
    "details": "Authereum implementation of a Resolver.",
    "methods": {
      "addManager(address)": {
        "details": "Adds a manager.",
        "params": {
          "_manager": "The address of the manager."
        }
      },
      "addr(bytes32)": {
        "details": "Returns the address associated with an ENS node.",
        "params": {
          "node": "The ENS node to query."
        },
        "return": "The associated address."
      },
      "changeOwner(address)": {
        "details": "Lets the owner transfer ownership of the contract to a new owner.",
        "params": {
          "_newOwner": "The new owner."
        }
      },
      "constructor": {
        "details": "Constructor",
        "params": {
          "_timelockContract": "Authereum timelock contract address",
          "ensAddr": "The ENS registrar contract."
        }
      },
      "isOwner(address)": {
        "details": "Return the ownership status of an address.",
        "params": {
          "_potentialOwner": "Address being checked."
        }
      },
      "name(bytes32)": {
        "details": "Returns the name associated with an ENS node, for reverse records.",
        "params": {
          "node": "The ENS node to query."
        },
        "return": "The associated name."
      },
      "revokeManager(address)": {
        "details": "Revokes a manager.",
        "params": {
          "_manager": "The address of the manager."
        }
      },
      "setAddr(bytes32,address)": {
        "details": "Sets the address associated with an ENS node.",
        "params": {
          "addr": "The address to set.",
          "node": "The node to update."
        }
      },
      "setName(bytes32,string)": {
        "details": "Sets the name associated with an ENS node, for reverse records.",
        "params": {
          "name": "The name to set.",
          "node": "The node to update."
        }
      },
      "supportsInterface(bytes4)": {
        "details": "Returns true if the resolver implements the interface specified by the provided hash.",
        "params": {
          "interfaceID": "The ID of the interface to check for."
        },
        "return": "True if the contract implements the requested interface."
      }
    },
    "title": "AuthereumEnsResolver"
  },
  "userdoc": {
    "methods": {
      "name(bytes32)": {
        "notice": "Defined in EIP181."
      },
      "setAddr(bytes32,address)": {
        "notice": "May only be called by the owner of that node in the ENS registry."
      },
      "setName(bytes32,string)": {
        "notice": "May only be called by the owner of that node in the ENS registry."
      }
    }
  }
}