{
  "contractName": "AuthKeyMetaTxAccount",
  "abi": [
    {
      "constant": false,
      "inputs": [
        {
          "name": "_authKey",
          "type": "address"
        }
      ],
      "name": "addAuthKey",
      "outputs": [],
      "payable": false,
      "stateMutability": "nonpayable",
      "type": "function"
    },
    {
      "constant": false,
      "inputs": [
        {
          "name": "_authKeys",
          "type": "address[]"
        }
      ],
      "name": "removeMultipleAuthKeys",
      "outputs": [],
      "payable": false,
      "stateMutability": "nonpayable",
      "type": "function"
    },
    {
      "constant": true,
      "inputs": [
        {
          "name": "_msg",
          "type": "bytes"
        },
        {
          "name": "_signatures",
          "type": "bytes"
        }
      ],
      "name": "isValidSignature",
      "outputs": [
        {
          "name": "",
          "type": "bytes4"
        }
      ],
      "payable": false,
      "stateMutability": "view",
      "type": "function"
    },
    {
      "constant": true,
      "inputs": [
        {
          "name": "_msg",
          "type": "bytes"
        },
        {
          "name": "_signature",
          "type": "bytes"
        }
      ],
      "name": "isValidAuthKeySignature",
      "outputs": [
        {
          "name": "",
          "type": "bytes4"
        }
      ],
      "payable": false,
      "stateMutability": "view",
      "type": "function"
    },
    {
      "constant": true,
      "inputs": [
        {
          "name": "_txDataMessageHash",
          "type": "bytes32"
        },
        {
          "name": "_transactionDataSignature",
          "type": "bytes"
        },
        {
          "name": "_loginKeyAuthorizationSignature",
          "type": "bytes"
        }
      ],
      "name": "validateLoginKeyMetaTxSigs",
      "outputs": [
        {
          "name": "",
          "type": "address"
        }
      ],
      "payable": false,
      "stateMutability": "view",
      "type": "function"
    },
    {
      "constant": true,
      "inputs": [
        {
          "name": "",
          "type": "address"
        }
      ],
      "name": "authKeys",
      "outputs": [
        {
          "name": "",
          "type": "bool"
        }
      ],
      "payable": false,
      "stateMutability": "view",
      "type": "function"
    },
    {
      "constant": false,
      "inputs": [
        {
          "name": "_oldAuthKeys",
          "type": "address[]"
        },
        {
          "name": "_newAuthKeys",
          "type": "address[]"
        }
      ],
      "name": "swapMultipleAuthKeys",
      "outputs": [],
      "payable": false,
      "stateMutability": "nonpayable",
      "type": "function"
    },
    {
      "constant": false,
      "inputs": [],
      "name": "initialize",
      "outputs": [],
      "payable": false,
      "stateMutability": "nonpayable",
      "type": "function"
    },
    {
      "constant": true,
      "inputs": [],
      "name": "CHAIN_ID",
      "outputs": [
        {
          "name": "",
          "type": "uint256"
        }
      ],
      "payable": false,
      "stateMutability": "view",
      "type": "function"
    },
    {
      "constant": false,
      "inputs": [
        {
          "name": "_authKey",
          "type": "address"
        }
      ],
      "name": "removeAuthKey",
      "outputs": [],
      "payable": false,
      "stateMutability": "nonpayable",
      "type": "function"
    },
    {
      "constant": true,
      "inputs": [],
      "name": "nonce",
      "outputs": [
        {
          "name": "",
          "type": "uint256"
        }
      ],
      "payable": false,
      "stateMutability": "view",
      "type": "function"
    },
    {
      "constant": false,
      "inputs": [
        {
          "name": "_oldAuthKey",
          "type": "address"
        },
        {
          "name": "_newAuthKey",
          "type": "address"
        }
      ],
      "name": "swapAuthKeys",
      "outputs": [],
      "payable": false,
      "stateMutability": "nonpayable",
      "type": "function"
    },
    {
      "constant": true,
      "inputs": [
        {
          "name": "",
          "type": "uint256"
        }
      ],
      "name": "authKeysArray",
      "outputs": [
        {
          "name": "",
          "type": "address"
        }
      ],
      "payable": false,
      "stateMutability": "view",
      "type": "function"
    },
    {
      "constant": true,
      "inputs": [],
      "name": "getAuthKeysArrayLength",
      "outputs": [
        {
          "name": "",
          "type": "uint256"
        }
      ],
      "payable": false,
      "stateMutability": "view",
      "type": "function"
    },
    {
      "constant": true,
      "inputs": [
        {
          "name": "_msg",
          "type": "bytes"
        },
        {
          "name": "_signatures",
          "type": "bytes"
        }
      ],
      "name": "isValidLoginKeySignature",
      "outputs": [
        {
          "name": "",
          "type": "bytes4"
        }
      ],
      "payable": false,
      "stateMutability": "view",
      "type": "function"
    },
    {
      "constant": false,
      "inputs": [
        {
          "name": "_nonce",
          "type": "uint256"
        },
        {
          "name": "_destination",
          "type": "address"
        },
        {
          "name": "_value",
          "type": "uint256"
        },
        {
          "name": "_data",
          "type": "bytes"
        }
      ],
      "name": "executeTransaction",
      "outputs": [
        {
          "name": "",
          "type": "bytes"
        }
      ],
      "payable": false,
      "stateMutability": "nonpayable",
      "type": "function"
    },
    {
      "constant": true,
      "inputs": [
        {
          "name": "",
          "type": "address"
        }
      ],
      "name": "authKeysArrayIndex",
      "outputs": [
        {
          "name": "",
          "type": "uint256"
        }
      ],
      "payable": false,
      "stateMutability": "view",
      "type": "function"
    },
    {
      "constant": false,
      "inputs": [
        {
          "name": "_authKeys",
          "type": "address[]"
        }
      ],
      "name": "addMultipleAuthKeys",
      "outputs": [],
      "payable": false,
      "stateMutability": "nonpayable",
      "type": "function"
    },
    {
      "payable": true,
      "stateMutability": "payable",
      "type": "fallback"
    },
    {
      "anonymous": false,
      "inputs": [
        {
          "indexed": true,
          "name": "sender",
          "type": "address"
        },
        {
          "indexed": true,
          "name": "value",
          "type": "uint256"
        }
      ],
      "name": "FundsReceived",
      "type": "event"
    },
    {
      "anonymous": false,
      "inputs": [
        {
          "indexed": true,
          "name": "authKey",
          "type": "address"
        }
      ],
      "name": "AddedAuthKey",
      "type": "event"
    },
    {
      "anonymous": false,
      "inputs": [
        {
          "indexed": true,
          "name": "authKey",
          "type": "address"
        }
      ],
      "name": "RemovedAuthKey",
      "type": "event"
    },
    {
      "anonymous": false,
      "inputs": [
        {
          "indexed": true,
          "name": "oldAuthKey",
          "type": "address"
        },
        {
          "indexed": true,
          "name": "newAuthKey",
          "type": "address"
        }
      ],
      "name": "SwappedAuthKeys",
      "type": "event"
    },
    {
      "anonymous": false,
      "inputs": [
        {
          "indexed": false,
          "name": "encodedData",
          "type": "bytes32"
        }
      ],
      "name": "CallFailed",
      "type": "event"
    },
    {
      "constant": false,
      "inputs": [
        {
          "name": "_destination",
          "type": "address"
        },
        {
          "name": "_data",
          "type": "bytes"
        },
        {
          "name": "_value",
          "type": "uint256"
        },
        {
          "name": "_nonce",
          "type": "uint256"
        },
        {
          "name": "_gasLimit",
          "type": "uint256"
        },
        {
          "name": "_transactionDataSignature",
          "type": "bytes"
        }
      ],
      "name": "executeAuthKeyMetaTx",
      "outputs": [
        {
          "name": "",
          "type": "bytes"
        }
      ],
      "payable": false,
      "stateMutability": "nonpayable",
      "type": "function"
    }
  ],
  "bytecode": "0x608060405234801561001057600080fd5b50612bae806100206000396000f3fe6080604052600436106101145760003560e01c80639565389e116100a0578063d59e3e9811610064578063d59e3e9814610b12578063e0eae14d14610cc3578063e3e077fb14610e38578063ed8fc6b81461104e578063f399f1dd146110b357610114565b80639565389e1461097f578063affed0e0146109d0578063b4c27164146109fb578063bd1a84ab14610a6c578063cd11331e14610ae757610114565b80634c477daf116100e75780634c477daf146105d25780635175ca5e1461077b5780635b79818f146107e45780638129fc1c1461093d57806385e1f4d01461095457610114565b806313f8c5781461015a5780631704db30146101ab57806320c13b0b1461027057806340914b0614610421575b343373ffffffffffffffffffffffffffffffffffffffff167f8e47b87b0ef542cdfa1659c551d88bad38aa7f452d2bbb349ab7530dfec8be8f60405160405180910390a3005b34801561016657600080fd5b506101a96004803603602081101561017d57600080fd5b81019080803573ffffffffffffffffffffffffffffffffffffffff169060200190929190505050611178565b005b3480156101b757600080fd5b5061026e600480360360208110156101ce57600080fd5b81019080803590602001906401000000008111156101eb57600080fd5b8201836020820111156101fd57600080fd5b8035906020019184602083028401116401000000008311171561021f57600080fd5b919080806020026020016040519081016040528093929190818152602001838360200280828437600081840152601f19601f820116905080830192505050505050509192919290505050611391565b005b34801561027c57600080fd5b506103cd6004803603604081101561029357600080fd5b81019080803590602001906401000000008111156102b057600080fd5b8201836020820111156102c257600080fd5b803590602001918460018302840111640100000000831117156102e457600080fd5b91908080601f016020809104026020016040519081016040528093929190818152602001838380828437600081840152601f19601f8201169050808301925050505050505091929192908035906020019064010000000081111561034757600080fd5b82018360208201111561035957600080fd5b8035906020019184600183028401116401000000008311171561037b57600080fd5b91908080601f016020809104026020016040519081016040528093929190818152602001838380828437600081840152601f19601f8201169050808301925050505050505091929192905050506113d6565b60405180827bffffffffffffffffffffffffffffffffffffffffffffffffffffffff19167bffffffffffffffffffffffffffffffffffffffffffffffffffffffff1916815260200191505060405180910390f35b34801561042d57600080fd5b5061057e6004803603604081101561044457600080fd5b810190808035906020019064010000000081111561046157600080fd5b82018360208201111561047357600080fd5b8035906020019184600183028401116401000000008311171561049557600080fd5b91908080601f016020809104026020016040519081016040528093929190818152602001838380828437600081840152601f19601f820116905080830192505050505050509192919290803590602001906401000000008111156104f857600080fd5b82018360208201111561050a57600080fd5b8035906020019184600183028401116401000000008311171561052c57600080fd5b91908080601f016020809104026020016040519081016040528093929190818152602001838380828437600081840152601f19601f820116905080830192505050505050509192919290505050611482565b60405180827bffffffffffffffffffffffffffffffffffffffffffffffffffffffff19167bffffffffffffffffffffffffffffffffffffffffffffffffffffffff1916815260200191505060405180910390f35b3480156105de57600080fd5b50610739600480360360608110156105f557600080fd5b81019080803590602001909291908035906020019064010000000081111561061c57600080fd5b82018360208201111561062e57600080fd5b8035906020019184600183028401116401000000008311171561065057600080fd5b91908080601f016020809104026020016040519081016040528093929190818152602001838380828437600081840152601f19601f820116905080830192505050505050509192919290803590602001906401000000008111156106b357600080fd5b8201836020820111156106c557600080fd5b803590602001918460018302840111640100000000831117156106e757600080fd5b91908080601f016020809104026020016040519081016040528093929190818152602001838380828437600081840152601f19601f820116905080830192505050505050509192919290505050611516565b604051808273ffffffffffffffffffffffffffffffffffffffff1673ffffffffffffffffffffffffffffffffffffffff16815260200191505060405180910390f35b34801561078757600080fd5b506107ca6004803603602081101561079e57600080fd5b81019080803573ffffffffffffffffffffffffffffffffffffffff1690602001909291905050506115bd565b604051808215151515815260200191505060405180910390f35b3480156107f057600080fd5b5061093b6004803603604081101561080757600080fd5b810190808035906020019064010000000081111561082457600080fd5b82018360208201111561083657600080fd5b8035906020019184602083028401116401000000008311171561085857600080fd5b919080806020026020016040519081016040528093929190818152602001838360200280828437600081840152601f19601f820116905080830192505050505050509192919290803590602001906401000000008111156108b857600080fd5b8201836020820111156108ca57600080fd5b803590602001918460208302840111640100000000831117156108ec57600080fd5b919080806020026020016040519081016040528093929190818152602001838360200280828437600081840152601f19601f8201169050808301925050505050505091929192905050506115dd565b005b34801561094957600080fd5b506109526116ae565b005b34801561096057600080fd5b506109696117b5565b6040518082815260200191505060405180910390f35b34801561098b57600080fd5b506109ce600480360360208110156109a257600080fd5b81019080803573ffffffffffffffffffffffffffffffffffffffff1690602001909291905050506117bb565b005b3480156109dc57600080fd5b506109e56119ec565b6040518082815260200191505060405180910390f35b348015610a0757600080fd5b50610a6a60048036036040811015610a1e57600080fd5b81019080803573ffffffffffffffffffffffffffffffffffffffff169060200190929190803573ffffffffffffffffffffffffffffffffffffffff1690602001909291905050506119f2565b005b348015610a7857600080fd5b50610aa560048036036020811015610a8f57600080fd5b8101908080359060200190929190505050611be1565b604051808273ffffffffffffffffffffffffffffffffffffffff1673ffffffffffffffffffffffffffffffffffffffff16815260200191505060405180910390f35b348015610af357600080fd5b50610afc611c1d565b6040518082815260200191505060405180910390f35b348015610b1e57600080fd5b50610c6f60048036036040811015610b3557600080fd5b8101908080359060200190640100000000811115610b5257600080fd5b820183602082011115610b6457600080fd5b80359060200191846001830284011164010000000083111715610b8657600080fd5b91908080601f016020809104026020016040519081016040528093929190818152602001838380828437600081840152601f19601f82011690508083019250505050505050919291929080359060200190640100000000811115610be957600080fd5b820183602082011115610bfb57600080fd5b80359060200191846001830284011164010000000083111715610c1d57600080fd5b91908080601f016020809104026020016040519081016040528093929190818152602001838380828437600081840152601f19601f820116905080830192505050505050509192919290505050611c2a565b60405180827bffffffffffffffffffffffffffffffffffffffffffffffffffffffff19167bffffffffffffffffffffffffffffffffffffffffffffffffffffffff1916815260200191505060405180910390f35b348015610ccf57600080fd5b50610dbd60048036036080811015610ce657600080fd5b8101908080359060200190929190803573ffffffffffffffffffffffffffffffffffffffff1690602001909291908035906020019092919080359060200190640100000000811115610d3757600080fd5b820183602082011115610d4957600080fd5b80359060200191846001830284011164010000000083111715610d6b57600080fd5b91908080601f016020809104026020016040519081016040528093929190818152602001838380828437600081840152601f19601f820116905080830192505050505050509192919290505050611d75565b6040518080602001828103825283818151815260200191508051906020019080838360005b83811015610dfd578082015181840152602081019050610de2565b50505050905090810190601f168015610e2a5780820380516001836020036101000a031916815260200191505b509250505060405180910390f35b348015610e4457600080fd5b50610fd3600480360360c0811015610e5b57600080fd5b81019080803573ffffffffffffffffffffffffffffffffffffffff16906020019092919080359060200190640100000000811115610e9857600080fd5b820183602082011115610eaa57600080fd5b80359060200191846001830284011164010000000083111715610ecc57600080fd5b91908080601f016020809104026020016040519081016040528093929190818152602001838380828437600081840152601f19601f82011690508083019250505050505050919291929080359060200190929190803590602001909291908035906020019092919080359060200190640100000000811115610f4d57600080fd5b820183602082011115610f5f57600080fd5b80359060200191846001830284011164010000000083111715610f8157600080fd5b91908080601f016020809104026020016040519081016040528093929190818152602001838380828437600081840152601f19601f820116905080830192505050505050509192919290505050611d96565b6040518080602001828103825283818151815260200191508051906020019080838360005b83811015611013578082015181840152602081019050610ff8565b50505050905090810190601f1680156110405780820380516001836020036101000a031916815260200191505b509250505060405180910390f35b34801561105a57600080fd5b5061109d6004803603602081101561107157600080fd5b81019080803573ffffffffffffffffffffffffffffffffffffffff169060200190929190505050611f4f565b6040518082815260200191505060405180910390f35b3480156110bf57600080fd5b50611176600480360360208110156110d657600080fd5b81019080803590602001906401000000008111156110f357600080fd5b82018360208201111561110557600080fd5b8035906020019184602083028401116401000000008311171561112757600080fd5b919080806020026020016040519081016040528093929190818152602001838360200280828437600081840152601f19601f820116905080830192505050505050509192919290505050611f67565b005b61118133611fac565b603560008273ffffffffffffffffffffffffffffffffffffffff1673ffffffffffffffffffffffffffffffffffffffff16815260200190815260200160002060009054906101000a900460ff1615611241576040517f08c379a00000000000000000000000000000000000000000000000000000000081526004018080602001828103825260168152602001807f41757468206b657920616c72656164792061646465640000000000000000000081525060200191505060405180910390fd5b6001603560008373ffffffffffffffffffffffffffffffffffffffff1673ffffffffffffffffffffffffffffffffffffffff16815260200190815260200160002060006101000a81548160ff02191690831515021790555060338190806001815401808255809150509060018203906000526020600020016000909192909190916101000a81548173ffffffffffffffffffffffffffffffffffffffff021916908373ffffffffffffffffffffffffffffffffffffffff16021790555050600160338054905003603460008373ffffffffffffffffffffffffffffffffffffffff1673ffffffffffffffffffffffffffffffffffffffff168152602001908152602001600020819055508073ffffffffffffffffffffffffffffffffffffffff167f9e46251f3febb4bf40cf64591f0efc1d6ac8a9f0b8900b2adaeb83227757058860405160405180910390a250565b61139a33611fac565b60008090505b81518110156113d2576113c58282815181106113b857fe5b60200260200101516117bb565b80806001019150506113a0565b5050565b60006041825114156113f3576113ec8383611482565b905061147c565b60828251141561140e576114078383611c2a565b905061147c565b6040517f08c379a000000000000000000000000000000000000000000000000000000000815260040180806020018281038252601a8152602001807f496e76616c6964205f7369676e617475726573206c656e67746800000000000081525060200191505060405180910390fd5b92915050565b6000806114a083611492866120ab565b6121aa90919063ffffffff16565b9050603560008273ffffffffffffffffffffffffffffffffffffffff1673ffffffffffffffffffffffffffffffffffffffff16815260200190815260200160002060009054906101000a900460ff1615611504576320c13b0b60e01b915050611510565b63ffffffff60e01b9150505b92915050565b60008061152c84866121aa90919063ffffffff16565b9050600061158e82604051602001808273ffffffffffffffffffffffffffffffffffffffff1673ffffffffffffffffffffffffffffffffffffffff1660601b8152601401915050604051602081830303815290604052805190602001206122ae565b905060006115a585836121aa90919063ffffffff16565b90506115b081611fac565b8293505050509392505050565b60356020528060005260406000206000915054906101000a900460ff1681565b6115e633611fac565b805182511461165d576040517f08c379a000000000000000000000000000000000000000000000000000000000815260040180806020018281038252601d8152602001807f496e70757420617272617973206e6f7420657175616c206c656e67746800000081525060200191505060405180910390fd5b60008090505b82518110156116a95761169c83828151811061167b57fe5b602002602001015183838151811061168f57fe5b60200260200101516119f2565b8080600101915050611663565b505050565b600060019054906101000a900460ff16806116cd57506116cc612306565b5b806116e457506000809054906101000a900460ff16155b611739576040517f08c379a000000000000000000000000000000000000000000000000000000000815260040180806020018281038252602e815260200180612b55602e913960400191505060405180910390fd5b60008060019054906101000a900460ff161590508015611789576001600060016101000a81548160ff02191690831515021790555060016000806101000a81548160ff0219169083151502179055505b600160378190555080156117b25760008060016101000a81548160ff0219169083151502179055505b50565b60375481565b6117c433611fac565b603560008273ffffffffffffffffffffffffffffffffffffffff1673ffffffffffffffffffffffffffffffffffffffff16815260200190815260200160002060009054906101000a900460ff16611883576040517f08c379a00000000000000000000000000000000000000000000000000000000081526004018080602001828103825260168152602001807f41757468206b6579206e6f74207965742061646465640000000000000000000081525060200191505060405180910390fd5b600161188d611c1d565b11611900576040517f08c379a000000000000000000000000000000000000000000000000000000000815260040180806020018281038252601b8152602001807f43616e6e6f742072656d6f7665206c6173742061757468206b6579000000000081525060200191505060405180910390fd5b6000603560008373ffffffffffffffffffffffffffffffffffffffff1673ffffffffffffffffffffffffffffffffffffffff16815260200190815260200160002060006101000a81548160ff02191690831515021790555061196181612317565b6000603460008373ffffffffffffffffffffffffffffffffffffffff1673ffffffffffffffffffffffffffffffffffffffff168152602001908152602001600020819055508073ffffffffffffffffffffffffffffffffffffffff167f24a1d50afe4670e7a657fa10322b233e347dc26799afb2d72147a679e693f31f60405160405180910390a250565b60365481565b603560008373ffffffffffffffffffffffffffffffffffffffff1673ffffffffffffffffffffffffffffffffffffffff16815260200190815260200160002060009054906101000a900460ff16611ab1576040517f08c379a000000000000000000000000000000000000000000000000000000000815260040180806020018281038252601b8152602001807f4f6c642061757468206b657920646f6573206e6f74206578697374000000000081525060200191505060405180910390fd5b603560008273ffffffffffffffffffffffffffffffffffffffff1673ffffffffffffffffffffffffffffffffffffffff16815260200190815260200160002060009054906101000a900460ff1615611b71576040517f08c379a000000000000000000000000000000000000000000000000000000000815260040180806020018281038252601b8152602001807f4e65772061757468206b657920616c726561647920657869737473000000000081525060200191505060405180910390fd5b611b7a81611178565b611b83826117bb565b8073ffffffffffffffffffffffffffffffffffffffff168273ffffffffffffffffffffffffffffffffffffffff167f084d1bb6d163e102e9e0ca9dcb761e37f325346ac27c1d8bbfb23c105ffba70660405160405180910390a35050565b60338181548110611bee57fe5b906000526020600020016000915054906101000a900473ffffffffffffffffffffffffffffffffffffffff1681565b6000603380549050905090565b60006060611c45600060418561246b9092919063ffffffff16565b90506060611c5f6041808661246b9092919063ffffffff16565b90506000611c7e83611c70886120ab565b6121aa90919063ffffffff16565b90506000611ce082604051602001808273ffffffffffffffffffffffffffffffffffffffff1673ffffffffffffffffffffffffffffffffffffffff1660601b8152601401915050604051602081830303815290604052805190602001206122ae565b90506000611cf784836121aa90919063ffffffff16565b9050603560008273ffffffffffffffffffffffffffffffffffffffff1673ffffffffffffffffffffffffffffffffffffffff16815260200190815260200160002060009054906101000a900460ff1615611d5f576320c13b0b60e01b95505050505050611d6f565b63ffffffff60e01b955050505050505b92915050565b6060611d8033611fac565b611d8c858585856124f7565b9050949350505050565b606060005a90506000611f1b306000357fffffffff00000000000000000000000000000000000000000000000000000000166037548c8c8c8c3a8d604051602001808a73ffffffffffffffffffffffffffffffffffffffff1673ffffffffffffffffffffffffffffffffffffffff1660601b8152601401897bffffffffffffffffffffffffffffffffffffffffffffffffffffffff19167bffffffffffffffffffffffffffffffffffffffffffffffffffffffff191681526004018881526020018773ffffffffffffffffffffffffffffffffffffffff1673ffffffffffffffffffffffffffffffffffffffff1660601b815260140186805190602001908083835b60208310611ebb5780518252602082019150602081019050602083039250611e98565b6001836020036101000a0380198251168184511680821785525050505050509050018581526020018481526020018381526020018281526020019950505050505050505050604051602081830303815290604052805190602001206122ae565b90506000611f298286612699565b90506060611f3c888c8b8d3a8c8a6126c4565b9050809450505050509695505050505050565b60346020528060005260406000206000915090505481565b611f7033611fac565b60008090505b8151811015611fa857611f9b828281518110611f8e57fe5b6020026020010151611178565b8080600101915050611f76565b5050565b60011515603560008373ffffffffffffffffffffffffffffffffffffffff1673ffffffffffffffffffffffffffffffffffffffff16815260200190815260200160002060009054906101000a900460ff161515148061203657503073ffffffffffffffffffffffffffffffffffffffff163373ffffffffffffffffffffffffffffffffffffffff16145b6120a8576040517f08c379a00000000000000000000000000000000000000000000000000000000081526004018080602001828103825260138152602001807f41757468206b657920697320696e76616c69640000000000000000000000000081525060200191505060405180910390fd5b50565b60006120b78251612707565b8260405160200180807f19457468657265756d205369676e6564204d6573736167653a0a000000000000815250601a0183805190602001908083835b6020831061211657805182526020820191506020810190506020830392506120f3565b6001836020036101000a03801982511681845116808217855250505050505090500182805190602001908083835b602083106121675780518252602082019150602081019050602083039250612144565b6001836020036101000a03801982511681845116808217855250505050505090500192505050604051602081830303815290604052805190602001209050919050565b600060418251146121be57600090506122a8565b60008060006020850151925060408501519150606085015160001a90507f7fffffffffffffffffffffffffffffff5d576e7357a4501ddfe92f46681b20a08260001c111561221257600093505050506122a8565b601b8160ff161415801561222a5750601c8160ff1614155b1561223b57600093505050506122a8565b60018682858560405160008152602001604052604051808581526020018460ff1660ff1681526020018381526020018281526020019450505050506020604051602081039080840390855afa158015612298573d6000803e3d6000fd5b5050506020604051035193505050505b92915050565b60008160405160200180807f19457468657265756d205369676e6564204d6573736167653a0a333200000000815250601c01828152602001915050604051602081830303815290604052805190602001209050919050565b600080303b90506000811491505090565b6000603460008373ffffffffffffffffffffffffffffffffffffffff1673ffffffffffffffffffffffffffffffffffffffff16815260200190815260200160002054905060008190505b60016033805490500381101561240e576033600182018154811061238157fe5b9060005260206000200160009054906101000a900473ffffffffffffffffffffffffffffffffffffffff16603382815481106123b957fe5b9060005260206000200160006101000a81548173ffffffffffffffffffffffffffffffffffffffff021916908373ffffffffffffffffffffffffffffffffffffffff1602179055508080600101915050612361565b5060336001603380549050038154811061242457fe5b9060005260206000200160006101000a81549073ffffffffffffffffffffffffffffffffffffffff021916905560338054809190600190036124669190612ae2565b505050565b60608183018451101561247d57600080fd5b606082156000811461249a576040519150602082016040526124eb565b6040519150601f8416801560200281840101858101878315602002848b0101015b818310156124d857805183526020830192506020810190506124bb565b50868552601f19601f8301166040525050505b50809150509392505050565b60606036548514612570576040517f08c379a000000000000000000000000000000000000000000000000000000000815260040180806020018281038252600f8152602001807f496e636f7272656374206e6f6e6365000000000000000000000000000000000081525060200191505060405180910390fd5b603660008154809291906001019190505550600060608573ffffffffffffffffffffffffffffffffffffffff1685856040518082805190602001908083835b602083106125d257805182526020820191506020810190506020830392506125af565b6001836020036101000a03801982511681845116808217855250505050505090500191505060006040518083038185875af1925050503d8060008114612634576040519150601f19603f3d011682016040523d82523d6000602084013e612639565b606091505b50915091508161268c5760006126518888888861283a565b90507fe22e3683fe845a34c5adea424d0beb84895f513ea06745002d9d65f90100591a816040518082815260200191505060405180910390a1505b8092505050949350505050565b6000806126af83856121aa90919063ffffffff16565b90506126ba81611fac565b8091505092915050565b6060806126d3898989896124f7565b905060006126ea5a856128ff90919063ffffffff16565b90506126f7818787612988565b8192505050979650505050505050565b6060600082141561274f576040518060400160405280600181526020017f30000000000000000000000000000000000000000000000000000000000000008152509050612835565b6000829050600083905060005b6000821461277e578080600101915050600a828161277657fe5b04915061275c565b6060816040519080825280601f01601f1916602001820160405280156127b35781602001600182028038833980820191505090505b50905060006001830390505b6000851461282c57600a85816127d157fe5b0660300160f81b828280600190039350815181106127eb57fe5b60200101907effffffffffffffffffffffffffffffffffffffffffffffffffffffffffffff1916908160001a905350600a858161282457fe5b0494506127bf565b81955050505050505b919050565b600084848484604051602001808581526020018473ffffffffffffffffffffffffffffffffffffffff1673ffffffffffffffffffffffffffffffffffffffff1660601b815260140183815260200182805190602001908083835b602083106128b75780518252602082019150602081019050602083039250612894565b6001836020036101000a038019825116818451168082178552505050505050905001945050505050604051602081830303815290604052805190602001209050949350505050565b600082821115612977576040517f08c379a000000000000000000000000000000000000000000000000000000000815260040180806020018281038252601e8152602001807f536166654d6174683a207375627472616374696f6e206f766572666c6f77000081525060200191505060405180910390fd5b600082840390508091505092915050565b808311156129fe576040517f08c379a000000000000000000000000000000000000000000000000000000000815260040180806020018281038252601b8152602001807f496e73756666696369656e742067617320666f7220726566756e64000000000081525060200191505060405180910390fd5b3373ffffffffffffffffffffffffffffffffffffffff166108fc612a2b8486612a5c90919063ffffffff16565b9081150290604051600060405180830381858888f19350505050158015612a56573d6000803e3d6000fd5b50505050565b600080831415612a6f5760009050612adc565b6000828402905082848281612a8057fe5b0414612ad7576040517f08c379a0000000000000000000000000000000000000000000000000000000008152600401808060200182810382526021815260200180612b346021913960400191505060405180910390fd5b809150505b92915050565b815481835581811115612b0957818360005260206000209182019101612b089190612b0e565b5b505050565b612b3091905b80821115612b2c576000816000905550600101612b14565b5090565b9056fe536166654d6174683a206d756c7469706c69636174696f6e206f766572666c6f77436f6e747261637420696e7374616e63652068617320616c7265616479206265656e20696e697469616c697a6564a165627a7a72305820f6ea36f7b492a5a3e6ed4215a5e03baeaabb573eb5b1d2ad28fba418d03df62a0029",
  "source": "pragma solidity ^0.5.8;\n\nimport \"./Account.sol\";\n\ncontract AuthKeyMetaTxAccount is Account {\n\n    /// @dev Execute an authKey meta transaction\n    /// @param _destination Destination of the transaction\n    /// @param _data Data of the transaction\n    /// @param _value Value of the transaction\n    /// @param _nonce Nonce of the transaction\n    /// @param _gasLimit Gas limit of the transaction\n    /// @param _transactionDataSignature Signed tx data\n    function executeAuthKeyMetaTx(\n        address _destination,\n        bytes memory _data,\n        uint256 _value,\n        uint256 _nonce,\n        uint256 _gasLimit,\n        bytes memory _transactionDataSignature\n    )\n        public\n        returns (bytes memory)\n    {\n        uint256 startGas = gasleft();\n\n        bytes32 _txDataMessageHash = keccak256(abi.encodePacked(\n            address(this),\n            msg.sig,\n            CHAIN_ID,\n            _destination,\n            _data,\n            _value,\n            _nonce,\n            tx.gasprice,\n            _gasLimit\n        )).toEthSignedMessageHash();\n\n        address transactionDataSigner = _validateAuthKeyMetaTxSigs(\n            _txDataMessageHash, _transactionDataSignature\n        );\n\n        bytes memory response = _executeTransactionWithRefund(\n            _nonce, _destination, _value, _data, tx.gasprice, _gasLimit, startGas\n        );\n\n        return response;\n    }\n}",
  "sourcePath": "/Users/sh/Dev/authereumorg/authereum/monorepo/packages/contracts/contracts/account/AuthKeyMetaTxAccount.sol",
  "compiler": {
    "name": "solc",
    "version": "0.5.8+commit.23d335f2.Emscripten.clang"
  },
  "schemaVersion": "3.0.11",
  "updatedAt": "2019-08-03T02:41:48.264Z",
  "devdoc": {
    "methods": {
      "addAuthKey(address)": {
        "details": "Add an auth key to the list of auth keys",
        "params": {
          "_authKey": "Address of the auth key to add"
        }
      },
      "addMultipleAuthKeys(address[])": {
        "details": "Add multiple auth keys to the list of auth keys",
        "params": {
          "_authKeys": "Array of addresses to add to the auth keys list"
        }
      },
      "executeAuthKeyMetaTx(address,bytes,uint256,uint256,uint256,bytes)": {
        "details": "Execute an authKey meta transaction",
        "params": {
          "_data": "Data of the transaction",
          "_destination": "Destination of the transaction",
          "_gasLimit": "Gas limit of the transaction",
          "_nonce": "Nonce of the transaction",
          "_transactionDataSignature": "Signed tx data",
          "_value": "Value of the transaction"
        }
      },
      "executeTransaction(uint256,address,uint256,bytes)": {
        "details": "Execute a transaction",
        "params": {
          "_data": "Data of the transaction",
          "_destination": "Destination of the transaction",
          "_nonce": "Nonce of the transaction",
          "_value": "Value of the transaction"
        }
      },
      "getAuthKeysArrayLength()": {
        "details": "Return the length of the authKeysArray"
      },
      "removeAuthKey(address)": {
        "details": "Remove an auth key from the list of auth keys",
        "params": {
          "_authKey": "Address of the auth key to remove"
        }
      },
      "removeMultipleAuthKeys(address[])": {
        "details": "Remove multiple auth keys to the list of auth keys",
        "params": {
          "_authKeys": "Array of addresses to remove to the auth keys list"
        }
      },
      "swapAuthKeys(address,address)": {
        "details": "Swap one authKey for a non-authKey",
        "params": {
          "_newAuthKey": "A non-existing authKey",
          "_oldAuthKey": "An existing authKey"
        }
      },
      "swapMultipleAuthKeys(address[],address[])": {
        "details": "Swap multiple auth keys to the list of auth keys",
        "params": {
          "_newAuthKeys": "Array of addresses to add to the auth keys list",
          "_oldAuthKeys": "Array of addresses to remove to the auth keys list"
        }
      },
      "validateLoginKeyMetaTxSigs(bytes32,bytes,bytes)": {
        "details": "Validate signatures from an AuthKeyMetaTx",
        "params": {
          "_loginKeyAuthorizationSignature": "Signed loginKey",
          "_transactionDataSignature": "Signed tx data",
          "_txDataMessageHash": "Ethereum signed message of the transaction"
        }
      }
    }
  },
  "userdoc": {
    "methods": {
      "executeTransaction(uint256,address,uint256,bytes)": {
        "notice": "This is to be called directly by an AuthKey"
      }
    }
  }
}