{
  "contractName": "AuthereumEnsManager",
  "abi": [
    {
      "constant": true,
      "inputs": [],
      "name": "ADDR_REVERSE_NODE",
      "outputs": [
        {
          "name": "",
          "type": "bytes32"
        }
      ],
      "payable": false,
      "stateMutability": "view",
      "type": "function"
    },
    {
      "constant": true,
      "inputs": [],
      "name": "authereumEnsResolver",
      "outputs": [
        {
          "name": "",
          "type": "address"
        }
      ],
      "payable": false,
      "stateMutability": "view",
      "type": "function"
    },
    {
      "constant": true,
      "inputs": [],
      "name": "rootName",
      "outputs": [
        {
          "name": "",
          "type": "string"
        }
      ],
      "payable": false,
      "stateMutability": "view",
      "type": "function"
    },
    {
      "constant": true,
      "inputs": [],
      "name": "rootNode",
      "outputs": [
        {
          "name": "",
          "type": "bytes32"
        }
      ],
      "payable": false,
      "stateMutability": "view",
      "type": "function"
    },
    {
      "inputs": [
        {
          "name": "_rootName",
          "type": "string"
        },
        {
          "name": "_rootNode",
          "type": "bytes32"
        },
        {
          "name": "_ensRegistry",
          "type": "address"
        },
        {
          "name": "_authereumEnsResolver",
          "type": "address"
        }
      ],
      "payable": false,
      "stateMutability": "nonpayable",
      "type": "constructor"
    },
    {
      "anonymous": false,
      "inputs": [
        {
          "indexed": true,
          "name": "rootnode",
          "type": "bytes32"
        },
        {
          "indexed": true,
          "name": "newOwner",
          "type": "address"
        }
      ],
      "name": "RootnodeOwnerChanged",
      "type": "event"
    },
    {
      "anonymous": false,
      "inputs": [
        {
          "indexed": true,
          "name": "rootnode",
          "type": "bytes32"
        },
        {
          "indexed": true,
          "name": "newResolver",
          "type": "address"
        }
      ],
      "name": "RootnodeResolverChanged",
      "type": "event"
    },
    {
      "anonymous": false,
      "inputs": [
        {
          "indexed": true,
          "name": "rootnode",
          "type": "bytes32"
        },
        {
          "indexed": true,
          "name": "newTtl",
          "type": "uint64"
        }
      ],
      "name": "RootnodeTTLChanged",
      "type": "event"
    },
    {
      "anonymous": false,
      "inputs": [
        {
          "indexed": true,
          "name": "addr",
          "type": "address"
        }
      ],
      "name": "AuthereumEnsResolverChanged",
      "type": "event"
    },
    {
      "anonymous": false,
      "inputs": [
        {
          "indexed": true,
          "name": "owner",
          "type": "address"
        },
        {
          "indexed": false,
          "name": "ens",
          "type": "string"
        }
      ],
      "name": "Registered",
      "type": "event"
    },
    {
      "constant": false,
      "inputs": [
        {
          "name": "_node",
          "type": "bytes32"
        }
      ],
      "name": "resolveEns",
      "outputs": [
        {
          "name": "",
          "type": "address"
        }
      ],
      "payable": false,
      "stateMutability": "nonpayable",
      "type": "function"
    },
    {
      "constant": true,
      "inputs": [],
      "name": "getEnsRegistry",
      "outputs": [
        {
          "name": "",
          "type": "address"
        }
      ],
      "payable": false,
      "stateMutability": "view",
      "type": "function"
    },
    {
      "constant": true,
      "inputs": [],
      "name": "getEnsReverseRegistrar",
      "outputs": [
        {
          "name": "",
          "type": "address"
        }
      ],
      "payable": false,
      "stateMutability": "view",
      "type": "function"
    },
    {
      "constant": false,
      "inputs": [
        {
          "name": "_newOwner",
          "type": "address"
        }
      ],
      "name": "changeRootnodeOwner",
      "outputs": [],
      "payable": false,
      "stateMutability": "nonpayable",
      "type": "function"
    },
    {
      "constant": false,
      "inputs": [
        {
          "name": "_newResolver",
          "type": "address"
        }
      ],
      "name": "changeRootnodeResolver",
      "outputs": [],
      "payable": false,
      "stateMutability": "nonpayable",
      "type": "function"
    },
    {
      "constant": false,
      "inputs": [
        {
          "name": "_newTtl",
          "type": "uint64"
        }
      ],
      "name": "changeRootnodeTTL",
      "outputs": [],
      "payable": false,
      "stateMutability": "nonpayable",
      "type": "function"
    },
    {
      "constant": false,
      "inputs": [
        {
          "name": "_authereumEnsResolver",
          "type": "address"
        }
      ],
      "name": "changeEnsResolver",
      "outputs": [],
      "payable": false,
      "stateMutability": "nonpayable",
      "type": "function"
    },
    {
      "constant": false,
      "inputs": [
        {
          "name": "_label",
          "type": "string"
        },
        {
          "name": "_owner",
          "type": "address"
        }
      ],
      "name": "register",
      "outputs": [],
      "payable": false,
      "stateMutability": "nonpayable",
      "type": "function"
    },
    {
      "constant": true,
      "inputs": [
        {
          "name": "_subnode",
          "type": "bytes32"
        }
      ],
      "name": "isAvailable",
      "outputs": [
        {
          "name": "",
          "type": "bool"
        }
      ],
      "payable": false,
      "stateMutability": "view",
      "type": "function"
    }
  ],
  "bytecode": "0x60806040523480156200001157600080fd5b506040516200202338038062002023833981018060405260808110156200003757600080fd5b8101908080516401000000008111156200005057600080fd5b828101905060208101848111156200006757600080fd5b81518560018202830111640100000000821117156200008557600080fd5b50509291906020018051906020019092919080519060200190929190805190602001909291905050508360019080519060200190620000c692919062000159565b5082600281905550816000806101000a81548173ffffffffffffffffffffffffffffffffffffffff021916908373ffffffffffffffffffffffffffffffffffffffff16021790555080600360006101000a81548173ffffffffffffffffffffffffffffffffffffffff021916908373ffffffffffffffffffffffffffffffffffffffff1602179055505050505062000208565b828054600181600116156101000203166002900490600052602060002090601f016020900481019282601f106200019c57805160ff1916838001178555620001cd565b82800160010185558215620001cd579182015b82811115620001cc578251825591602001919060010190620001af565b5b509050620001dc9190620001e0565b5090565b6200020591905b8082111562000201576000816000905550600101620001e7565b5090565b90565b611e0b80620002186000396000f3fe608060405234801561001057600080fd5b50600436106100cf5760003560e01c806386605d961161008c5780639eb869c7116100665780639eb869c714610369578063b179fe6d146103d7578063f20387df14610421578063faff50a8146104a4576100cf565b806386605d961461029b57806389b6f027146102df5780638be9b4f114610325576100cf565b8063025485b3146100d45780631e59c5291461010c57806379b64713146101a55780637c6f945d146101ef5780637cf8a2eb1461023957806384fc3fa014610257575b600080fd5b61010a600480360360208110156100ea57600080fd5b81019080803567ffffffffffffffff1690602001909291905050506104c2565b005b6101a36004803603604081101561012257600080fd5b810190808035906020019064010000000081111561013f57600080fd5b82018360208201111561015157600080fd5b8035906020019184600183028401116401000000008311171561017357600080fd5b9091929391929390803573ffffffffffffffffffffffffffffffffffffffff1690602001909291905050506106db565b005b6101ad610f8d565b604051808273ffffffffffffffffffffffffffffffffffffffff1673ffffffffffffffffffffffffffffffffffffffff16815260200191505060405180910390f35b6101f761104a565b604051808273ffffffffffffffffffffffffffffffffffffffff1673ffffffffffffffffffffffffffffffffffffffff16815260200191505060405180910390f35b610241611073565b6040518082815260200191505060405180910390f35b6102996004803603602081101561026d57600080fd5b81019080803573ffffffffffffffffffffffffffffffffffffffff16906020019092919050505061109a565b005b6102dd600480360360208110156102b157600080fd5b81019080803573ffffffffffffffffffffffffffffffffffffffff16906020019092919050505061137a565b005b61030b600480360360208110156102f557600080fd5b810190808035906020019092919050505061165a565b604051808215151515815260200191505060405180910390f35b6103676004803603602081101561033b57600080fd5b81019080803573ffffffffffffffffffffffffffffffffffffffff169060200190929190505050611773565b005b6103956004803603602081101561037f57600080fd5b81019080803590602001909291905050506119e9565b604051808273ffffffffffffffffffffffffffffffffffffffff1673ffffffffffffffffffffffffffffffffffffffff16815260200191505060405180910390f35b6103df611b17565b604051808273ffffffffffffffffffffffffffffffffffffffff1673ffffffffffffffffffffffffffffffffffffffff16815260200191505060405180910390f35b610429611b3d565b6040518080602001828103825283818151815260200191508051906020019080838360005b8381101561046957808201518184015260208101905061044e565b50505050905090810190601f1680156104965780820380516001836020036101000a031916815260200191505b509250505060405180910390f35b6104ac611bdb565b6040518082815260200191505060405180910390f35b600360009054906101000a900473ffffffffffffffffffffffffffffffffffffffff1673ffffffffffffffffffffffffffffffffffffffff16632f54bf6e336040518263ffffffff1660e01b8152600401808273ffffffffffffffffffffffffffffffffffffffff1673ffffffffffffffffffffffffffffffffffffffff16815260200191505060206040518083038186803b15801561056157600080fd5b505afa158015610575573d6000803e3d6000fd5b505050506040513d602081101561058b57600080fd5b810190808051906020019092919050505061060e576040517f08c379a000000000000000000000000000000000000000000000000000000000815260040180806020018281038252600d8152602001807f4d757374206265206f776e65720000000000000000000000000000000000000081525060200191505060405180910390fd5b61061661104a565b73ffffffffffffffffffffffffffffffffffffffff166314ab9038600254836040518363ffffffff1660e01b8152600401808381526020018267ffffffffffffffff1667ffffffffffffffff16815260200192505050600060405180830381600087803b15801561068657600080fd5b505af115801561069a573d6000803e3d6000fd5b505050508067ffffffffffffffff166002547f847699899f587963de290fda4ce7e3898e4993a7026f0ddb9aab12d483f6b82a60405160405180910390a350565b600083836040516020018083838082843780830192505050925050506040516020818303038152906040528051906020012090506000600254826040516020018083815260200182815260200192505050604051602081830303815290604052805190602001209050600061074e61104a565b73ffffffffffffffffffffffffffffffffffffffff166302571be3836040518263ffffffff1660e01b81526004018082815260200191505060206040518083038186803b15801561079e57600080fd5b505afa1580156107b2573d6000803e3d6000fd5b505050506040513d60208110156107c857600080fd5b81019080805190602001909291905050509050600073ffffffffffffffffffffffffffffffffffffffff168173ffffffffffffffffffffffffffffffffffffffff161461087d576040517f08c379a00000000000000000000000000000000000000000000000000000000081526004018080602001828103825260168152602001807f4c6162656c20697320616c7265616479206f776e65640000000000000000000081525060200191505060405180910390fd5b61088561104a565b73ffffffffffffffffffffffffffffffffffffffff166306ab592360025485306040518463ffffffff1660e01b8152600401808481526020018381526020018273ffffffffffffffffffffffffffffffffffffffff1673ffffffffffffffffffffffffffffffffffffffff1681526020019350505050600060405180830381600087803b15801561091557600080fd5b505af1158015610929573d6000803e3d6000fd5b5050505061093561104a565b73ffffffffffffffffffffffffffffffffffffffff16631896f70a83600360009054906101000a900473ffffffffffffffffffffffffffffffffffffffff166040518363ffffffff1660e01b8152600401808381526020018273ffffffffffffffffffffffffffffffffffffffff1673ffffffffffffffffffffffffffffffffffffffff16815260200192505050600060405180830381600087803b1580156109dd57600080fd5b505af11580156109f1573d6000803e3d6000fd5b505050506109fd61104a565b73ffffffffffffffffffffffffffffffffffffffff16635b0fc9c383866040518363ffffffff1660e01b8152600401808381526020018273ffffffffffffffffffffffffffffffffffffffff1673ffffffffffffffffffffffffffffffffffffffff16815260200192505050600060405180830381600087803b158015610a8357600080fd5b505af1158015610a97573d6000803e3d6000fd5b50505050600360009054906101000a900473ffffffffffffffffffffffffffffffffffffffff1673ffffffffffffffffffffffffffffffffffffffff1663d5fa2b0083866040518363ffffffff1660e01b8152600401808381526020018273ffffffffffffffffffffffffffffffffffffffff1673ffffffffffffffffffffffffffffffffffffffff16815260200192505050600060405180830381600087803b158015610b4457600080fd5b505af1158015610b58573d6000803e3d6000fd5b5050505060606002604051908082528060200260200182016040528015610b9957816020015b610b86611dab565b815260200190600190039081610b7e5790505b509050610be987878080601f016020809104026020016040519081016040528093929190818152602001838380828437600081840152601f19601f82011690508083019250505050505050611be1565b81600081518110610bf657fe5b6020026020010181905250610ca460018054600181600116156101000203166002900480601f016020809104026020016040519081016040528092919081815260200182805460018160011615610100020316600290048015610c9a5780601f10610c6f57610100808354040283529160200191610c9a565b820191906000526020600020905b815481529060010190602001808311610c7d57829003601f168201915b5050505050611be1565b81600181518110610cb157fe5b60200260200101819052506060610d0e82610d006040518060400160405280600181526020017f2e00000000000000000000000000000000000000000000000000000000000000815250611be1565b611c0f90919063ffffffff16565b90506000610d1a610f8d565b73ffffffffffffffffffffffffffffffffffffffff1663bffbe61c886040518263ffffffff1660e01b8152600401808273ffffffffffffffffffffffffffffffffffffffff1673ffffffffffffffffffffffffffffffffffffffff168152602001915050602060405180830381600087803b158015610d9857600080fd5b505af1158015610dac573d6000803e3d6000fd5b505050506040513d6020811015610dc257600080fd5b81019080805190602001909291905050509050600360009054906101000a900473ffffffffffffffffffffffffffffffffffffffff1673ffffffffffffffffffffffffffffffffffffffff16637737221382846040518363ffffffff1660e01b81526004018083815260200180602001828103825283818151815260200191508051906020019080838360005b83811015610e6a578082015181840152602081019050610e4f565b50505050905090810190601f168015610e975780820380516001836020036101000a031916815260200191505b509350505050600060405180830381600087803b158015610eb757600080fd5b505af1158015610ecb573d6000803e3d6000fd5b505050508673ffffffffffffffffffffffffffffffffffffffff167fb3eccf73f39b1c07947c780b2b39df2a1bb058b4037b0a42d0881ca1a028a132836040518080602001828103825283818151815260200191508051906020019080838360005b83811015610f48578082015181840152602081019050610f2d565b50505050905090810190601f168015610f755780820380516001836020036101000a031916815260200191505b509250505060405180910390a2505050505050505050565b6000610f9761104a565b73ffffffffffffffffffffffffffffffffffffffff166302571be37f91d1777781884d03a6757a803996e38de2a42967fb37eeaca72729271025a9e260001b6040518263ffffffff1660e01b81526004018082815260200191505060206040518083038186803b15801561100a57600080fd5b505afa15801561101e573d6000803e3d6000fd5b505050506040513d602081101561103457600080fd5b8101908080519060200190929190505050905090565b60008060009054906101000a900473ffffffffffffffffffffffffffffffffffffffff16905090565b7f91d1777781884d03a6757a803996e38de2a42967fb37eeaca72729271025a9e260001b81565b600360009054906101000a900473ffffffffffffffffffffffffffffffffffffffff1673ffffffffffffffffffffffffffffffffffffffff16632f54bf6e336040518263ffffffff1660e01b8152600401808273ffffffffffffffffffffffffffffffffffffffff1673ffffffffffffffffffffffffffffffffffffffff16815260200191505060206040518083038186803b15801561113957600080fd5b505afa15801561114d573d6000803e3d6000fd5b505050506040513d602081101561116357600080fd5b81019080805190602001909291905050506111e6576040517f08c379a000000000000000000000000000000000000000000000000000000000815260040180806020018281038252600d8152602001807f4d757374206265206f776e65720000000000000000000000000000000000000081525060200191505060405180910390fd5b600073ffffffffffffffffffffffffffffffffffffffff168173ffffffffffffffffffffffffffffffffffffffff161415611289576040517f08c379a00000000000000000000000000000000000000000000000000000000081526004018080602001828103825260168152602001807f416464726573732063616e6e6f74206265206e756c6c0000000000000000000081525060200191505060405180910390fd5b61129161104a565b73ffffffffffffffffffffffffffffffffffffffff16631896f70a600254836040518363ffffffff1660e01b8152600401808381526020018273ffffffffffffffffffffffffffffffffffffffff1673ffffffffffffffffffffffffffffffffffffffff16815260200192505050600060405180830381600087803b15801561131957600080fd5b505af115801561132d573d6000803e3d6000fd5b505050508073ffffffffffffffffffffffffffffffffffffffff166002547ff42bfe600d256550349c92e1fd55144c4027bef017f0eb184303a777eb3a7ae660405160405180910390a350565b600360009054906101000a900473ffffffffffffffffffffffffffffffffffffffff1673ffffffffffffffffffffffffffffffffffffffff16632f54bf6e336040518263ffffffff1660e01b8152600401808273ffffffffffffffffffffffffffffffffffffffff1673ffffffffffffffffffffffffffffffffffffffff16815260200191505060206040518083038186803b15801561141957600080fd5b505afa15801561142d573d6000803e3d6000fd5b505050506040513d602081101561144357600080fd5b81019080805190602001909291905050506114c6576040517f08c379a000000000000000000000000000000000000000000000000000000000815260040180806020018281038252600d8152602001807f4d757374206265206f776e65720000000000000000000000000000000000000081525060200191505060405180910390fd5b600073ffffffffffffffffffffffffffffffffffffffff168173ffffffffffffffffffffffffffffffffffffffff161415611569576040517f08c379a00000000000000000000000000000000000000000000000000000000081526004018080602001828103825260168152602001807f416464726573732063616e6e6f74206265206e756c6c0000000000000000000081525060200191505060405180910390fd5b61157161104a565b73ffffffffffffffffffffffffffffffffffffffff16635b0fc9c3600254836040518363ffffffff1660e01b8152600401808381526020018273ffffffffffffffffffffffffffffffffffffffff1673ffffffffffffffffffffffffffffffffffffffff16815260200192505050600060405180830381600087803b1580156115f957600080fd5b505af115801561160d573d6000803e3d6000fd5b505050508073ffffffffffffffffffffffffffffffffffffffff166002547f516d0db138244386233318abd545c7f39d1be56e4da256f941042d7e7114a97560405160405180910390a350565b600080600254836040516020018083815260200182815260200192505050604051602081830303815290604052805190602001209050600061169a61104a565b73ffffffffffffffffffffffffffffffffffffffff166302571be3836040518263ffffffff1660e01b81526004018082815260200191505060206040518083038186803b1580156116ea57600080fd5b505afa1580156116fe573d6000803e3d6000fd5b505050506040513d602081101561171457600080fd5b81019080805190602001909291905050509050600073ffffffffffffffffffffffffffffffffffffffff168173ffffffffffffffffffffffffffffffffffffffff1614156117675760019250505061176e565b6000925050505b919050565b600360009054906101000a900473ffffffffffffffffffffffffffffffffffffffff1673ffffffffffffffffffffffffffffffffffffffff16632f54bf6e336040518263ffffffff1660e01b8152600401808273ffffffffffffffffffffffffffffffffffffffff1673ffffffffffffffffffffffffffffffffffffffff16815260200191505060206040518083038186803b15801561181257600080fd5b505afa158015611826573d6000803e3d6000fd5b505050506040513d602081101561183c57600080fd5b81019080805190602001909291905050506118bf576040517f08c379a000000000000000000000000000000000000000000000000000000000815260040180806020018281038252600d8152602001807f4d757374206265206f776e65720000000000000000000000000000000000000081525060200191505060405180910390fd5b600073ffffffffffffffffffffffffffffffffffffffff168173ffffffffffffffffffffffffffffffffffffffff161415611962576040517f08c379a00000000000000000000000000000000000000000000000000000000081526004018080602001828103825260168152602001807f416464726573732063616e6e6f74206265206e756c6c0000000000000000000081525060200191505060405180910390fd5b80600360006101000a81548173ffffffffffffffffffffffffffffffffffffffff021916908373ffffffffffffffffffffffffffffffffffffffff1602179055508073ffffffffffffffffffffffffffffffffffffffff167fd88c10387565baf6122146fe04aea5611f4e9598ec7f4fc2c0ae7f09b18823b860405160405180910390a250565b6000806119f461104a565b73ffffffffffffffffffffffffffffffffffffffff16630178b8bf846040518263ffffffff1660e01b81526004018082815260200191505060206040518083038186803b158015611a4457600080fd5b505afa158015611a58573d6000803e3d6000fd5b505050506040513d6020811015611a6e57600080fd5b810190808051906020019092919050505090508073ffffffffffffffffffffffffffffffffffffffff16633b3b57de846040518263ffffffff1660e01b815260040180828152602001915050602060405180830381600087803b158015611ad457600080fd5b505af1158015611ae8573d6000803e3d6000fd5b505050506040513d6020811015611afe57600080fd5b8101908080519060200190929190505050915050919050565b600360009054906101000a900473ffffffffffffffffffffffffffffffffffffffff1681565b60018054600181600116156101000203166002900480601f016020809104026020016040519081016040528092919081815260200182805460018160011615610100020316600290048015611bd35780601f10611ba857610100808354040283529160200191611bd3565b820191906000526020600020905b815481529060010190602001808311611bb657829003601f168201915b505050505081565b60025481565b611be9611dc5565b600060208301905060405180604001604052808451815260200182815250915050919050565b6060600082511415611c3257604051806020016040528060008152509050611d5c565b60006001835103846000015102905060008090505b8351811015611c7957838181518110611c5c57fe5b602002602001015160000151820191508080600101915050611c47565b506060816040519080825280601f01601f191660200182016040528015611caf5781602001600182028038833980820191505090505b509050600060208201905060008090505b8551811015611d5457611d0282878381518110611cd957fe5b602002602001015160200151888481518110611cf157fe5b602002602001015160000151611d62565b858181518110611d0e57fe5b602002602001015160000151820191506001865103811015611d4757611d3d8288602001518960000151611d62565b8660000151820191505b8080600101915050611cc0565b508193505050505b92915050565b5b60208110611d865781518352602083019250602082019150602081039050611d63565b60006001826020036101000a0390508019835116818551168181178652505050505050565b604051806040016040528060008152602001600081525090565b60405180604001604052806000815260200160008152509056fea165627a7a7230582092e588c5a490592e474058dd63e3cbfccf35bd2b9e24cad00d230bb777666e3d0029",
  "source": "pragma solidity ^0.5.8;\n\nimport \"./ENS.sol\";\nimport \"../utils/strings.sol\";\nimport \"../base/Managed.sol\";\n\ncontract AuthereumEnsResolver{\n    function addManager(address _manager) external {}\n    function setAddr(bytes32 node, address addr) external {}\n    function setName(bytes32 node, string calldata name) external {}\n    function addr(bytes32 node) external returns (address) {}\n}\n\n/**\n * @title AuthereumEnsManager\n * @dev Used to manage all subdomains.\n * @dev This is also known as the Authereum registrar.\n * @dev The public ENS registry is used. The resolver is custom.\n */\n\ncontract AuthereumEnsManager {\n    using strings for *;\n    // namehash('addr.reverse')\n    bytes32 constant public ADDR_REVERSE_NODE = 0x91d1777781884d03a6757a803996e38de2a42967fb37eeaca72729271025a9e2;\n    address ensRegistry;\n\n    // The managed root name\n    string public rootName;\n    // The managed root node\n    bytes32 public rootNode;\n    // The address of the authereumEnsResolver\n    address public authereumEnsResolver;\n\n    event RootnodeOwnerChanged(bytes32 indexed rootnode, address indexed newOwner);\n    event RootnodeResolverChanged(bytes32 indexed rootnode, address indexed newResolver);\n    event RootnodeTTLChanged(bytes32 indexed rootnode, uint64 indexed newTtl);\n    event AuthereumEnsResolverChanged(address indexed addr);\n    event Registered(address indexed owner, string ens);\n\n    /// @dev Throws if the sender is not the owner.\n    modifier onlyOwner {\n        require(Owned(authereumEnsResolver).isOwner(msg.sender), \"Must be owner\");\n        _;\n    }\n\n    /// @dev Constructor that sets the ENS root name and root node to manage\n    /// @param _rootName The root name (e.g. authereum.eth)\n    /// @param _rootNode The node of the root name (e.g. namehash(authereum.eth))\n    /// @param _ensRegistry Custom ENS Registry address\n    /// @param _authereumEnsResolver Custom Autheruem ENS Resolver address\n    constructor(\n        string memory _rootName,\n        bytes32 _rootNode,\n        address _ensRegistry,\n        address _authereumEnsResolver\n    )\n        public\n    {\n        rootName = _rootName;\n        rootNode = _rootNode;\n        ensRegistry = _ensRegistry;\n        authereumEnsResolver = _authereumEnsResolver;\n    }\n\n    /// @dev Resolves an ENS name to an address.\n    /// @param _node The namehash of the ENS name.\n    function resolveEns(bytes32 _node) public returns (address) {\n        address resolver = getEnsRegistry().resolver(_node);\n        return AuthereumEnsResolver(resolver).addr(_node);\n    }\n\n    /// @dev Gets the official ENS registry.\n    function getEnsRegistry() public view returns (EnsRegistry) {\n        return EnsRegistry(ensRegistry);\n    }\n\n    /// @dev Gets the official ENS reverse registrar.\n    function getEnsReverseRegistrar() public view returns (EnsReverseRegistrar) {\n        return EnsReverseRegistrar(getEnsRegistry().owner(ADDR_REVERSE_NODE));\n    }\n\n    /**\n     *  External functions\n     */\n\n    /// @dev This function is used when the rootnode owner is updated\n    /// @param _newOwner The address of the new ENS manager that will manage the root node.\n    function changeRootnodeOwner(address _newOwner) external onlyOwner {\n        require(_newOwner != address(0), \"Address cannot be null\");\n        getEnsRegistry().setOwner(rootNode, _newOwner);\n        emit RootnodeOwnerChanged(rootNode, _newOwner);\n    }\n\n    /// @dev This function is used when the rootnode resolver is updated\n    /// @param _newResolver The address of the new ENS Resolver that will manage the root node.\n    function changeRootnodeResolver(address _newResolver) external onlyOwner {\n        require(_newResolver != address(0), \"Address cannot be null\");\n        getEnsRegistry().setResolver(rootNode, _newResolver);\n        emit RootnodeResolverChanged(rootNode, _newResolver);\n    }\n\n    /// @dev This function is used when the rootnode TTL is updated\n    /// @param _newTtl The address of the new TTL that will manage the root node.\n    function changeRootnodeTTL(uint64 _newTtl) external onlyOwner {\n        getEnsRegistry().setTTL(rootNode, _newTtl);\n        emit RootnodeTTLChanged(rootNode, _newTtl);\n    }\n\n    /// @dev Lets the owner change the address of the Authereum ENS resolver contract\n    /// @param _authereumEnsResolver The address of the Authereun ENS resolver contract\n    function changeEnsResolver(address _authereumEnsResolver) external onlyOwner {\n        require(_authereumEnsResolver != address(0), \"Address cannot be null\");\n        authereumEnsResolver = _authereumEnsResolver;\n        emit AuthereumEnsResolverChanged(_authereumEnsResolver);\n    }\n\n    /// @dev Lets the manager assign an ENS subdomain of the root node to a target address.\n    ///      Registers both the forward and reverse ENS\n    /// @param _label The subdomain label\n    /// @param _owner The owner of the subdomain\n    function register(string calldata _label, address _owner) external {\n        bytes32 labelNode = keccak256(abi.encodePacked(_label));\n        bytes32 node = keccak256(abi.encodePacked(rootNode, labelNode));\n        address currentOwner = getEnsRegistry().owner(node);\n        require(currentOwner == address(0), \"Label is already owned\");\n\n        // Forward ENS\n        getEnsRegistry().setSubnodeOwner(rootNode, labelNode, address(this));\n        getEnsRegistry().setResolver(node, authereumEnsResolver);\n        getEnsRegistry().setOwner(node, _owner);\n        AuthereumEnsResolver(authereumEnsResolver).setAddr(node, _owner);\n\n        // Reverse ENS\n        strings.slice[] memory parts = new strings.slice[](2);\n        parts[0] = _label.toSlice();\n        parts[1] = rootName.toSlice();\n        string memory name = \".\".toSlice().join(parts);\n        bytes32 reverseNode = EnsReverseRegistrar(getEnsReverseRegistrar()).node(_owner);\n        AuthereumEnsResolver(authereumEnsResolver).setName(reverseNode, name);\n\n        emit Registered(_owner, name);\n    }\n\n    /**\n     *  Public functions\n     */\n\n    /// @dev Returns true is a given subnode is available\n    /// @param _subnode The target subnode\n    /// @return true if the subnode is available\n    function isAvailable(bytes32 _subnode) public view returns (bool) {\n        bytes32 node = keccak256(abi.encodePacked(rootNode, _subnode));\n        address currentOwner = getEnsRegistry().owner(node);\n        if(currentOwner == address(0)) {\n            return true;\n        }\n        return false;\n    }\n}",
  "sourcePath": "/Users/sh/Dev/authereumorg/authereum/monorepo/packages/contracts/contracts/ens/AuthereumENSManager.sol",
  "compiler": {
    "name": "solc",
    "version": "0.5.8+commit.23d335f2.Emscripten.clang"
  },
  "schemaVersion": "3.0.11",
  "updatedAt": "2019-08-03T02:41:48.284Z",
  "devdoc": {
    "details": "Used to manage all subdomains.This is also known as the Authereum registrar.The public ENS registry is used. The resolver is custom.",
    "methods": {
      "changeEnsResolver(address)": {
        "details": "Lets the owner change the address of the Authereum ENS resolver contract",
        "params": {
          "_authereumEnsResolver": "The address of the Authereun ENS resolver contract"
        }
      },
      "changeRootnodeOwner(address)": {
        "details": "This function is used when the rootnode owner is updated",
        "params": {
          "_newOwner": "The address of the new ENS manager that will manage the root node."
        }
      },
      "changeRootnodeResolver(address)": {
        "details": "This function is used when the rootnode resolver is updated",
        "params": {
          "_newResolver": "The address of the new ENS Resolver that will manage the root node."
        }
      },
      "changeRootnodeTTL(uint64)": {
        "details": "This function is used when the rootnode TTL is updated",
        "params": {
          "_newTtl": "The address of the new TTL that will manage the root node."
        }
      },
      "constructor": {
        "details": "Constructor that sets the ENS root name and root node to manage",
        "params": {
          "_authereumEnsResolver": "Custom Autheruem ENS Resolver address",
          "_ensRegistry": "Custom ENS Registry address",
          "_rootName": "The root name (e.g. authereum.eth)",
          "_rootNode": "The node of the root name (e.g. namehash(authereum.eth))"
        }
      },
      "getEnsRegistry()": {
        "details": "Gets the official ENS registry."
      },
      "getEnsReverseRegistrar()": {
        "details": "Gets the official ENS reverse registrar."
      },
      "isAvailable(bytes32)": {
        "details": "Returns true is a given subnode is available",
        "params": {
          "_subnode": "The target subnode"
        },
        "return": "true if the subnode is available"
      },
      "register(string,address)": {
        "details": "Lets the manager assign an ENS subdomain of the root node to a target address.      Registers both the forward and reverse ENS",
        "params": {
          "_label": "The subdomain label",
          "_owner": "The owner of the subdomain"
        }
      },
      "resolveEns(bytes32)": {
        "details": "Resolves an ENS name to an address.",
        "params": {
          "_node": "The namehash of the ENS name."
        }
      }
    },
    "title": "AuthereumEnsManager"
  },
  "userdoc": {
    "methods": {}
  }
}