{
  "contractName": "AuthereumENSReverseRegistrar",
  "abi": [
    {
      "constant": true,
      "inputs": [
        {
          "name": "_node",
          "type": "bytes32"
        }
      ],
      "name": "resolver",
      "outputs": [
        {
          "name": "",
          "type": "address"
        }
      ],
      "payable": false,
      "stateMutability": "view",
      "type": "function"
    },
    {
      "constant": true,
      "inputs": [
        {
          "name": "_node",
          "type": "bytes32"
        }
      ],
      "name": "owner",
      "outputs": [
        {
          "name": "",
          "type": "address"
        }
      ],
      "payable": false,
      "stateMutability": "view",
      "type": "function"
    },
    {
      "constant": false,
      "inputs": [
        {
          "name": "_node",
          "type": "bytes32"
        },
        {
          "name": "_label",
          "type": "bytes32"
        },
        {
          "name": "_owner",
          "type": "address"
        }
      ],
      "name": "setSubnodeOwner",
      "outputs": [],
      "payable": false,
      "stateMutability": "nonpayable",
      "type": "function"
    },
    {
      "constant": false,
      "inputs": [
        {
          "name": "_node",
          "type": "bytes32"
        },
        {
          "name": "_ttl",
          "type": "uint64"
        }
      ],
      "name": "setTTL",
      "outputs": [],
      "payable": false,
      "stateMutability": "nonpayable",
      "type": "function"
    },
    {
      "constant": true,
      "inputs": [
        {
          "name": "_node",
          "type": "bytes32"
        }
      ],
      "name": "ttl",
      "outputs": [
        {
          "name": "",
          "type": "uint64"
        }
      ],
      "payable": false,
      "stateMutability": "view",
      "type": "function"
    },
    {
      "constant": false,
      "inputs": [
        {
          "name": "_node",
          "type": "bytes32"
        },
        {
          "name": "_resolver",
          "type": "address"
        }
      ],
      "name": "setResolver",
      "outputs": [],
      "payable": false,
      "stateMutability": "nonpayable",
      "type": "function"
    },
    {
      "constant": true,
      "inputs": [],
      "name": "ens",
      "outputs": [
        {
          "name": "",
          "type": "address"
        }
      ],
      "payable": false,
      "stateMutability": "view",
      "type": "function"
    },
    {
      "constant": false,
      "inputs": [
        {
          "name": "_node",
          "type": "bytes32"
        },
        {
          "name": "_owner",
          "type": "address"
        }
      ],
      "name": "setOwner",
      "outputs": [],
      "payable": false,
      "stateMutability": "nonpayable",
      "type": "function"
    },
    {
      "constant": true,
      "inputs": [],
      "name": "defaultResolver",
      "outputs": [
        {
          "name": "",
          "type": "address"
        }
      ],
      "payable": false,
      "stateMutability": "view",
      "type": "function"
    },
    {
      "inputs": [
        {
          "name": "ensAddr",
          "type": "address"
        },
        {
          "name": "resolverAddr",
          "type": "address"
        }
      ],
      "payable": false,
      "stateMutability": "nonpayable",
      "type": "constructor"
    },
    {
      "anonymous": false,
      "inputs": [
        {
          "indexed": true,
          "name": "_node",
          "type": "bytes32"
        },
        {
          "indexed": true,
          "name": "_label",
          "type": "bytes32"
        },
        {
          "indexed": false,
          "name": "_owner",
          "type": "address"
        }
      ],
      "name": "NewOwner",
      "type": "event"
    },
    {
      "anonymous": false,
      "inputs": [
        {
          "indexed": true,
          "name": "_node",
          "type": "bytes32"
        },
        {
          "indexed": false,
          "name": "_owner",
          "type": "address"
        }
      ],
      "name": "Transfer",
      "type": "event"
    },
    {
      "anonymous": false,
      "inputs": [
        {
          "indexed": true,
          "name": "_node",
          "type": "bytes32"
        },
        {
          "indexed": false,
          "name": "_resolver",
          "type": "address"
        }
      ],
      "name": "NewResolver",
      "type": "event"
    },
    {
      "anonymous": false,
      "inputs": [
        {
          "indexed": true,
          "name": "_node",
          "type": "bytes32"
        },
        {
          "indexed": false,
          "name": "_ttl",
          "type": "uint64"
        }
      ],
      "name": "NewTTL",
      "type": "event"
    },
    {
      "constant": false,
      "inputs": [
        {
          "name": "owner",
          "type": "address"
        }
      ],
      "name": "claim",
      "outputs": [
        {
          "name": "",
          "type": "bytes32"
        }
      ],
      "payable": false,
      "stateMutability": "nonpayable",
      "type": "function"
    },
    {
      "constant": false,
      "inputs": [
        {
          "name": "owner",
          "type": "address"
        },
        {
          "name": "resolver",
          "type": "address"
        }
      ],
      "name": "claimWithResolver",
      "outputs": [
        {
          "name": "",
          "type": "bytes32"
        }
      ],
      "payable": false,
      "stateMutability": "nonpayable",
      "type": "function"
    },
    {
      "constant": false,
      "inputs": [
        {
          "name": "name",
          "type": "string"
        }
      ],
      "name": "setName",
      "outputs": [
        {
          "name": "node",
          "type": "bytes32"
        }
      ],
      "payable": false,
      "stateMutability": "nonpayable",
      "type": "function"
    },
    {
      "constant": false,
      "inputs": [
        {
          "name": "addr",
          "type": "address"
        }
      ],
      "name": "node",
      "outputs": [
        {
          "name": "ret",
          "type": "bytes32"
        }
      ],
      "payable": false,
      "stateMutability": "nonpayable",
      "type": "function"
    }
  ],
  "bytecode": "0x608060405234801561001057600080fd5b5060405160408061159c8339810180604052604081101561003057600080fd5b810190808051906020019092919080519060200190929190505050336000808060001b815260200190815260200160002060000160006101000a81548173ffffffffffffffffffffffffffffffffffffffff021916908373ffffffffffffffffffffffffffffffffffffffff16021790555081600160006101000a81548173ffffffffffffffffffffffffffffffffffffffff021916908373ffffffffffffffffffffffffffffffffffffffff16021790555080600260006101000a81548173ffffffffffffffffffffffffffffffffffffffff021916908373ffffffffffffffffffffffffffffffffffffffff1602179055505050611467806101356000396000f3fe608060405234801561001057600080fd5b50600436106100cf5760003560e01c80631896f70a1161008c5780635b0fc9c3116100665780635b0fc9c314610408578063828eab0e14610456578063bffbe61c146104a0578063c47f0027146104f8576100cf565b80631896f70a146103185780631e83409a146103665780633f15457f146103be576100cf565b80630178b8bf146100d457806302571be31461014257806306ab5923146101b05780630f5a54661461020857806314ab90381461028057806316a25cbd146102c2575b600080fd5b610100600480360360208110156100ea57600080fd5b81019080803590602001909291905050506105c7565b604051808273ffffffffffffffffffffffffffffffffffffffff1673ffffffffffffffffffffffffffffffffffffffff16815260200191505060405180910390f35b61016e6004803603602081101561015857600080fd5b8101908080359060200190929190505050610606565b604051808273ffffffffffffffffffffffffffffffffffffffff1673ffffffffffffffffffffffffffffffffffffffff16815260200191505060405180910390f35b610206600480360360608110156101c657600080fd5b810190808035906020019092919080359060200190929190803573ffffffffffffffffffffffffffffffffffffffff169060200190929190505050610645565b005b61026a6004803603604081101561021e57600080fd5b81019080803573ffffffffffffffffffffffffffffffffffffffff169060200190929190803573ffffffffffffffffffffffffffffffffffffffff1690602001909291905050506107f2565b6040518082815260200191505060405180910390f35b6102c06004803603604081101561029657600080fd5b8101908080359060200190929190803567ffffffffffffffff169060200190929190505050610d34565b005b6102ee600480360360208110156102d857600080fd5b8101908080359060200190929190505050610e7b565b604051808267ffffffffffffffff1667ffffffffffffffff16815260200191505060405180910390f35b6103646004803603604081101561032e57600080fd5b8101908080359060200190929190803573ffffffffffffffffffffffffffffffffffffffff169060200190929190505050610eae565b005b6103a86004803603602081101561037c57600080fd5b81019080803573ffffffffffffffffffffffffffffffffffffffff169060200190929190505050611025565b6040518082815260200191505060405180910390f35b6103c6611039565b604051808273ffffffffffffffffffffffffffffffffffffffff1673ffffffffffffffffffffffffffffffffffffffff16815260200191505060405180910390f35b6104546004803603604081101561041e57600080fd5b8101908080359060200190929190803573ffffffffffffffffffffffffffffffffffffffff16906020019092919050505061105f565b005b61045e6111d6565b604051808273ffffffffffffffffffffffffffffffffffffffff1673ffffffffffffffffffffffffffffffffffffffff16815260200191505060405180910390f35b6104e2600480360360208110156104b657600080fd5b81019080803573ffffffffffffffffffffffffffffffffffffffff1690602001909291905050506111fc565b6040518082815260200191505060405180910390f35b6105b16004803603602081101561050e57600080fd5b810190808035906020019064010000000081111561052b57600080fd5b82018360208201111561053d57600080fd5b8035906020019184600183028401116401000000008311171561055f57600080fd5b91908080601f016020809104026020016040519081016040528093929190818152602001838380828437600081840152601f19601f82011690508083019250505050505050919291929050505061125f565b6040518082815260200191505060405180910390f35b600080600083815260200190815260200160002060010160009054906101000a900473ffffffffffffffffffffffffffffffffffffffff169050919050565b600080600083815260200190815260200160002060000160009054906101000a900473ffffffffffffffffffffffffffffffffffffffff169050919050565b823373ffffffffffffffffffffffffffffffffffffffff1660008083815260200190815260200160002060000160009054906101000a900473ffffffffffffffffffffffffffffffffffffffff1673ffffffffffffffffffffffffffffffffffffffff16146106ff576040517f08c379a00000000000000000000000000000000000000000000000000000000081526004018080602001828103825260408152602001806113fc6040913960400191505060405180910390fd5b60008484604051602001808381526020018281526020019250505060405160208183030381529060405280519060200120905083857fce0457fe73731f824cc272376169235128c118b49d344817417c6d108d155e8285604051808273ffffffffffffffffffffffffffffffffffffffff1673ffffffffffffffffffffffffffffffffffffffff16815260200191505060405180910390a38260008083815260200190815260200160002060000160006101000a81548173ffffffffffffffffffffffffffffffffffffffff021916908373ffffffffffffffffffffffffffffffffffffffff1602179055505050505050565b6000806107fe33611391565b905060007f91d1777781884d03a6757a803996e38de2a42967fb37eeaca72729271025a9e260001b8260405160200180838152602001828152602001925050506040516020818303038152906040528051906020012090506000600160009054906101000a900473ffffffffffffffffffffffffffffffffffffffff1673ffffffffffffffffffffffffffffffffffffffff166302571be3836040518263ffffffff1660e01b81526004018082815260200191505060206040518083038186803b1580156108cb57600080fd5b505afa1580156108df573d6000803e3d6000fd5b505050506040513d60208110156108f557600080fd5b81019080805190602001909291905050509050600073ffffffffffffffffffffffffffffffffffffffff168573ffffffffffffffffffffffffffffffffffffffff1614158015610a1e5750600160009054906101000a900473ffffffffffffffffffffffffffffffffffffffff1673ffffffffffffffffffffffffffffffffffffffff16630178b8bf836040518263ffffffff1660e01b81526004018082815260200191505060206040518083038186803b1580156109b357600080fd5b505afa1580156109c7573d6000803e3d6000fd5b505050506040513d60208110156109dd57600080fd5b810190808051906020019092919050505073ffffffffffffffffffffffffffffffffffffffff168573ffffffffffffffffffffffffffffffffffffffff1614155b15610c08573073ffffffffffffffffffffffffffffffffffffffff168173ffffffffffffffffffffffffffffffffffffffff1614610b4657600160009054906101000a900473ffffffffffffffffffffffffffffffffffffffff1673ffffffffffffffffffffffffffffffffffffffff166306ab59237f91d1777781884d03a6757a803996e38de2a42967fb37eeaca72729271025a9e260001b85306040518463ffffffff1660e01b8152600401808481526020018381526020018273ffffffffffffffffffffffffffffffffffffffff1673ffffffffffffffffffffffffffffffffffffffff1681526020019350505050600060405180830381600087803b158015610b2a57600080fd5b505af1158015610b3e573d6000803e3d6000fd5b505050503090505b600160009054906101000a900473ffffffffffffffffffffffffffffffffffffffff1673ffffffffffffffffffffffffffffffffffffffff16631896f70a83876040518363ffffffff1660e01b8152600401808381526020018273ffffffffffffffffffffffffffffffffffffffff1673ffffffffffffffffffffffffffffffffffffffff16815260200192505050600060405180830381600087803b158015610bef57600080fd5b505af1158015610c03573d6000803e3d6000fd5b505050505b8573ffffffffffffffffffffffffffffffffffffffff168173ffffffffffffffffffffffffffffffffffffffff1614610d2857600160009054906101000a900473ffffffffffffffffffffffffffffffffffffffff1673ffffffffffffffffffffffffffffffffffffffff166306ab59237f91d1777781884d03a6757a803996e38de2a42967fb37eeaca72729271025a9e260001b85896040518463ffffffff1660e01b8152600401808481526020018381526020018273ffffffffffffffffffffffffffffffffffffffff1673ffffffffffffffffffffffffffffffffffffffff1681526020019350505050600060405180830381600087803b158015610d0f57600080fd5b505af1158015610d23573d6000803e3d6000fd5b505050505b81935050505092915050565b813373ffffffffffffffffffffffffffffffffffffffff1660008083815260200190815260200160002060000160009054906101000a900473ffffffffffffffffffffffffffffffffffffffff1673ffffffffffffffffffffffffffffffffffffffff1614610dee576040517f08c379a00000000000000000000000000000000000000000000000000000000081526004018080602001828103825260408152602001806113fc6040913960400191505060405180910390fd5b827f1d4f9bbfc9cab89d66e1a1562f2233ccbf1308cb4f63de2ead5787adddb8fa6883604051808267ffffffffffffffff1667ffffffffffffffff16815260200191505060405180910390a28160008085815260200190815260200160002060010160146101000a81548167ffffffffffffffff021916908367ffffffffffffffff160217905550505050565b600080600083815260200190815260200160002060010160149054906101000a900467ffffffffffffffff169050919050565b813373ffffffffffffffffffffffffffffffffffffffff1660008083815260200190815260200160002060000160009054906101000a900473ffffffffffffffffffffffffffffffffffffffff1673ffffffffffffffffffffffffffffffffffffffff1614610f68576040517f08c379a00000000000000000000000000000000000000000000000000000000081526004018080602001828103825260408152602001806113fc6040913960400191505060405180910390fd5b827f335721b01866dc23fbee8b6b2c7b1e14d6f05c28cd35a2c934239f94095602a083604051808273ffffffffffffffffffffffffffffffffffffffff1673ffffffffffffffffffffffffffffffffffffffff16815260200191505060405180910390a28160008085815260200190815260200160002060010160006101000a81548173ffffffffffffffffffffffffffffffffffffffff021916908373ffffffffffffffffffffffffffffffffffffffff160217905550505050565b60006110328260006107f2565b9050919050565b600160009054906101000a900473ffffffffffffffffffffffffffffffffffffffff1681565b813373ffffffffffffffffffffffffffffffffffffffff1660008083815260200190815260200160002060000160009054906101000a900473ffffffffffffffffffffffffffffffffffffffff1673ffffffffffffffffffffffffffffffffffffffff1614611119576040517f08c379a00000000000000000000000000000000000000000000000000000000081526004018080602001828103825260408152602001806113fc6040913960400191505060405180910390fd5b827fd4735d920b0f87494915f556dd9b54c8f309026070caea5c737245152564d26683604051808273ffffffffffffffffffffffffffffffffffffffff1673ffffffffffffffffffffffffffffffffffffffff16815260200191505060405180910390a28160008085815260200190815260200160002060000160006101000a81548173ffffffffffffffffffffffffffffffffffffffff021916908373ffffffffffffffffffffffffffffffffffffffff160217905550505050565b600260009054906101000a900473ffffffffffffffffffffffffffffffffffffffff1681565b60007f91d1777781884d03a6757a803996e38de2a42967fb37eeaca72729271025a9e260001b61122b83611391565b6040516020018083815260200182815260200192505050604051602081830303815290604052805190602001209050919050565b600061128d30600260009054906101000a900473ffffffffffffffffffffffffffffffffffffffff166107f2565b9050600260009054906101000a900473ffffffffffffffffffffffffffffffffffffffff1673ffffffffffffffffffffffffffffffffffffffff16637737221382846040518363ffffffff1660e01b81526004018083815260200180602001828103825283818151815260200191508051906020019080838360005b83811015611324578082015181840152602081019050611309565b50505050905090810190601f1680156113515780820380516001836020036101000a031916815260200191505b509350505050600060405180830381600087803b15801561137157600080fd5b505af1158015611385573d6000803e3d6000fd5b50505050809050919050565b60007f303132333435363738396162636465660000000000000000000000000000000060285b60008111156113ed5760018103905081600f85161a815360108404935060018103905081600f85161a81536010840493506113b7565b60286000209250505091905056fe454e53546573743a2074686973206d6574686f64206e6565647320746f2062652063616c6c656420627920746865206f776e6572206f6620746865206e6f6465a165627a7a723058204eb3e681b1cf1a37a72faeb74480eb1f214e1100fb61a12fa67850189c5d24830029",
  "source": "pragma solidity ^0.5.8;\n\nimport \"../test/PublicENSRegistry.sol\";\n\n/**\n * ENS Reverse registrar test contract.\n */\ncontract AuthereumENSReverseRegistrar is ENSReverseRegistrar, PublicENSRegistry {\n    // namehash('addr.reverse')\n    bytes32 constant ADDR_REVERSE_NODE = 0x91d1777781884d03a6757a803996e38de2a42967fb37eeaca72729271025a9e2;\n\n    ENSRegistry public ens;\n    ENSResolver public defaultResolver;\n\n    /**\n     * @dev Constructor\n     * @param ensAddr The address of the ENS registry.\n     * @param resolverAddr The address of the default reverse resolver.\n     */\n    constructor(address ensAddr, address resolverAddr) public {\n        ens = ENSRegistry(ensAddr);\n        defaultResolver = ENSResolver(resolverAddr);\n    }\n\n    /**\n     * @dev Transfers ownership of the reverse ENS record associated with the\n     *      calling account.\n     * @param owner The address to set as the owner of the reverse record in ENS.\n     * @return The ENS node hash of the reverse record.\n     */\n    function claim(address owner) public returns (bytes32) {\n        return claimWithResolver(owner, address(0));\n    }\n\n    /**\n     * @dev Transfers ownership of the reverse ENS record associated with the\n     *      calling account.\n     * @param owner The address to set as the owner of the reverse record in ENS.\n     * @param resolver The address of the resolver to set; 0 to leave unchanged.\n     * @return The ENS node hash of the reverse record.\n     */\n    function claimWithResolver(address owner, address resolver) public returns (bytes32) {\n        bytes32 label = sha3HexAddress(msg.sender);\n        bytes32 node = keccak256(abi.encodePacked(ADDR_REVERSE_NODE, label));\n        address currentOwner = ens.owner(node);\n\n        // Update the resolver if required\n        if(resolver != address(0) && resolver != address(ens.resolver(node))) {\n            // Transfer the name to us first if it's not already\n            if(currentOwner != address(this)) {\n                ens.setSubnodeOwner(ADDR_REVERSE_NODE, label, address(this));\n                currentOwner = address(this);\n            }\n            ens.setResolver(node, resolver);\n        }\n\n        // Update the owner if required\n        if(currentOwner != owner) {\n            ens.setSubnodeOwner(ADDR_REVERSE_NODE, label, owner);\n        }\n\n        return node;\n    }\n\n    /**\n     * @dev Sets the `name()` record for the reverse ENS record associated with\n     * the calling account. First updates the resolver to the default reverse\n     * resolver if necessary.\n     * @param name The name to set for this address.\n     * @return The ENS node hash of the reverse record.\n     */\n    function setName(string memory name) public returns (bytes32 node) {\n        node = claimWithResolver(address(this), address(defaultResolver));\n        defaultResolver.setName(node, name);\n        return node;\n    }\n\n    /**\n     * @dev Returns the node hash for a given account's reverse records.\n     * @param addr The address to hash\n     * @return The ENS node hash.\n     */\n    function node(address addr) public returns (bytes32 ret) {\n        return keccak256(abi.encodePacked(ADDR_REVERSE_NODE, sha3HexAddress(addr)));\n    }\n\n    /**\n     * @dev An optimised function to compute the sha3 of the lower-case\n     *      hexadecimal representation of an Ethereum address.\n     * @param addr The address to hash\n     * @return The SHA3 hash of the lower-case hexadecimal encoding of the\n     *         input address.\n     */\n    function sha3HexAddress(address addr) private returns (bytes32 ret) {\n        assembly {\n            let lookup := 0x3031323334353637383961626364656600000000000000000000000000000000\n            let i := 40\n\n            for { } gt(i, 0) { } {\n                i := sub(i, 1)\n                mstore8(i, byte(and(addr, 0xf), lookup))\n                addr := div(addr, 0x10)\n                i := sub(i, 1)\n                mstore8(i, byte(and(addr, 0xf), lookup))\n                addr := div(addr, 0x10)\n            }\n            ret := keccak256(0, 40)\n        }\n    }\n}",
  "sourcePath": "/Volumes/hd2/Sandbox/authereum/packages/contracts/contracts/ens/AuthereumENSReverseRegistrar.sol",
  "compiler": {
    "name": "solc",
    "version": "0.5.8+commit.23d335f2.Emscripten.clang"
  },
  "schemaVersion": "3.0.11",
  "updatedAt": "2019-07-03T21:28:12.460Z",
  "devdoc": {
    "methods": {
      "claim(address)": {
        "details": "Transfers ownership of the reverse ENS record associated with the     calling account.",
        "params": {
          "owner": "The address to set as the owner of the reverse record in ENS."
        },
        "return": "The ENS node hash of the reverse record."
      },
      "claimWithResolver(address,address)": {
        "details": "Transfers ownership of the reverse ENS record associated with the     calling account.",
        "params": {
          "owner": "The address to set as the owner of the reverse record in ENS.",
          "resolver": "The address of the resolver to set; 0 to leave unchanged."
        },
        "return": "The ENS node hash of the reverse record."
      },
      "constructor": {
        "details": "Constructor",
        "params": {
          "ensAddr": "The address of the ENS registry.",
          "resolverAddr": "The address of the default reverse resolver."
        }
      },
      "node(address)": {
        "details": "Returns the node hash for a given account's reverse records.",
        "params": {
          "addr": "The address to hash"
        },
        "return": "The ENS node hash."
      },
      "setName(string)": {
        "details": "Sets the `name()` record for the reverse ENS record associated with the calling account. First updates the resolver to the default reverse resolver if necessary.",
        "params": {
          "name": "The name to set for this address."
        },
        "return": "The ENS node hash of the reverse record."
      },
      "setOwner(bytes32,address)": {
        "params": {
          "_node": "The node to transfer ownership of.",
          "_owner": "The address of the new owner."
        }
      },
      "setResolver(bytes32,address)": {
        "params": {
          "_node": "The node to update.",
          "_resolver": "The address of the resolver."
        }
      },
      "setSubnodeOwner(bytes32,bytes32,address)": {
        "params": {
          "_label": "The hash of the label specifying the subnode.",
          "_node": "The parent node.",
          "_owner": "The address of the new owner."
        }
      },
      "setTTL(bytes32,uint64)": {
        "params": {
          "_node": "The node to update.",
          "_ttl": "The TTL in seconds."
        }
      }
    }
  },
  "userdoc": {
    "methods": {
      "owner(bytes32)": {
        "notice": "Returns the address that owns the specified node."
      },
      "resolver(bytes32)": {
        "notice": "Returns the address of the resolver for the specified node."
      },
      "setOwner(bytes32,address)": {
        "notice": "Transfers ownership of a node to a new address. May only be called by the current owner of the node."
      },
      "setResolver(bytes32,address)": {
        "notice": "Sets the resolver address for the specified node."
      },
      "setSubnodeOwner(bytes32,bytes32,address)": {
        "notice": "Transfers ownership of a subnode sha3(node, label) to a new address. May only be called by the owner of the parent node."
      },
      "setTTL(bytes32,uint64)": {
        "notice": "Sets the TTL for the specified node."
      },
      "ttl(bytes32)": {
        "notice": "Returns the TTL of a node, and any records associated with it."
      }
    },
    "notice": "ENS Reverse registrar test contract."
  }
}