{
  "contractName": "AuthereumAccount",
  "abi": [
    {
      "constant": false,
      "inputs": [
        {
          "name": "_authKey",
          "type": "address"
        }
      ],
      "name": "addAuthKey",
      "outputs": [],
      "payable": false,
      "stateMutability": "nonpayable",
      "type": "function"
    },
    {
      "constant": false,
      "inputs": [
        {
          "name": "_authKeys",
          "type": "address[]"
        }
      ],
      "name": "removeMultipleAuthKeys",
      "outputs": [],
      "payable": false,
      "stateMutability": "nonpayable",
      "type": "function"
    },
    {
      "constant": false,
      "inputs": [
        {
          "name": "_label",
          "type": "string"
        },
        {
          "name": "_owner",
          "type": "address"
        }
      ],
      "name": "register",
      "outputs": [],
      "payable": false,
      "stateMutability": "nonpayable",
      "type": "function"
    },
    {
      "constant": true,
      "inputs": [
        {
          "name": "_msg",
          "type": "bytes"
        },
        {
          "name": "_signatures",
          "type": "bytes"
        }
      ],
      "name": "isValidSignature",
      "outputs": [
        {
          "name": "",
          "type": "bytes4"
        }
      ],
      "payable": false,
      "stateMutability": "view",
      "type": "function"
    },
    {
      "constant": true,
      "inputs": [],
      "name": "getCurrentDay",
      "outputs": [
        {
          "name": "",
          "type": "uint256"
        }
      ],
      "payable": false,
      "stateMutability": "view",
      "type": "function"
    },
    {
      "constant": true,
      "inputs": [
        {
          "name": "_msg",
          "type": "bytes"
        },
        {
          "name": "_signature",
          "type": "bytes"
        }
      ],
      "name": "isValidAuthKeySignature",
      "outputs": [
        {
          "name": "",
          "type": "bytes4"
        }
      ],
      "payable": false,
      "stateMutability": "view",
      "type": "function"
    },
    {
      "constant": true,
      "inputs": [
        {
          "name": "_txDataMessageHash",
          "type": "bytes32"
        },
        {
          "name": "_transactionDataSignature",
          "type": "bytes"
        },
        {
          "name": "_loginKeyAuthorizationSignature",
          "type": "bytes"
        }
      ],
      "name": "validateLoginKeyMetaTxSigs",
      "outputs": [
        {
          "name": "",
          "type": "address"
        }
      ],
      "payable": false,
      "stateMutability": "view",
      "type": "function"
    },
    {
      "constant": true,
      "inputs": [
        {
          "name": "",
          "type": "address"
        }
      ],
      "name": "authKeys",
      "outputs": [
        {
          "name": "",
          "type": "bool"
        }
      ],
      "payable": false,
      "stateMutability": "view",
      "type": "function"
    },
    {
      "constant": false,
      "inputs": [
        {
          "name": "_oldAuthKeys",
          "type": "address[]"
        },
        {
          "name": "_newAuthKeys",
          "type": "address[]"
        }
      ],
      "name": "swapMultipleAuthKeys",
      "outputs": [],
      "payable": false,
      "stateMutability": "nonpayable",
      "type": "function"
    },
    {
      "constant": true,
      "inputs": [],
      "name": "dailyLimit",
      "outputs": [
        {
          "name": "",
          "type": "uint256"
        }
      ],
      "payable": false,
      "stateMutability": "view",
      "type": "function"
    },
    {
      "constant": true,
      "inputs": [],
      "name": "CHAIN_ID",
      "outputs": [
        {
          "name": "",
          "type": "uint256"
        }
      ],
      "payable": false,
      "stateMutability": "view",
      "type": "function"
    },
    {
      "constant": false,
      "inputs": [
        {
          "name": "_destination",
          "type": "address"
        },
        {
          "name": "_data",
          "type": "bytes"
        },
        {
          "name": "_value",
          "type": "uint256"
        },
        {
          "name": "_nonce",
          "type": "uint256"
        },
        {
          "name": "_gasLimit",
          "type": "uint256"
        },
        {
          "name": "_transactionDataSignature",
          "type": "bytes"
        },
        {
          "name": "_loginKeyAuthorizationSignature",
          "type": "bytes"
        }
      ],
      "name": "executeLoginKeyMetaTx",
      "outputs": [
        {
          "name": "",
          "type": "bytes"
        }
      ],
      "payable": false,
      "stateMutability": "nonpayable",
      "type": "function"
    },
    {
      "constant": false,
      "inputs": [
        {
          "name": "_authKey",
          "type": "address"
        }
      ],
      "name": "removeAuthKey",
      "outputs": [],
      "payable": false,
      "stateMutability": "nonpayable",
      "type": "function"
    },
    {
      "constant": true,
      "inputs": [
        {
          "name": "",
          "type": "uint256"
        }
      ],
      "name": "dailyLimitTracker",
      "outputs": [
        {
          "name": "",
          "type": "uint256"
        }
      ],
      "payable": false,
      "stateMutability": "view",
      "type": "function"
    },
    {
      "constant": true,
      "inputs": [],
      "name": "nonce",
      "outputs": [
        {
          "name": "",
          "type": "uint256"
        }
      ],
      "payable": false,
      "stateMutability": "view",
      "type": "function"
    },
    {
      "constant": false,
      "inputs": [
        {
          "name": "_oldAuthKey",
          "type": "address"
        },
        {
          "name": "_newAuthKey",
          "type": "address"
        }
      ],
      "name": "swapAuthKeys",
      "outputs": [],
      "payable": false,
      "stateMutability": "nonpayable",
      "type": "function"
    },
    {
      "constant": true,
      "inputs": [
        {
          "name": "",
          "type": "uint256"
        }
      ],
      "name": "authKeysArray",
      "outputs": [
        {
          "name": "",
          "type": "address"
        }
      ],
      "payable": false,
      "stateMutability": "view",
      "type": "function"
    },
    {
      "constant": true,
      "inputs": [],
      "name": "getAuthKeysArrayLength",
      "outputs": [
        {
          "name": "",
          "type": "uint256"
        }
      ],
      "payable": false,
      "stateMutability": "view",
      "type": "function"
    },
    {
      "constant": false,
      "inputs": [
        {
          "name": "_newDailyLimit",
          "type": "uint256"
        }
      ],
      "name": "changeDailyLimit",
      "outputs": [],
      "payable": false,
      "stateMutability": "nonpayable",
      "type": "function"
    },
    {
      "constant": true,
      "inputs": [
        {
          "name": "_msg",
          "type": "bytes"
        },
        {
          "name": "_signatures",
          "type": "bytes"
        }
      ],
      "name": "isValidLoginKeySignature",
      "outputs": [
        {
          "name": "",
          "type": "bytes4"
        }
      ],
      "payable": false,
      "stateMutability": "view",
      "type": "function"
    },
    {
      "constant": false,
      "inputs": [
        {
          "name": "_nonce",
          "type": "uint256"
        },
        {
          "name": "_destination",
          "type": "address"
        },
        {
          "name": "_value",
          "type": "uint256"
        },
        {
          "name": "_data",
          "type": "bytes"
        }
      ],
      "name": "executeTransaction",
      "outputs": [
        {
          "name": "",
          "type": "bytes"
        }
      ],
      "payable": false,
      "stateMutability": "nonpayable",
      "type": "function"
    },
    {
      "constant": false,
      "inputs": [
        {
          "name": "_destination",
          "type": "address"
        },
        {
          "name": "_data",
          "type": "bytes"
        },
        {
          "name": "_value",
          "type": "uint256"
        },
        {
          "name": "_nonce",
          "type": "uint256"
        },
        {
          "name": "_gasLimit",
          "type": "uint256"
        },
        {
          "name": "_transactionDataSignature",
          "type": "bytes"
        }
      ],
      "name": "executeAuthKeyMetaTx",
      "outputs": [
        {
          "name": "",
          "type": "bytes"
        }
      ],
      "payable": false,
      "stateMutability": "nonpayable",
      "type": "function"
    },
    {
      "constant": true,
      "inputs": [
        {
          "name": "",
          "type": "address"
        }
      ],
      "name": "authKeysArrayIndex",
      "outputs": [
        {
          "name": "",
          "type": "uint256"
        }
      ],
      "payable": false,
      "stateMutability": "view",
      "type": "function"
    },
    {
      "constant": false,
      "inputs": [
        {
          "name": "_authKeys",
          "type": "address[]"
        }
      ],
      "name": "addMultipleAuthKeys",
      "outputs": [],
      "payable": false,
      "stateMutability": "nonpayable",
      "type": "function"
    },
    {
      "constant": true,
      "inputs": [
        {
          "name": "transactionDataSigner",
          "type": "address"
        },
        {
          "name": "_loginKeyAuthorizationSignature",
          "type": "bytes"
        }
      ],
      "name": "isValidLoginKey",
      "outputs": [
        {
          "name": "",
          "type": "bool"
        }
      ],
      "payable": false,
      "stateMutability": "view",
      "type": "function"
    },
    {
      "payable": true,
      "stateMutability": "payable",
      "type": "fallback"
    },
    {
      "anonymous": false,
      "inputs": [
        {
          "indexed": true,
          "name": "authKey",
          "type": "address"
        },
        {
          "indexed": true,
          "name": "newDailyLimit",
          "type": "uint256"
        }
      ],
      "name": "DailyLimitChanged",
      "type": "event"
    },
    {
      "anonymous": false,
      "inputs": [
        {
          "indexed": true,
          "name": "sender",
          "type": "address"
        },
        {
          "indexed": true,
          "name": "value",
          "type": "uint256"
        }
      ],
      "name": "FundsReceived",
      "type": "event"
    },
    {
      "anonymous": false,
      "inputs": [
        {
          "indexed": true,
          "name": "authKey",
          "type": "address"
        }
      ],
      "name": "AddedAuthKey",
      "type": "event"
    },
    {
      "anonymous": false,
      "inputs": [
        {
          "indexed": true,
          "name": "authKey",
          "type": "address"
        }
      ],
      "name": "RemovedAuthKey",
      "type": "event"
    },
    {
      "anonymous": false,
      "inputs": [
        {
          "indexed": true,
          "name": "oldAuthKey",
          "type": "address"
        },
        {
          "indexed": true,
          "name": "newAuthKey",
          "type": "address"
        }
      ],
      "name": "SwappedAuthKeys",
      "type": "event"
    },
    {
      "anonymous": false,
      "inputs": [
        {
          "indexed": false,
          "name": "encodedData",
          "type": "bytes32"
        }
      ],
      "name": "CallFailed",
      "type": "event"
    },
    {
      "constant": false,
      "inputs": [
        {
          "name": "_authKey",
          "type": "address"
        },
        {
          "name": "_authereumENSManager",
          "type": "address"
        },
        {
          "name": "_label",
          "type": "string"
        }
      ],
      "name": "initialize",
      "outputs": [],
      "payable": false,
      "stateMutability": "nonpayable",
      "type": "function"
    },
    {
      "constant": false,
      "inputs": [],
      "name": "initialize",
      "outputs": [],
      "payable": false,
      "stateMutability": "nonpayable",
      "type": "function"
    }
  ],
  "bytecode": "0x608060405234801561001057600080fd5b50613acb806100206000396000f3fe60806040526004361061019c5760003560e01c80638dd17572116100ec578063cea086211161008a578063e3e077fb11610064578063e3e077fb146113fb578063ed8fc6b814611611578063f399f1dd14611676578063fd54c1221461173b5761019c565b8063cea086211461109a578063d59e3e98146110d5578063e0eae14d146112865761019c565b8063affed0e0116100c6578063affed0e014610f58578063b4c2716414610f83578063bd1a84ab14610ff4578063cd11331e1461106f5761019c565b80638dd1757214610c0b5780639565389e14610eb85780639657b80914610f095761019c565b80634571e3a6116101595780635b79818f116101335780635b79818f14610a4557806367eeba0c14610b9e5780638129fc1c14610bc957806385e1f4d014610be05761019c565b80634571e3a61461072b5780634c477daf146108335780635175ca5e146109dc5761019c565b806313f8c578146101e25780631704db30146102335780631e59c529146102f857806320c13b0b1461039e5780633e6968b61461054f57806340914b061461057a575b343373ffffffffffffffffffffffffffffffffffffffff167f8e47b87b0ef542cdfa1659c551d88bad38aa7f452d2bbb349ab7530dfec8be8f60405160405180910390a3005b3480156101ee57600080fd5b506102316004803603602081101561020557600080fd5b81019080803573ffffffffffffffffffffffffffffffffffffffff16906020019092919050505061183b565b005b34801561023f57600080fd5b506102f66004803603602081101561025657600080fd5b810190808035906020019064010000000081111561027357600080fd5b82018360208201111561028557600080fd5b803590602001918460208302840111640100000000831117156102a757600080fd5b919080806020026020016040519081016040528093929190818152602001838360200280828437600081840152601f19601f820116905080830192505050505050509192919290505050611a54565b005b34801561030457600080fd5b5061039c6004803603604081101561031b57600080fd5b810190808035906020019064010000000081111561033857600080fd5b82018360208201111561034a57600080fd5b8035906020019184600183028401116401000000008311171561036c57600080fd5b9091929391929390803573ffffffffffffffffffffffffffffffffffffffff169060200190929190505050611a99565b005b3480156103aa57600080fd5b506104fb600480360360408110156103c157600080fd5b81019080803590602001906401000000008111156103de57600080fd5b8201836020820111156103f057600080fd5b8035906020019184600183028401116401000000008311171561041257600080fd5b91908080601f016020809104026020016040519081016040528093929190818152602001838380828437600081840152601f19601f8201169050808301925050505050505091929192908035906020019064010000000081111561047557600080fd5b82018360208201111561048757600080fd5b803590602001918460018302840111640100000000831117156104a957600080fd5b91908080601f016020809104026020016040519081016040528093929190818152602001838380828437600081840152601f19601f820116905080830192505050505050509192919290505050611a9e565b60405180827bffffffffffffffffffffffffffffffffffffffffffffffffffffffff19167bffffffffffffffffffffffffffffffffffffffffffffffffffffffff1916815260200191505060405180910390f35b34801561055b57600080fd5b50610564611b4a565b6040518082815260200191505060405180910390f35b34801561058657600080fd5b506106d76004803603604081101561059d57600080fd5b81019080803590602001906401000000008111156105ba57600080fd5b8201836020820111156105cc57600080fd5b803590602001918460018302840111640100000000831117156105ee57600080fd5b91908080601f016020809104026020016040519081016040528093929190818152602001838380828437600081840152601f19601f8201169050808301925050505050505091929192908035906020019064010000000081111561065157600080fd5b82018360208201111561066357600080fd5b8035906020019184600183028401116401000000008311171561068557600080fd5b91908080601f016020809104026020016040519081016040528093929190818152602001838380828437600081840152601f19601f820116905080830192505050505050509192919290505050611b5e565b60405180827bffffffffffffffffffffffffffffffffffffffffffffffffffffffff19167bffffffffffffffffffffffffffffffffffffffffffffffffffffffff1916815260200191505060405180910390f35b34801561073757600080fd5b506108316004803603606081101561074e57600080fd5b81019080803573ffffffffffffffffffffffffffffffffffffffff169060200190929190803573ffffffffffffffffffffffffffffffffffffffff169060200190929190803590602001906401000000008111156107ab57600080fd5b8201836020820111156107bd57600080fd5b803590602001918460018302840111640100000000831117156107df57600080fd5b91908080601f016020809104026020016040519081016040528093929190818152602001838380828437600081840152601f19601f820116905080830192505050505050509192919290505050611bf2565b005b34801561083f57600080fd5b5061099a6004803603606081101561085657600080fd5b81019080803590602001909291908035906020019064010000000081111561087d57600080fd5b82018360208201111561088f57600080fd5b803590602001918460018302840111640100000000831117156108b157600080fd5b91908080601f016020809104026020016040519081016040528093929190818152602001838380828437600081840152601f19601f8201169050808301925050505050505091929192908035906020019064010000000081111561091457600080fd5b82018360208201111561092657600080fd5b8035906020019184600183028401116401000000008311171561094857600080fd5b91908080601f016020809104026020016040519081016040528093929190818152602001838380828437600081840152601f19601f820116905080830192505050505050509192919290505050611f55565b604051808273ffffffffffffffffffffffffffffffffffffffff1673ffffffffffffffffffffffffffffffffffffffff16815260200191505060405180910390f35b3480156109e857600080fd5b50610a2b600480360360208110156109ff57600080fd5b81019080803573ffffffffffffffffffffffffffffffffffffffff169060200190929190505050611ffc565b604051808215151515815260200191505060405180910390f35b348015610a5157600080fd5b50610b9c60048036036040811015610a6857600080fd5b8101908080359060200190640100000000811115610a8557600080fd5b820183602082011115610a9757600080fd5b80359060200191846020830284011164010000000083111715610ab957600080fd5b919080806020026020016040519081016040528093929190818152602001838360200280828437600081840152601f19601f82011690508083019250505050505050919291929080359060200190640100000000811115610b1957600080fd5b820183602082011115610b2b57600080fd5b80359060200191846020830284011164010000000083111715610b4d57600080fd5b919080806020026020016040519081016040528093929190818152602001838360200280828437600081840152601f19601f82011690508083019250505050505050919291929050505061201c565b005b348015610baa57600080fd5b50610bb36120ed565b6040518082815260200191505060405180910390f35b348015610bd557600080fd5b50610bde6120f3565b005b348015610bec57600080fd5b50610bf5612201565b6040518082815260200191505060405180910390f35b348015610c1757600080fd5b50610e3d600480360360e0811015610c2e57600080fd5b81019080803573ffffffffffffffffffffffffffffffffffffffff16906020019092919080359060200190640100000000811115610c6b57600080fd5b820183602082011115610c7d57600080fd5b80359060200191846001830284011164010000000083111715610c9f57600080fd5b91908080601f016020809104026020016040519081016040528093929190818152602001838380828437600081840152601f19601f82011690508083019250505050505050919291929080359060200190929190803590602001909291908035906020019092919080359060200190640100000000811115610d2057600080fd5b820183602082011115610d3257600080fd5b80359060200191846001830284011164010000000083111715610d5457600080fd5b91908080601f016020809104026020016040519081016040528093929190818152602001838380828437600081840152601f19601f82011690508083019250505050505050919291929080359060200190640100000000811115610db757600080fd5b820183602082011115610dc957600080fd5b80359060200191846001830284011164010000000083111715610deb57600080fd5b91908080601f016020809104026020016040519081016040528093929190818152602001838380828437600081840152601f19601f820116905080830192505050505050509192919290505050612207565b6040518080602001828103825283818151815260200191508051906020019080838360005b83811015610e7d578082015181840152602081019050610e62565b50505050905090810190601f168015610eaa5780820380516001836020036101000a031916815260200191505b509250505060405180910390f35b348015610ec457600080fd5b50610f0760048036036020811015610edb57600080fd5b81019080803573ffffffffffffffffffffffffffffffffffffffff1690602001909291905050506123cb565b005b348015610f1557600080fd5b50610f4260048036036020811015610f2c57600080fd5b81019080803590602001909291905050506125fc565b6040518082815260200191505060405180910390f35b348015610f6457600080fd5b50610f6d612614565b6040518082815260200191505060405180910390f35b348015610f8f57600080fd5b50610ff260048036036040811015610fa657600080fd5b81019080803573ffffffffffffffffffffffffffffffffffffffff169060200190929190803573ffffffffffffffffffffffffffffffffffffffff16906020019092919050505061261a565b005b34801561100057600080fd5b5061102d6004803603602081101561101757600080fd5b8101908080359060200190929190505050612809565b604051808273ffffffffffffffffffffffffffffffffffffffff1673ffffffffffffffffffffffffffffffffffffffff16815260200191505060405180910390f35b34801561107b57600080fd5b50611084612845565b6040518082815260200191505060405180910390f35b3480156110a657600080fd5b506110d3600480360360208110156110bd57600080fd5b8101908080359060200190929190505050612852565b005b3480156110e157600080fd5b50611232600480360360408110156110f857600080fd5b810190808035906020019064010000000081111561111557600080fd5b82018360208201111561112757600080fd5b8035906020019184600183028401116401000000008311171561114957600080fd5b91908080601f016020809104026020016040519081016040528093929190818152602001838380828437600081840152601f19601f820116905080830192505050505050509192919290803590602001906401000000008111156111ac57600080fd5b8201836020820111156111be57600080fd5b803590602001918460018302840111640100000000831117156111e057600080fd5b91908080601f016020809104026020016040519081016040528093929190818152602001838380828437600081840152601f19601f8201169050808301925050505050505091929192905050506128ab565b60405180827bffffffffffffffffffffffffffffffffffffffffffffffffffffffff19167bffffffffffffffffffffffffffffffffffffffffffffffffffffffff1916815260200191505060405180910390f35b34801561129257600080fd5b50611380600480360360808110156112a957600080fd5b8101908080359060200190929190803573ffffffffffffffffffffffffffffffffffffffff16906020019092919080359060200190929190803590602001906401000000008111156112fa57600080fd5b82018360208201111561130c57600080fd5b8035906020019184600183028401116401000000008311171561132e57600080fd5b91908080601f016020809104026020016040519081016040528093929190818152602001838380828437600081840152601f19601f8201169050808301925050505050505091929192905050506129f6565b6040518080602001828103825283818151815260200191508051906020019080838360005b838110156113c05780820151818401526020810190506113a5565b50505050905090810190601f1680156113ed5780820380516001836020036101000a031916815260200191505b509250505060405180910390f35b34801561140757600080fd5b50611596600480360360c081101561141e57600080fd5b81019080803573ffffffffffffffffffffffffffffffffffffffff1690602001909291908035906020019064010000000081111561145b57600080fd5b82018360208201111561146d57600080fd5b8035906020019184600183028401116401000000008311171561148f57600080fd5b91908080601f016020809104026020016040519081016040528093929190818152602001838380828437600081840152601f19601f8201169050808301925050505050505091929192908035906020019092919080359060200190929190803590602001909291908035906020019064010000000081111561151057600080fd5b82018360208201111561152257600080fd5b8035906020019184600183028401116401000000008311171561154457600080fd5b91908080601f016020809104026020016040519081016040528093929190818152602001838380828437600081840152601f19601f820116905080830192505050505050509192919290505050612a17565b6040518080602001828103825283818151815260200191508051906020019080838360005b838110156115d65780820151818401526020810190506115bb565b50505050905090810190601f1680156116035780820380516001836020036101000a031916815260200191505b509250505060405180910390f35b34801561161d57600080fd5b506116606004803603602081101561163457600080fd5b81019080803573ffffffffffffffffffffffffffffffffffffffff169060200190929190505050612bd0565b6040518082815260200191505060405180910390f35b34801561168257600080fd5b506117396004803603602081101561169957600080fd5b81019080803590602001906401000000008111156116b657600080fd5b8201836020820111156116c857600080fd5b803590602001918460208302840111640100000000831117156116ea57600080fd5b919080806020026020016040519081016040528093929190818152602001838360200280828437600081840152601f19601f820116905080830192505050505050509192919290505050612be8565b005b34801561174757600080fd5b506118216004803603604081101561175e57600080fd5b81019080803573ffffffffffffffffffffffffffffffffffffffff1690602001909291908035906020019064010000000081111561179b57600080fd5b8201836020820111156117ad57600080fd5b803590602001918460018302840111640100000000831117156117cf57600080fd5b91908080601f016020809104026020016040519081016040528093929190818152602001838380828437600081840152601f19601f820116905080830192505050505050509192919290505050612c2d565b604051808215151515815260200191505060405180910390f35b61184433612cfe565b603560008273ffffffffffffffffffffffffffffffffffffffff1673ffffffffffffffffffffffffffffffffffffffff16815260200190815260200160002060009054906101000a900460ff1615611904576040517f08c379a00000000000000000000000000000000000000000000000000000000081526004018080602001828103825260168152602001807f41757468206b657920616c72656164792061646465640000000000000000000081525060200191505060405180910390fd5b6001603560008373ffffffffffffffffffffffffffffffffffffffff1673ffffffffffffffffffffffffffffffffffffffff16815260200190815260200160002060006101000a81548160ff02191690831515021790555060338190806001815401808255809150509060018203906000526020600020016000909192909190916101000a81548173ffffffffffffffffffffffffffffffffffffffff021916908373ffffffffffffffffffffffffffffffffffffffff16021790555050600160338054905003603460008373ffffffffffffffffffffffffffffffffffffffff1673ffffffffffffffffffffffffffffffffffffffff168152602001908152602001600020819055508073ffffffffffffffffffffffffffffffffffffffff167f9e46251f3febb4bf40cf64591f0efc1d6ac8a9f0b8900b2adaeb83227757058860405160405180910390a250565b611a5d33612cfe565b60008090505b8151811015611a9557611a88828281518110611a7b57fe5b60200260200101516123cb565b8080600101915050611a63565b5050565b505050565b6000604182511415611abb57611ab48383611b5e565b9050611b44565b608282511415611ad657611acf83836128ab565b9050611b44565b6040517f08c379a000000000000000000000000000000000000000000000000000000000815260040180806020018281038252601a8152602001807f496e76616c6964205f7369676e617475726573206c656e67746800000000000081525060200191505060405180910390fd5b92915050565b6000620151804281611b5857fe5b06905090565b600080611b7c83611b6e86612dfd565b612efc90919063ffffffff16565b9050603560008273ffffffffffffffffffffffffffffffffffffffff1673ffffffffffffffffffffffffffffffffffffffff16815260200190815260200160002060009054906101000a900460ff1615611be0576320c13b0b60e01b915050611bec565b63ffffffff60e01b9150505b92915050565b600060019054906101000a900460ff1680611c115750611c10613000565b5b80611c2857506000809054906101000a900460ff16155b611c7d576040517f08c379a000000000000000000000000000000000000000000000000000000000815260040180806020018281038252602e815260200180613a72602e913960400191505060405180910390fd5b60008060019054906101000a900460ff161590508015611ccd576001600060016101000a81548160ff02191690831515021790555060016000806101000a81548160ff0219169083151502179055505b611cd5613011565b611cdd6120f3565b6001603560008673ffffffffffffffffffffffffffffffffffffffff1673ffffffffffffffffffffffffffffffffffffffff16815260200190815260200160002060006101000a81548160ff02191690831515021790555060338490806001815401808255809150509060018203906000526020600020016000909192909190916101000a81548173ffffffffffffffffffffffffffffffffffffffff021916908373ffffffffffffffffffffffffffffffffffffffff16021790555050600160338054905003603460008673ffffffffffffffffffffffffffffffffffffffff1673ffffffffffffffffffffffffffffffffffffffff168152602001908152602001600020819055508373ffffffffffffffffffffffffffffffffffffffff167f9e46251f3febb4bf40cf64591f0efc1d6ac8a9f0b8900b2adaeb83227757058860405160405180910390a28273ffffffffffffffffffffffffffffffffffffffff16631e59c52983306040518363ffffffff1660e01b815260040180806020018373ffffffffffffffffffffffffffffffffffffffff1673ffffffffffffffffffffffffffffffffffffffff168152602001828103825284818151815260200191508051906020019080838360005b83811015611ec9578082015181840152602081019050611eae565b50505050905090810190601f168015611ef65780820380516001836020036101000a031916815260200191505b509350505050600060405180830381600087803b158015611f1657600080fd5b505af1158015611f2a573d6000803e3d6000fd5b505050508015611f4f5760008060016101000a81548160ff0219169083151502179055505b50505050565b600080611f6b8486612efc90919063ffffffff16565b90506000611fcd82604051602001808273ffffffffffffffffffffffffffffffffffffffff1673ffffffffffffffffffffffffffffffffffffffff1660601b815260140191505060405160208183030381529060405280519060200120613118565b90506000611fe48583612efc90919063ffffffff16565b9050611fef81612cfe565b8293505050509392505050565b60356020528060005260406000206000915054906101000a900460ff1681565b61202533612cfe565b805182511461209c576040517f08c379a000000000000000000000000000000000000000000000000000000000815260040180806020018281038252601d8152602001807f496e70757420617272617973206e6f7420657175616c206c656e67746800000081525060200191505060405180910390fd5b60008090505b82518110156120e8576120db8382815181106120ba57fe5b60200260200101518383815181106120ce57fe5b602002602001015161261a565b80806001019150506120a2565b505050565b60385481565b600060019054906101000a900460ff16806121125750612111613000565b5b8061212957506000809054906101000a900460ff16155b61217e576040517f08c379a000000000000000000000000000000000000000000000000000000000815260040180806020018281038252602e815260200180613a72602e913960400191505060405180910390fd5b60008060019054906101000a900460ff1615905080156121ce576001600060016101000a81548160ff02191690831515021790555060016000806101000a81548160ff0219169083151502179055505b678ac7230489e8000060388190555080156121fe5760008060016101000a81548160ff0219169083151502179055505b50565b60375481565b606060005a905061221787613170565b6000612395306000357fffffffff00000000000000000000000000000000000000000000000000000000166037548d8d8d8d3a8e604051602001808a73ffffffffffffffffffffffffffffffffffffffff1673ffffffffffffffffffffffffffffffffffffffff1660601b8152601401897bffffffffffffffffffffffffffffffffffffffffffffffffffffffff19167bffffffffffffffffffffffffffffffffffffffffffffffffffffffff191681526004018881526020018773ffffffffffffffffffffffffffffffffffffffff1673ffffffffffffffffffffffffffffffffffffffff1660601b815260140186805190602001908083835b602083106123355780518252602082019150602081019050602083039250612312565b6001836020036101000a038019825116818451168082178552505050505050905001858152602001848152602001838152602001828152602001995050505050505050505060405160208183030381529060405280519060200120613118565b905060006123a4828787611f55565b905060606123b7898d8c8e3a8d8a613234565b905080945050505050979650505050505050565b6123d433612cfe565b603560008273ffffffffffffffffffffffffffffffffffffffff1673ffffffffffffffffffffffffffffffffffffffff16815260200190815260200160002060009054906101000a900460ff16612493576040517f08c379a00000000000000000000000000000000000000000000000000000000081526004018080602001828103825260168152602001807f41757468206b6579206e6f74207965742061646465640000000000000000000081525060200191505060405180910390fd5b600161249d612845565b11612510576040517f08c379a000000000000000000000000000000000000000000000000000000000815260040180806020018281038252601b8152602001807f43616e6e6f742072656d6f7665206c6173742061757468206b6579000000000081525060200191505060405180910390fd5b6000603560008373ffffffffffffffffffffffffffffffffffffffff1673ffffffffffffffffffffffffffffffffffffffff16815260200190815260200160002060006101000a81548160ff02191690831515021790555061257181613277565b6000603460008373ffffffffffffffffffffffffffffffffffffffff1673ffffffffffffffffffffffffffffffffffffffff168152602001908152602001600020819055508073ffffffffffffffffffffffffffffffffffffffff167f24a1d50afe4670e7a657fa10322b233e347dc26799afb2d72147a679e693f31f60405160405180910390a250565b60396020528060005260406000206000915090505481565b60365481565b603560008373ffffffffffffffffffffffffffffffffffffffff1673ffffffffffffffffffffffffffffffffffffffff16815260200190815260200160002060009054906101000a900460ff166126d9576040517f08c379a000000000000000000000000000000000000000000000000000000000815260040180806020018281038252601b8152602001807f4f6c642061757468206b657920646f6573206e6f74206578697374000000000081525060200191505060405180910390fd5b603560008273ffffffffffffffffffffffffffffffffffffffff1673ffffffffffffffffffffffffffffffffffffffff16815260200190815260200160002060009054906101000a900460ff1615612799576040517f08c379a000000000000000000000000000000000000000000000000000000000815260040180806020018281038252601b8152602001807f4e65772061757468206b657920616c726561647920657869737473000000000081525060200191505060405180910390fd5b6127a28161183b565b6127ab826123cb565b8073ffffffffffffffffffffffffffffffffffffffff168273ffffffffffffffffffffffffffffffffffffffff167f084d1bb6d163e102e9e0ca9dcb761e37f325346ac27c1d8bbfb23c105ffba70660405160405180910390a35050565b6033818154811061281657fe5b906000526020600020016000915054906101000a900473ffffffffffffffffffffffffffffffffffffffff1681565b6000603380549050905090565b61285b33612cfe565b806038819055506038543373ffffffffffffffffffffffffffffffffffffffff167fca0b3dabefdbd8c72c0a9cf4a6e9d107da897abf036ef3f3f3b010cdd259415960405160405180910390a350565b600060606128c660006041856133cb9092919063ffffffff16565b905060606128e0604180866133cb9092919063ffffffff16565b905060006128ff836128f188612dfd565b612efc90919063ffffffff16565b9050600061296182604051602001808273ffffffffffffffffffffffffffffffffffffffff1673ffffffffffffffffffffffffffffffffffffffff1660601b815260140191505060405160208183030381529060405280519060200120613118565b905060006129788483612efc90919063ffffffff16565b9050603560008273ffffffffffffffffffffffffffffffffffffffff1673ffffffffffffffffffffffffffffffffffffffff16815260200190815260200160002060009054906101000a900460ff16156129e0576320c13b0b60e01b955050505050506129f0565b63ffffffff60e01b955050505050505b92915050565b6060612a0133612cfe565b612a0d85858585613457565b9050949350505050565b606060005a90506000612b9c306000357fffffffff00000000000000000000000000000000000000000000000000000000166037548c8c8c8c3a8d604051602001808a73ffffffffffffffffffffffffffffffffffffffff1673ffffffffffffffffffffffffffffffffffffffff1660601b8152601401897bffffffffffffffffffffffffffffffffffffffffffffffffffffffff19167bffffffffffffffffffffffffffffffffffffffffffffffffffffffff191681526004018881526020018773ffffffffffffffffffffffffffffffffffffffff1673ffffffffffffffffffffffffffffffffffffffff1660601b815260140186805190602001908083835b60208310612b3c5780518252602082019150602081019050602083039250612b19565b6001836020036101000a038019825116818451168082178552505050505050905001858152602001848152602001838152602001828152602001995050505050505050505060405160208183030381529060405280519060200120613118565b90506000612baa82866135f9565b90506060612bbd888c8b8d3a8c8a613234565b9050809450505050509695505050505050565b60346020528060005260406000206000915090505481565b612bf133612cfe565b60008090505b8151811015612c2957612c1c828281518110612c0f57fe5b602002602001015161183b565b8080600101915050612bf7565b5050565b600080612c8e84604051602001808273ffffffffffffffffffffffffffffffffffffffff1673ffffffffffffffffffffffffffffffffffffffff1660601b815260140191505060405160208183030381529060405280519060200120613118565b90506000612ca58483612efc90919063ffffffff16565b9050603560008273ffffffffffffffffffffffffffffffffffffffff1673ffffffffffffffffffffffffffffffffffffffff16815260200190815260200160002060009054906101000a900460ff169250505092915050565b60011515603560008373ffffffffffffffffffffffffffffffffffffffff1673ffffffffffffffffffffffffffffffffffffffff16815260200190815260200160002060009054906101000a900460ff1615151480612d8857503073ffffffffffffffffffffffffffffffffffffffff163373ffffffffffffffffffffffffffffffffffffffff16145b612dfa576040517f08c379a00000000000000000000000000000000000000000000000000000000081526004018080602001828103825260138152602001807f41757468206b657920697320696e76616c69640000000000000000000000000081525060200191505060405180910390fd5b50565b6000612e098251613624565b8260405160200180807f19457468657265756d205369676e6564204d6573736167653a0a000000000000815250601a0183805190602001908083835b60208310612e685780518252602082019150602081019050602083039250612e45565b6001836020036101000a03801982511681845116808217855250505050505090500182805190602001908083835b60208310612eb95780518252602082019150602081019050602083039250612e96565b6001836020036101000a03801982511681845116808217855250505050505090500192505050604051602081830303815290604052805190602001209050919050565b60006041825114612f105760009050612ffa565b60008060006020850151925060408501519150606085015160001a90507f7fffffffffffffffffffffffffffffff5d576e7357a4501ddfe92f46681b20a08260001c1115612f645760009350505050612ffa565b601b8160ff1614158015612f7c5750601c8160ff1614155b15612f8d5760009350505050612ffa565b60018682858560405160008152602001604052604051808581526020018460ff1660ff1681526020018381526020018281526020019450505050506020604051602081039080840390855afa158015612fea573d6000803e3d6000fd5b5050506020604051035193505050505b92915050565b600080303b90506000811491505090565b600060019054906101000a900460ff1680613030575061302f613000565b5b8061304757506000809054906101000a900460ff16155b61309c576040517f08c379a000000000000000000000000000000000000000000000000000000000815260040180806020018281038252602e815260200180613a72602e913960400191505060405180910390fd5b60008060019054906101000a900460ff1615905080156130ec576001600060016101000a81548160ff02191690831515021790555060016000806101000a81548160ff0219169083151502179055505b600160378190555080156131155760008060016101000a81548160ff0219169083151502179055505b50565b60008160405160200180807f19457468657265756d205369676e6564204d6573736167653a0a333200000000815250601c01828152602001915050604051602081830303815290604052805190602001209050919050565b600061317a611b4a565b9050600082603960008481526020019081526020016000205401905060385481111561320e576040517f08c379a00000000000000000000000000000000000000000000000000000000081526004018080602001828103825260138152602001807f4461696c79206c696d697420726561636865640000000000000000000000000081525060200191505060405180910390fd5b826039600084815260200190815260200160002060008282540192505081905550505050565b60608061324389898989613457565b9050600061325a5a8561375790919063ffffffff16565b90506132678187876137e0565b8192505050979650505050505050565b6000603460008373ffffffffffffffffffffffffffffffffffffffff1673ffffffffffffffffffffffffffffffffffffffff16815260200190815260200160002054905060008190505b60016033805490500381101561336e57603360018201815481106132e157fe5b9060005260206000200160009054906101000a900473ffffffffffffffffffffffffffffffffffffffff166033828154811061331957fe5b9060005260206000200160006101000a81548173ffffffffffffffffffffffffffffffffffffffff021916908373ffffffffffffffffffffffffffffffffffffffff16021790555080806001019150506132c1565b5060336001603380549050038154811061338457fe5b9060005260206000200160006101000a81549073ffffffffffffffffffffffffffffffffffffffff021916905560338054809190600190036133c691906139ff565b505050565b6060818301845110156133dd57600080fd5b60608215600081146133fa5760405191506020820160405261344b565b6040519150601f8416801560200281840101858101878315602002848b0101015b81831015613438578051835260208301925060208101905061341b565b50868552601f19601f8301166040525050505b50809150509392505050565b606060365485146134d0576040517f08c379a000000000000000000000000000000000000000000000000000000000815260040180806020018281038252600f8152602001807f496e636f7272656374206e6f6e6365000000000000000000000000000000000081525060200191505060405180910390fd5b603660008154809291906001019190505550600060608573ffffffffffffffffffffffffffffffffffffffff1685856040518082805190602001908083835b60208310613532578051825260208201915060208101905060208303925061350f565b6001836020036101000a03801982511681845116808217855250505050505090500191505060006040518083038185875af1925050503d8060008114613594576040519150601f19603f3d011682016040523d82523d6000602084013e613599565b606091505b5091509150816135ec5760006135b1888888886138b4565b90507fe22e3683fe845a34c5adea424d0beb84895f513ea06745002d9d65f90100591a816040518082815260200191505060405180910390a1505b8092505050949350505050565b60008061360f8385612efc90919063ffffffff16565b905061361a81612cfe565b8091505092915050565b6060600082141561366c576040518060400160405280600181526020017f30000000000000000000000000000000000000000000000000000000000000008152509050613752565b6000829050600083905060005b6000821461369b578080600101915050600a828161369357fe5b049150613679565b6060816040519080825280601f01601f1916602001820160405280156136d05781602001600182028038833980820191505090505b50905060006001830390505b6000851461374957600a85816136ee57fe5b0660300160f81b8282806001900393508151811061370857fe5b60200101907effffffffffffffffffffffffffffffffffffffffffffffffffffffffffffff1916908160001a905350600a858161374157fe5b0494506136dc565b81955050505050505b919050565b6000828211156137cf576040517f08c379a000000000000000000000000000000000000000000000000000000000815260040180806020018281038252601e8152602001807f536166654d6174683a207375627472616374696f6e206f766572666c6f77000081525060200191505060405180910390fd5b600082840390508091505092915050565b80831115613856576040517f08c379a000000000000000000000000000000000000000000000000000000000815260040180806020018281038252601b8152602001807f496e73756666696369656e742067617320666f7220726566756e64000000000081525060200191505060405180910390fd5b3373ffffffffffffffffffffffffffffffffffffffff166108fc613883848661397990919063ffffffff16565b9081150290604051600060405180830381858888f193505050501580156138ae573d6000803e3d6000fd5b50505050565b600084848484604051602001808581526020018473ffffffffffffffffffffffffffffffffffffffff1673ffffffffffffffffffffffffffffffffffffffff1660601b815260140183815260200182805190602001908083835b60208310613931578051825260208201915060208101905060208303925061390e565b6001836020036101000a038019825116818451168082178552505050505050905001945050505050604051602081830303815290604052805190602001209050949350505050565b60008083141561398c57600090506139f9565b600082840290508284828161399d57fe5b04146139f4576040517f08c379a0000000000000000000000000000000000000000000000000000000008152600401808060200182810382526021815260200180613a516021913960400191505060405180910390fd5b809150505b92915050565b815481835581811115613a2657818360005260206000209182019101613a259190613a2b565b5b505050565b613a4d91905b80821115613a49576000816000905550600101613a31565b5090565b9056fe536166654d6174683a206d756c7469706c69636174696f6e206f766572666c6f77436f6e747261637420696e7374616e63652068617320616c7265616479206265656e20696e697469616c697a6564a165627a7a72305820805624913d2937e6762c4233b496b3d6d399f06fd5adb5a771c12986682e3e280029",
  "source": "pragma solidity ^0.5.8;\n\nimport \"./Account.sol\";\nimport \"./LoginKeyMetaTxAccount.sol\";\nimport \"./AuthKeyMetaTxAccount.sol\";\n\n/**\n * AuthereumENSManager interface.\n */\ncontract AuthereumENSManager {\n    function register(string calldata _label, address _owner) external {}\n}\n\ncontract AuthereumAccount is Account, AuthKeyMetaTxAccount, LoginKeyMetaTxAccount, AuthereumENSManager {\n\n    /// @dev Initialize the Authereum Account\n    /// @param _authKey authKey that will own this account\n    /// @param _authereumENSManager Address of the Authereum ENS Manager\n    /// @param _label Label of the ENS name\n    function initialize(\n        address _authKey,\n        address _authereumENSManager,\n        string memory _label\n    )\n        public\n        initializer\n    {\n        // Set the CHAIN_ID\n        Account.initialize();\n        TransactionLimit.initialize();\n\n        // Add self as an authKey\n        authKeys[_authKey] = true;\n        authKeysArray.push(_authKey);\n        authKeysArrayIndex[_authKey] = authKeysArray.length - 1;\n        emit AddedAuthKey(_authKey);\n\n        // Register user in ENS\n        AuthereumENSManager(_authereumENSManager).register(_label, address(this));\n    }\n}\n",
  "sourcePath": "/Users/sh/Dev/authereumorg/authereum/monorepo/packages/contracts/contracts/account/AuthereumAccount.sol",
  "compiler": {
    "name": "solc",
    "version": "0.5.8+commit.23d335f2.Emscripten.clang"
  },
  "schemaVersion": "3.0.11",
  "updatedAt": "2019-08-03T02:41:48.270Z",
  "devdoc": {
    "methods": {
      "addAuthKey(address)": {
        "details": "Add an auth key to the list of auth keys",
        "params": {
          "_authKey": "Address of the auth key to add"
        }
      },
      "addMultipleAuthKeys(address[])": {
        "details": "Add multiple auth keys to the list of auth keys",
        "params": {
          "_authKeys": "Array of addresses to add to the auth keys list"
        }
      },
      "changeDailyLimit(uint256)": {
        "details": "Change the daily limit for a user_newDailyLimit New daily limit to set"
      },
      "executeAuthKeyMetaTx(address,bytes,uint256,uint256,uint256,bytes)": {
        "details": "Execute an authKey meta transaction",
        "params": {
          "_data": "Data of the transaction",
          "_destination": "Destination of the transaction",
          "_gasLimit": "Gas limit of the transaction",
          "_nonce": "Nonce of the transaction",
          "_transactionDataSignature": "Signed tx data",
          "_value": "Value of the transaction"
        }
      },
      "executeLoginKeyMetaTx(address,bytes,uint256,uint256,uint256,bytes,bytes)": {
        "details": "Execute an loginKey meta transaction",
        "params": {
          "_data": "Data of the transaction",
          "_destination": "Destination of the transaction",
          "_gasLimit": "Gas limit of the transaction",
          "_loginKeyAuthorizationSignature": "Signed loginKey",
          "_nonce": "Nonce of the transaction",
          "_transactionDataSignature": "Signed tx data",
          "_value": "Value of the transaction"
        }
      },
      "executeTransaction(uint256,address,uint256,bytes)": {
        "details": "Execute a transaction",
        "params": {
          "_data": "Data of the transaction",
          "_destination": "Destination of the transaction",
          "_nonce": "Nonce of the transaction",
          "_value": "Value of the transaction"
        }
      },
      "getAuthKeysArrayLength()": {
        "details": "Return the length of the authKeysArray"
      },
      "getCurrentDay()": {
        "details": "Sets the current day for the contract"
      },
      "initialize(address,address,string)": {
        "details": "Initialize the Authereum Account",
        "params": {
          "_authKey": "authKey that will own this account",
          "_authereumENSManager": "Address of the Authereum ENS Manager",
          "_label": "Label of the ENS name"
        }
      },
      "isValidLoginKey(address,bytes)": {
        "details": "Check if a loginKey is valid",
        "params": {
          "_loginKeyAuthorizationSignature": "Signed loginKey",
          "transactionDataSigner": "loginKey that signed the tx data"
        }
      },
      "removeAuthKey(address)": {
        "details": "Remove an auth key from the list of auth keys",
        "params": {
          "_authKey": "Address of the auth key to remove"
        }
      },
      "removeMultipleAuthKeys(address[])": {
        "details": "Remove multiple auth keys to the list of auth keys",
        "params": {
          "_authKeys": "Array of addresses to remove to the auth keys list"
        }
      },
      "swapAuthKeys(address,address)": {
        "details": "Swap one authKey for a non-authKey",
        "params": {
          "_newAuthKey": "A non-existing authKey",
          "_oldAuthKey": "An existing authKey"
        }
      },
      "swapMultipleAuthKeys(address[],address[])": {
        "details": "Swap multiple auth keys to the list of auth keys",
        "params": {
          "_newAuthKeys": "Array of addresses to add to the auth keys list",
          "_oldAuthKeys": "Array of addresses to remove to the auth keys list"
        }
      },
      "validateLoginKeyMetaTxSigs(bytes32,bytes,bytes)": {
        "details": "Validate signatures from an AuthKeyMetaTx",
        "params": {
          "_loginKeyAuthorizationSignature": "Signed loginKey",
          "_transactionDataSignature": "Signed tx data",
          "_txDataMessageHash": "Ethereum signed message of the transaction"
        }
      }
    }
  },
  "userdoc": {
    "methods": {
      "executeTransaction(uint256,address,uint256,bytes)": {
        "notice": "This is to be called directly by an AuthKey"
      },
      "initialize()": {
        "notice": "Public functions"
      }
    }
  }
}