{
  "contractName": "EnsRegistry",
  "abi": [
    {
      "inputs": [],
      "payable": false,
      "stateMutability": "nonpayable",
      "type": "constructor"
    },
    {
      "anonymous": false,
      "inputs": [
        {
          "indexed": true,
          "name": "_node",
          "type": "bytes32"
        },
        {
          "indexed": true,
          "name": "_label",
          "type": "bytes32"
        },
        {
          "indexed": false,
          "name": "_owner",
          "type": "address"
        }
      ],
      "name": "NewOwner",
      "type": "event"
    },
    {
      "anonymous": false,
      "inputs": [
        {
          "indexed": true,
          "name": "_node",
          "type": "bytes32"
        },
        {
          "indexed": false,
          "name": "_owner",
          "type": "address"
        }
      ],
      "name": "Transfer",
      "type": "event"
    },
    {
      "anonymous": false,
      "inputs": [
        {
          "indexed": true,
          "name": "_node",
          "type": "bytes32"
        },
        {
          "indexed": false,
          "name": "_resolver",
          "type": "address"
        }
      ],
      "name": "NewResolver",
      "type": "event"
    },
    {
      "anonymous": false,
      "inputs": [
        {
          "indexed": true,
          "name": "_node",
          "type": "bytes32"
        },
        {
          "indexed": false,
          "name": "_ttl",
          "type": "uint64"
        }
      ],
      "name": "NewTTL",
      "type": "event"
    },
    {
      "constant": true,
      "inputs": [
        {
          "name": "_node",
          "type": "bytes32"
        }
      ],
      "name": "owner",
      "outputs": [
        {
          "name": "",
          "type": "address"
        }
      ],
      "payable": false,
      "stateMutability": "view",
      "type": "function"
    },
    {
      "constant": true,
      "inputs": [
        {
          "name": "_node",
          "type": "bytes32"
        }
      ],
      "name": "resolver",
      "outputs": [
        {
          "name": "",
          "type": "address"
        }
      ],
      "payable": false,
      "stateMutability": "view",
      "type": "function"
    },
    {
      "constant": true,
      "inputs": [
        {
          "name": "_node",
          "type": "bytes32"
        }
      ],
      "name": "ttl",
      "outputs": [
        {
          "name": "",
          "type": "uint64"
        }
      ],
      "payable": false,
      "stateMutability": "view",
      "type": "function"
    },
    {
      "constant": false,
      "inputs": [
        {
          "name": "_node",
          "type": "bytes32"
        },
        {
          "name": "_owner",
          "type": "address"
        }
      ],
      "name": "setOwner",
      "outputs": [],
      "payable": false,
      "stateMutability": "nonpayable",
      "type": "function"
    },
    {
      "constant": false,
      "inputs": [
        {
          "name": "_node",
          "type": "bytes32"
        },
        {
          "name": "_label",
          "type": "bytes32"
        },
        {
          "name": "_owner",
          "type": "address"
        }
      ],
      "name": "setSubnodeOwner",
      "outputs": [],
      "payable": false,
      "stateMutability": "nonpayable",
      "type": "function"
    },
    {
      "constant": false,
      "inputs": [
        {
          "name": "_node",
          "type": "bytes32"
        },
        {
          "name": "_resolver",
          "type": "address"
        }
      ],
      "name": "setResolver",
      "outputs": [],
      "payable": false,
      "stateMutability": "nonpayable",
      "type": "function"
    },
    {
      "constant": false,
      "inputs": [
        {
          "name": "_node",
          "type": "bytes32"
        },
        {
          "name": "_ttl",
          "type": "uint64"
        }
      ],
      "name": "setTTL",
      "outputs": [],
      "payable": false,
      "stateMutability": "nonpayable",
      "type": "function"
    }
  ],
  "bytecode": "0x608060405234801561001057600080fd5b50336000808060001b815260200190815260200160002060000160006101000a81548173ffffffffffffffffffffffffffffffffffffffff021916908373ffffffffffffffffffffffffffffffffffffffff1602179055506109e9806100776000396000f3fe608060405234801561001057600080fd5b506004361061007d5760003560e01c806314ab90381161005b57806314ab9038146101b657806316a25cbd146101f85780631896f70a1461024e5780635b0fc9c31461029c5761007d565b80630178b8bf1461008257806302571be3146100f057806306ab59231461015e575b600080fd5b6100ae6004803603602081101561009857600080fd5b81019080803590602001909291905050506102ea565b604051808273ffffffffffffffffffffffffffffffffffffffff1673ffffffffffffffffffffffffffffffffffffffff16815260200191505060405180910390f35b61011c6004803603602081101561010657600080fd5b8101908080359060200190929190505050610329565b604051808273ffffffffffffffffffffffffffffffffffffffff1673ffffffffffffffffffffffffffffffffffffffff16815260200191505060405180910390f35b6101b46004803603606081101561017457600080fd5b810190808035906020019092919080359060200190929190803573ffffffffffffffffffffffffffffffffffffffff169060200190929190505050610368565b005b6101f6600480360360408110156101cc57600080fd5b8101908080359060200190929190803567ffffffffffffffff169060200190929190505050610515565b005b6102246004803603602081101561020e57600080fd5b810190808035906020019092919050505061065c565b604051808267ffffffffffffffff1667ffffffffffffffff16815260200191505060405180910390f35b61029a6004803603604081101561026457600080fd5b8101908080359060200190929190803573ffffffffffffffffffffffffffffffffffffffff16906020019092919050505061068f565b005b6102e8600480360360408110156102b257600080fd5b8101908080359060200190929190803573ffffffffffffffffffffffffffffffffffffffff169060200190929190505050610806565b005b600080600083815260200190815260200160002060010160009054906101000a900473ffffffffffffffffffffffffffffffffffffffff169050919050565b600080600083815260200190815260200160002060000160009054906101000a900473ffffffffffffffffffffffffffffffffffffffff169050919050565b823373ffffffffffffffffffffffffffffffffffffffff1660008083815260200190815260200160002060000160009054906101000a900473ffffffffffffffffffffffffffffffffffffffff1673ffffffffffffffffffffffffffffffffffffffff1614610422576040517f08c379a000000000000000000000000000000000000000000000000000000000815260040180806020018281038252604081526020018061097e6040913960400191505060405180910390fd5b60008484604051602001808381526020018281526020019250505060405160208183030381529060405280519060200120905083857fce0457fe73731f824cc272376169235128c118b49d344817417c6d108d155e8285604051808273ffffffffffffffffffffffffffffffffffffffff1673ffffffffffffffffffffffffffffffffffffffff16815260200191505060405180910390a38260008083815260200190815260200160002060000160006101000a81548173ffffffffffffffffffffffffffffffffffffffff021916908373ffffffffffffffffffffffffffffffffffffffff1602179055505050505050565b813373ffffffffffffffffffffffffffffffffffffffff1660008083815260200190815260200160002060000160009054906101000a900473ffffffffffffffffffffffffffffffffffffffff1673ffffffffffffffffffffffffffffffffffffffff16146105cf576040517f08c379a000000000000000000000000000000000000000000000000000000000815260040180806020018281038252604081526020018061097e6040913960400191505060405180910390fd5b827f1d4f9bbfc9cab89d66e1a1562f2233ccbf1308cb4f63de2ead5787adddb8fa6883604051808267ffffffffffffffff1667ffffffffffffffff16815260200191505060405180910390a28160008085815260200190815260200160002060010160146101000a81548167ffffffffffffffff021916908367ffffffffffffffff160217905550505050565b600080600083815260200190815260200160002060010160149054906101000a900467ffffffffffffffff169050919050565b813373ffffffffffffffffffffffffffffffffffffffff1660008083815260200190815260200160002060000160009054906101000a900473ffffffffffffffffffffffffffffffffffffffff1673ffffffffffffffffffffffffffffffffffffffff1614610749576040517f08c379a000000000000000000000000000000000000000000000000000000000815260040180806020018281038252604081526020018061097e6040913960400191505060405180910390fd5b827f335721b01866dc23fbee8b6b2c7b1e14d6f05c28cd35a2c934239f94095602a083604051808273ffffffffffffffffffffffffffffffffffffffff1673ffffffffffffffffffffffffffffffffffffffff16815260200191505060405180910390a28160008085815260200190815260200160002060010160006101000a81548173ffffffffffffffffffffffffffffffffffffffff021916908373ffffffffffffffffffffffffffffffffffffffff160217905550505050565b813373ffffffffffffffffffffffffffffffffffffffff1660008083815260200190815260200160002060000160009054906101000a900473ffffffffffffffffffffffffffffffffffffffff1673ffffffffffffffffffffffffffffffffffffffff16146108c0576040517f08c379a000000000000000000000000000000000000000000000000000000000815260040180806020018281038252604081526020018061097e6040913960400191505060405180910390fd5b827fd4735d920b0f87494915f556dd9b54c8f309026070caea5c737245152564d26683604051808273ffffffffffffffffffffffffffffffffffffffff1673ffffffffffffffffffffffffffffffffffffffff16815260200191505060405180910390a28160008085815260200190815260200160002060000160006101000a81548173ffffffffffffffffffffffffffffffffffffffff021916908373ffffffffffffffffffffffffffffffffffffffff16021790555050505056fe454e53546573743a2074686973206d6574686f64206e6565647320746f2062652063616c6c656420627920746865206f776e6572206f6620746865206e6f6465a165627a7a72305820dcf6bef1f90fcfd015148e29ccb77fed6d31e1af953b4ccfa2911e06883d4d230029",
  "source": "pragma solidity ^0.5.8;\n\n/**\n * ENS registry test contract.\n */\ncontract EnsRegistry {\n\n    struct Record {\n        address owner;\n        address resolver;\n        uint64 ttl;\n    }\n\n    mapping(bytes32=>Record) records;\n\n    // Logged when the owner of a node assigns a new owner to a subnode.\n    event NewOwner(bytes32 indexed _node, bytes32 indexed _label, address _owner);\n\n    // Logged when the owner of a node transfers ownership to a new account.\n    event Transfer(bytes32 indexed _node, address _owner);\n\n    // Logged when the resolver for a node changes.\n    event NewResolver(bytes32 indexed _node, address _resolver);\n\n    // Logged when the TTL of a node changes\n    event NewTTL(bytes32 indexed _node, uint64 _ttl);\n\n    // Permits modifications only by the owner of the specified node.\n    modifier only_owner(bytes32 _node) {\n        require(records[_node].owner == msg.sender, \"ENSTest: this method needs to be called by the owner of the node\");\n        _;\n    }\n\n    /**\n     * Constructs a new ENS registrar.\n     */\n    constructor() public {\n        records[bytes32(0)].owner = msg.sender;\n    }\n\n    /**\n     * Returns the address that owns the specified node.\n     */\n    function owner(bytes32 _node) public view returns (address) {\n        return records[_node].owner;\n    }\n\n    /**\n     * Returns the address of the resolver for the specified node.\n     */\n    function resolver(bytes32 _node) public view returns (address) {\n        return records[_node].resolver;\n    }\n\n    /**\n     * Returns the TTL of a node, and any records associated with it.\n     */\n    function ttl(bytes32 _node) public view returns (uint64) {\n        return records[_node].ttl;\n    }\n\n    /**\n     * Transfers ownership of a node to a new address. May only be called by the current\n     * owner of the node.\n     * @param _node The node to transfer ownership of.\n     * @param _owner The address of the new owner.\n     */\n    function setOwner(bytes32 _node, address _owner) public only_owner(_node) {\n        emit Transfer(_node, _owner);\n        records[_node].owner = _owner;\n    }\n\n    /**\n     * Transfers ownership of a subnode sha3(node, label) to a new address. May only be\n     * called by the owner of the parent node.\n     * @param _node The parent node.\n     * @param _label The hash of the label specifying the subnode.\n     * @param _owner The address of the new owner.\n     */\n    function setSubnodeOwner(bytes32 _node, bytes32 _label, address _owner) public only_owner(_node) {\n        bytes32 subnode = keccak256(abi.encodePacked(_node, _label));\n        emit NewOwner(_node, _label, _owner);\n        records[subnode].owner = _owner;\n    }\n\n    /**\n     * Sets the resolver address for the specified node.\n     * @param _node The node to update.\n     * @param _resolver The address of the resolver.\n     */\n    function setResolver(bytes32 _node, address _resolver) public only_owner(_node) {\n        emit NewResolver(_node, _resolver);\n        records[_node].resolver = _resolver;\n    }\n\n    /**\n     * Sets the TTL for the specified node.\n     * @param _node The node to update.\n     * @param _ttl The TTL in seconds.\n     */\n    function setTTL(bytes32 _node, uint64 _ttl) public only_owner(_node) {\n        emit NewTTL(_node, _ttl);\n        records[_node].ttl = _ttl;\n    }\n}\n",
  "sourcePath": "/Users/sh/Dev/authereumorg/authereum/monorepo/packages/contracts/contracts/test/EnsRegistry.sol",
  "compiler": {
    "name": "solc",
    "version": "0.5.8+commit.23d335f2.Emscripten.clang"
  },
  "schemaVersion": "3.0.11",
  "updatedAt": "2019-08-03T02:41:48.294Z",
  "devdoc": {
    "methods": {
      "setOwner(bytes32,address)": {
        "params": {
          "_node": "The node to transfer ownership of.",
          "_owner": "The address of the new owner."
        }
      },
      "setResolver(bytes32,address)": {
        "params": {
          "_node": "The node to update.",
          "_resolver": "The address of the resolver."
        }
      },
      "setSubnodeOwner(bytes32,bytes32,address)": {
        "params": {
          "_label": "The hash of the label specifying the subnode.",
          "_node": "The parent node.",
          "_owner": "The address of the new owner."
        }
      },
      "setTTL(bytes32,uint64)": {
        "params": {
          "_node": "The node to update.",
          "_ttl": "The TTL in seconds."
        }
      }
    }
  },
  "userdoc": {
    "methods": {
      "constructor": "Constructs a new ENS registrar.",
      "owner(bytes32)": {
        "notice": "Returns the address that owns the specified node."
      },
      "resolver(bytes32)": {
        "notice": "Returns the address of the resolver for the specified node."
      },
      "setOwner(bytes32,address)": {
        "notice": "Transfers ownership of a node to a new address. May only be called by the current owner of the node."
      },
      "setResolver(bytes32,address)": {
        "notice": "Sets the resolver address for the specified node."
      },
      "setSubnodeOwner(bytes32,bytes32,address)": {
        "notice": "Transfers ownership of a subnode sha3(node, label) to a new address. May only be called by the owner of the parent node."
      },
      "setTTL(bytes32,uint64)": {
        "notice": "Sets the TTL for the specified node."
      },
      "ttl(bytes32)": {
        "notice": "Returns the TTL of a node, and any records associated with it."
      }
    },
    "notice": "ENS registry test contract."
  }
}