{
  "contractName": "LoginKeyMetaTxAccount",
  "abi": [
    {
      "constant": false,
      "inputs": [
        {
          "name": "_authKey",
          "type": "address"
        }
      ],
      "name": "addAuthKey",
      "outputs": [],
      "payable": false,
      "stateMutability": "nonpayable",
      "type": "function"
    },
    {
      "constant": false,
      "inputs": [
        {
          "name": "_authKeys",
          "type": "address[]"
        }
      ],
      "name": "removeMultipleAuthKeys",
      "outputs": [],
      "payable": false,
      "stateMutability": "nonpayable",
      "type": "function"
    },
    {
      "constant": true,
      "inputs": [
        {
          "name": "_msg",
          "type": "bytes"
        },
        {
          "name": "_signatures",
          "type": "bytes"
        }
      ],
      "name": "isValidSignature",
      "outputs": [
        {
          "name": "",
          "type": "bytes4"
        }
      ],
      "payable": false,
      "stateMutability": "view",
      "type": "function"
    },
    {
      "constant": true,
      "inputs": [],
      "name": "getCurrentDay",
      "outputs": [
        {
          "name": "",
          "type": "uint256"
        }
      ],
      "payable": false,
      "stateMutability": "view",
      "type": "function"
    },
    {
      "constant": true,
      "inputs": [
        {
          "name": "_msg",
          "type": "bytes"
        },
        {
          "name": "_signature",
          "type": "bytes"
        }
      ],
      "name": "isValidAuthKeySignature",
      "outputs": [
        {
          "name": "",
          "type": "bytes4"
        }
      ],
      "payable": false,
      "stateMutability": "view",
      "type": "function"
    },
    {
      "constant": true,
      "inputs": [
        {
          "name": "_txDataMessageHash",
          "type": "bytes32"
        },
        {
          "name": "_transactionDataSignature",
          "type": "bytes"
        },
        {
          "name": "_loginKeyAuthorizationSignature",
          "type": "bytes"
        }
      ],
      "name": "validateLoginKeyMetaTxSigs",
      "outputs": [
        {
          "name": "",
          "type": "address"
        }
      ],
      "payable": false,
      "stateMutability": "view",
      "type": "function"
    },
    {
      "constant": true,
      "inputs": [
        {
          "name": "",
          "type": "address"
        }
      ],
      "name": "authKeys",
      "outputs": [
        {
          "name": "",
          "type": "bool"
        }
      ],
      "payable": false,
      "stateMutability": "view",
      "type": "function"
    },
    {
      "constant": false,
      "inputs": [
        {
          "name": "_oldAuthKeys",
          "type": "address[]"
        },
        {
          "name": "_newAuthKeys",
          "type": "address[]"
        }
      ],
      "name": "swapMultipleAuthKeys",
      "outputs": [],
      "payable": false,
      "stateMutability": "nonpayable",
      "type": "function"
    },
    {
      "constant": true,
      "inputs": [],
      "name": "dailyLimit",
      "outputs": [
        {
          "name": "",
          "type": "uint256"
        }
      ],
      "payable": false,
      "stateMutability": "view",
      "type": "function"
    },
    {
      "constant": false,
      "inputs": [],
      "name": "initialize",
      "outputs": [],
      "payable": false,
      "stateMutability": "nonpayable",
      "type": "function"
    },
    {
      "constant": true,
      "inputs": [],
      "name": "CHAIN_ID",
      "outputs": [
        {
          "name": "",
          "type": "uint256"
        }
      ],
      "payable": false,
      "stateMutability": "view",
      "type": "function"
    },
    {
      "constant": false,
      "inputs": [
        {
          "name": "_authKey",
          "type": "address"
        }
      ],
      "name": "removeAuthKey",
      "outputs": [],
      "payable": false,
      "stateMutability": "nonpayable",
      "type": "function"
    },
    {
      "constant": true,
      "inputs": [
        {
          "name": "",
          "type": "uint256"
        }
      ],
      "name": "dailyLimitTracker",
      "outputs": [
        {
          "name": "",
          "type": "uint256"
        }
      ],
      "payable": false,
      "stateMutability": "view",
      "type": "function"
    },
    {
      "constant": true,
      "inputs": [],
      "name": "nonce",
      "outputs": [
        {
          "name": "",
          "type": "uint256"
        }
      ],
      "payable": false,
      "stateMutability": "view",
      "type": "function"
    },
    {
      "constant": false,
      "inputs": [
        {
          "name": "_oldAuthKey",
          "type": "address"
        },
        {
          "name": "_newAuthKey",
          "type": "address"
        }
      ],
      "name": "swapAuthKeys",
      "outputs": [],
      "payable": false,
      "stateMutability": "nonpayable",
      "type": "function"
    },
    {
      "constant": true,
      "inputs": [
        {
          "name": "",
          "type": "uint256"
        }
      ],
      "name": "authKeysArray",
      "outputs": [
        {
          "name": "",
          "type": "address"
        }
      ],
      "payable": false,
      "stateMutability": "view",
      "type": "function"
    },
    {
      "constant": true,
      "inputs": [],
      "name": "getAuthKeysArrayLength",
      "outputs": [
        {
          "name": "",
          "type": "uint256"
        }
      ],
      "payable": false,
      "stateMutability": "view",
      "type": "function"
    },
    {
      "constant": false,
      "inputs": [
        {
          "name": "_newDailyLimit",
          "type": "uint256"
        }
      ],
      "name": "changeDailyLimit",
      "outputs": [],
      "payable": false,
      "stateMutability": "nonpayable",
      "type": "function"
    },
    {
      "constant": true,
      "inputs": [
        {
          "name": "_msg",
          "type": "bytes"
        },
        {
          "name": "_signatures",
          "type": "bytes"
        }
      ],
      "name": "isValidLoginKeySignature",
      "outputs": [
        {
          "name": "",
          "type": "bytes4"
        }
      ],
      "payable": false,
      "stateMutability": "view",
      "type": "function"
    },
    {
      "constant": false,
      "inputs": [
        {
          "name": "_nonce",
          "type": "uint256"
        },
        {
          "name": "_destination",
          "type": "address"
        },
        {
          "name": "_value",
          "type": "uint256"
        },
        {
          "name": "_data",
          "type": "bytes"
        }
      ],
      "name": "executeTransaction",
      "outputs": [
        {
          "name": "",
          "type": "bytes"
        }
      ],
      "payable": false,
      "stateMutability": "nonpayable",
      "type": "function"
    },
    {
      "constant": true,
      "inputs": [
        {
          "name": "",
          "type": "address"
        }
      ],
      "name": "authKeysArrayIndex",
      "outputs": [
        {
          "name": "",
          "type": "uint256"
        }
      ],
      "payable": false,
      "stateMutability": "view",
      "type": "function"
    },
    {
      "constant": false,
      "inputs": [
        {
          "name": "_authKeys",
          "type": "address[]"
        }
      ],
      "name": "addMultipleAuthKeys",
      "outputs": [],
      "payable": false,
      "stateMutability": "nonpayable",
      "type": "function"
    },
    {
      "payable": true,
      "stateMutability": "payable",
      "type": "fallback"
    },
    {
      "anonymous": false,
      "inputs": [
        {
          "indexed": true,
          "name": "authKey",
          "type": "address"
        },
        {
          "indexed": true,
          "name": "newDailyLimit",
          "type": "uint256"
        }
      ],
      "name": "DailyLimitChanged",
      "type": "event"
    },
    {
      "anonymous": false,
      "inputs": [
        {
          "indexed": true,
          "name": "sender",
          "type": "address"
        },
        {
          "indexed": true,
          "name": "value",
          "type": "uint256"
        }
      ],
      "name": "FundsReceived",
      "type": "event"
    },
    {
      "anonymous": false,
      "inputs": [
        {
          "indexed": true,
          "name": "authKey",
          "type": "address"
        }
      ],
      "name": "AddedAuthKey",
      "type": "event"
    },
    {
      "anonymous": false,
      "inputs": [
        {
          "indexed": true,
          "name": "authKey",
          "type": "address"
        }
      ],
      "name": "RemovedAuthKey",
      "type": "event"
    },
    {
      "anonymous": false,
      "inputs": [
        {
          "indexed": true,
          "name": "oldAuthKey",
          "type": "address"
        },
        {
          "indexed": true,
          "name": "newAuthKey",
          "type": "address"
        }
      ],
      "name": "SwappedAuthKeys",
      "type": "event"
    },
    {
      "anonymous": false,
      "inputs": [
        {
          "indexed": false,
          "name": "encodedData",
          "type": "bytes32"
        }
      ],
      "name": "CallFailed",
      "type": "event"
    },
    {
      "constant": true,
      "inputs": [
        {
          "name": "transactionDataSigner",
          "type": "address"
        },
        {
          "name": "_loginKeyAuthorizationSignature",
          "type": "bytes"
        }
      ],
      "name": "isValidLoginKey",
      "outputs": [
        {
          "name": "",
          "type": "bool"
        }
      ],
      "payable": false,
      "stateMutability": "view",
      "type": "function"
    },
    {
      "constant": false,
      "inputs": [
        {
          "name": "_destination",
          "type": "address"
        },
        {
          "name": "_data",
          "type": "bytes"
        },
        {
          "name": "_value",
          "type": "uint256"
        },
        {
          "name": "_nonce",
          "type": "uint256"
        },
        {
          "name": "_gasLimit",
          "type": "uint256"
        },
        {
          "name": "_transactionDataSignature",
          "type": "bytes"
        },
        {
          "name": "_loginKeyAuthorizationSignature",
          "type": "bytes"
        }
      ],
      "name": "executeLoginKeyMetaTx",
      "outputs": [
        {
          "name": "",
          "type": "bytes"
        }
      ],
      "payable": false,
      "stateMutability": "nonpayable",
      "type": "function"
    }
  ],
  "bytecode": "0x608060405234801561001057600080fd5b50613063806100206000396000f3fe60806040526004361061014b5760003560e01c80639565389e116100b6578063cea086211161006f578063cea0862114610e9b578063d59e3e9814610ed6578063e0eae14d14611087578063ed8fc6b8146111fc578063f399f1dd14611261578063fd54c122146113265761014b565b80639565389e14610cb95780639657b80914610d0a578063affed0e014610d59578063b4c2716414610d84578063bd1a84ab14610df5578063cd11331e14610e705761014b565b80635175ca5e116101085780635175ca5e146107dd5780635b79818f1461084657806367eeba0c1461099f5780638129fc1c146109ca57806385e1f4d0146109e15780638dd1757214610a0c5761014b565b806313f8c578146101915780631704db30146101e257806320c13b0b146102a75780633e6968b61461045857806340914b06146104835780634c477daf14610634575b343373ffffffffffffffffffffffffffffffffffffffff167f8e47b87b0ef542cdfa1659c551d88bad38aa7f452d2bbb349ab7530dfec8be8f60405160405180910390a3005b34801561019d57600080fd5b506101e0600480360360208110156101b457600080fd5b81019080803573ffffffffffffffffffffffffffffffffffffffff169060200190929190505050611426565b005b3480156101ee57600080fd5b506102a56004803603602081101561020557600080fd5b810190808035906020019064010000000081111561022257600080fd5b82018360208201111561023457600080fd5b8035906020019184602083028401116401000000008311171561025657600080fd5b919080806020026020016040519081016040528093929190818152602001838360200280828437600081840152601f19601f82011690508083019250505050505050919291929050505061163f565b005b3480156102b357600080fd5b50610404600480360360408110156102ca57600080fd5b81019080803590602001906401000000008111156102e757600080fd5b8201836020820111156102f957600080fd5b8035906020019184600183028401116401000000008311171561031b57600080fd5b91908080601f016020809104026020016040519081016040528093929190818152602001838380828437600081840152601f19601f8201169050808301925050505050505091929192908035906020019064010000000081111561037e57600080fd5b82018360208201111561039057600080fd5b803590602001918460018302840111640100000000831117156103b257600080fd5b91908080601f016020809104026020016040519081016040528093929190818152602001838380828437600081840152601f19601f820116905080830192505050505050509192919290505050611684565b60405180827bffffffffffffffffffffffffffffffffffffffffffffffffffffffff19167bffffffffffffffffffffffffffffffffffffffffffffffffffffffff1916815260200191505060405180910390f35b34801561046457600080fd5b5061046d611730565b6040518082815260200191505060405180910390f35b34801561048f57600080fd5b506105e0600480360360408110156104a657600080fd5b81019080803590602001906401000000008111156104c357600080fd5b8201836020820111156104d557600080fd5b803590602001918460018302840111640100000000831117156104f757600080fd5b91908080601f016020809104026020016040519081016040528093929190818152602001838380828437600081840152601f19601f8201169050808301925050505050505091929192908035906020019064010000000081111561055a57600080fd5b82018360208201111561056c57600080fd5b8035906020019184600183028401116401000000008311171561058e57600080fd5b91908080601f016020809104026020016040519081016040528093929190818152602001838380828437600081840152601f19601f820116905080830192505050505050509192919290505050611744565b60405180827bffffffffffffffffffffffffffffffffffffffffffffffffffffffff19167bffffffffffffffffffffffffffffffffffffffffffffffffffffffff1916815260200191505060405180910390f35b34801561064057600080fd5b5061079b6004803603606081101561065757600080fd5b81019080803590602001909291908035906020019064010000000081111561067e57600080fd5b82018360208201111561069057600080fd5b803590602001918460018302840111640100000000831117156106b257600080fd5b91908080601f016020809104026020016040519081016040528093929190818152602001838380828437600081840152601f19601f8201169050808301925050505050505091929192908035906020019064010000000081111561071557600080fd5b82018360208201111561072757600080fd5b8035906020019184600183028401116401000000008311171561074957600080fd5b91908080601f016020809104026020016040519081016040528093929190818152602001838380828437600081840152601f19601f8201169050808301925050505050505091929192905050506117d8565b604051808273ffffffffffffffffffffffffffffffffffffffff1673ffffffffffffffffffffffffffffffffffffffff16815260200191505060405180910390f35b3480156107e957600080fd5b5061082c6004803603602081101561080057600080fd5b81019080803573ffffffffffffffffffffffffffffffffffffffff16906020019092919050505061187f565b604051808215151515815260200191505060405180910390f35b34801561085257600080fd5b5061099d6004803603604081101561086957600080fd5b810190808035906020019064010000000081111561088657600080fd5b82018360208201111561089857600080fd5b803590602001918460208302840111640100000000831117156108ba57600080fd5b919080806020026020016040519081016040528093929190818152602001838360200280828437600081840152601f19601f8201169050808301925050505050505091929192908035906020019064010000000081111561091a57600080fd5b82018360208201111561092c57600080fd5b8035906020019184602083028401116401000000008311171561094e57600080fd5b919080806020026020016040519081016040528093929190818152602001838360200280828437600081840152601f19601f82011690508083019250505050505050919291929050505061189f565b005b3480156109ab57600080fd5b506109b4611970565b6040518082815260200191505060405180910390f35b3480156109d657600080fd5b506109df611976565b005b3480156109ed57600080fd5b506109f6611a84565b6040518082815260200191505060405180910390f35b348015610a1857600080fd5b50610c3e600480360360e0811015610a2f57600080fd5b81019080803573ffffffffffffffffffffffffffffffffffffffff16906020019092919080359060200190640100000000811115610a6c57600080fd5b820183602082011115610a7e57600080fd5b80359060200191846001830284011164010000000083111715610aa057600080fd5b91908080601f016020809104026020016040519081016040528093929190818152602001838380828437600081840152601f19601f82011690508083019250505050505050919291929080359060200190929190803590602001909291908035906020019092919080359060200190640100000000811115610b2157600080fd5b820183602082011115610b3357600080fd5b80359060200191846001830284011164010000000083111715610b5557600080fd5b91908080601f016020809104026020016040519081016040528093929190818152602001838380828437600081840152601f19601f82011690508083019250505050505050919291929080359060200190640100000000811115610bb857600080fd5b820183602082011115610bca57600080fd5b80359060200191846001830284011164010000000083111715610bec57600080fd5b91908080601f016020809104026020016040519081016040528093929190818152602001838380828437600081840152601f19601f820116905080830192505050505050509192919290505050611a8a565b6040518080602001828103825283818151815260200191508051906020019080838360005b83811015610c7e578082015181840152602081019050610c63565b50505050905090810190601f168015610cab5780820380516001836020036101000a031916815260200191505b509250505060405180910390f35b348015610cc557600080fd5b50610d0860048036036020811015610cdc57600080fd5b81019080803573ffffffffffffffffffffffffffffffffffffffff169060200190929190505050611c4e565b005b348015610d1657600080fd5b50610d4360048036036020811015610d2d57600080fd5b8101908080359060200190929190505050611e7f565b6040518082815260200191505060405180910390f35b348015610d6557600080fd5b50610d6e611e97565b6040518082815260200191505060405180910390f35b348015610d9057600080fd5b50610df360048036036040811015610da757600080fd5b81019080803573ffffffffffffffffffffffffffffffffffffffff169060200190929190803573ffffffffffffffffffffffffffffffffffffffff169060200190929190505050611e9d565b005b348015610e0157600080fd5b50610e2e60048036036020811015610e1857600080fd5b810190808035906020019092919050505061208c565b604051808273ffffffffffffffffffffffffffffffffffffffff1673ffffffffffffffffffffffffffffffffffffffff16815260200191505060405180910390f35b348015610e7c57600080fd5b50610e856120c8565b6040518082815260200191505060405180910390f35b348015610ea757600080fd5b50610ed460048036036020811015610ebe57600080fd5b81019080803590602001909291905050506120d5565b005b348015610ee257600080fd5b5061103360048036036040811015610ef957600080fd5b8101908080359060200190640100000000811115610f1657600080fd5b820183602082011115610f2857600080fd5b80359060200191846001830284011164010000000083111715610f4a57600080fd5b91908080601f016020809104026020016040519081016040528093929190818152602001838380828437600081840152601f19601f82011690508083019250505050505050919291929080359060200190640100000000811115610fad57600080fd5b820183602082011115610fbf57600080fd5b80359060200191846001830284011164010000000083111715610fe157600080fd5b91908080601f016020809104026020016040519081016040528093929190818152602001838380828437600081840152601f19601f82011690508083019250505050505050919291929050505061212e565b60405180827bffffffffffffffffffffffffffffffffffffffffffffffffffffffff19167bffffffffffffffffffffffffffffffffffffffffffffffffffffffff1916815260200191505060405180910390f35b34801561109357600080fd5b50611181600480360360808110156110aa57600080fd5b8101908080359060200190929190803573ffffffffffffffffffffffffffffffffffffffff16906020019092919080359060200190929190803590602001906401000000008111156110fb57600080fd5b82018360208201111561110d57600080fd5b8035906020019184600183028401116401000000008311171561112f57600080fd5b91908080601f016020809104026020016040519081016040528093929190818152602001838380828437600081840152601f19601f820116905080830192505050505050509192919290505050612279565b6040518080602001828103825283818151815260200191508051906020019080838360005b838110156111c15780820151818401526020810190506111a6565b50505050905090810190601f1680156111ee5780820380516001836020036101000a031916815260200191505b509250505060405180910390f35b34801561120857600080fd5b5061124b6004803603602081101561121f57600080fd5b81019080803573ffffffffffffffffffffffffffffffffffffffff16906020019092919050505061229a565b6040518082815260200191505060405180910390f35b34801561126d57600080fd5b506113246004803603602081101561128457600080fd5b81019080803590602001906401000000008111156112a157600080fd5b8201836020820111156112b357600080fd5b803590602001918460208302840111640100000000831117156112d557600080fd5b919080806020026020016040519081016040528093929190818152602001838360200280828437600081840152601f19601f8201169050808301925050505050505091929192905050506122b2565b005b34801561133257600080fd5b5061140c6004803603604081101561134957600080fd5b81019080803573ffffffffffffffffffffffffffffffffffffffff1690602001909291908035906020019064010000000081111561138657600080fd5b82018360208201111561139857600080fd5b803590602001918460018302840111640100000000831117156113ba57600080fd5b91908080601f016020809104026020016040519081016040528093929190818152602001838380828437600081840152601f19601f8201169050808301925050505050505091929192905050506122f7565b604051808215151515815260200191505060405180910390f35b61142f336123c8565b603560008273ffffffffffffffffffffffffffffffffffffffff1673ffffffffffffffffffffffffffffffffffffffff16815260200190815260200160002060009054906101000a900460ff16156114ef576040517f08c379a00000000000000000000000000000000000000000000000000000000081526004018080602001828103825260168152602001807f41757468206b657920616c72656164792061646465640000000000000000000081525060200191505060405180910390fd5b6001603560008373ffffffffffffffffffffffffffffffffffffffff1673ffffffffffffffffffffffffffffffffffffffff16815260200190815260200160002060006101000a81548160ff02191690831515021790555060338190806001815401808255809150509060018203906000526020600020016000909192909190916101000a81548173ffffffffffffffffffffffffffffffffffffffff021916908373ffffffffffffffffffffffffffffffffffffffff16021790555050600160338054905003603460008373ffffffffffffffffffffffffffffffffffffffff1673ffffffffffffffffffffffffffffffffffffffff168152602001908152602001600020819055508073ffffffffffffffffffffffffffffffffffffffff167f9e46251f3febb4bf40cf64591f0efc1d6ac8a9f0b8900b2adaeb83227757058860405160405180910390a250565b611648336123c8565b60008090505b81518110156116805761167382828151811061166657fe5b6020026020010151611c4e565b808060010191505061164e565b5050565b60006041825114156116a15761169a8383611744565b905061172a565b6082825114156116bc576116b5838361212e565b905061172a565b6040517f08c379a000000000000000000000000000000000000000000000000000000000815260040180806020018281038252601a8152602001807f496e76616c6964205f7369676e617475726573206c656e67746800000000000081525060200191505060405180910390fd5b92915050565b600062015180428161173e57fe5b06905090565b60008061176283611754866124c7565b6125c690919063ffffffff16565b9050603560008273ffffffffffffffffffffffffffffffffffffffff1673ffffffffffffffffffffffffffffffffffffffff16815260200190815260200160002060009054906101000a900460ff16156117c6576320c13b0b60e01b9150506117d2565b63ffffffff60e01b9150505b92915050565b6000806117ee84866125c690919063ffffffff16565b9050600061185082604051602001808273ffffffffffffffffffffffffffffffffffffffff1673ffffffffffffffffffffffffffffffffffffffff1660601b8152601401915050604051602081830303815290604052805190602001206126ca565b9050600061186785836125c690919063ffffffff16565b9050611872816123c8565b8293505050509392505050565b60356020528060005260406000206000915054906101000a900460ff1681565b6118a8336123c8565b805182511461191f576040517f08c379a000000000000000000000000000000000000000000000000000000000815260040180806020018281038252601d8152602001807f496e70757420617272617973206e6f7420657175616c206c656e67746800000081525060200191505060405180910390fd5b60008090505b825181101561196b5761195e83828151811061193d57fe5b602002602001015183838151811061195157fe5b6020026020010151611e9d565b8080600101915050611925565b505050565b60385481565b600060019054906101000a900460ff16806119955750611994612722565b5b806119ac57506000809054906101000a900460ff16155b611a01576040517f08c379a000000000000000000000000000000000000000000000000000000000815260040180806020018281038252602e81526020018061300a602e913960400191505060405180910390fd5b60008060019054906101000a900460ff161590508015611a51576001600060016101000a81548160ff02191690831515021790555060016000806101000a81548160ff0219169083151502179055505b678ac7230489e800006038819055508015611a815760008060016101000a81548160ff0219169083151502179055505b50565b60375481565b606060005a9050611a9a87612733565b6000611c18306000357fffffffff00000000000000000000000000000000000000000000000000000000166037548d8d8d8d3a8e604051602001808a73ffffffffffffffffffffffffffffffffffffffff1673ffffffffffffffffffffffffffffffffffffffff1660601b8152601401897bffffffffffffffffffffffffffffffffffffffffffffffffffffffff19167bffffffffffffffffffffffffffffffffffffffffffffffffffffffff191681526004018881526020018773ffffffffffffffffffffffffffffffffffffffff1673ffffffffffffffffffffffffffffffffffffffff1660601b815260140186805190602001908083835b60208310611bb85780518252602082019150602081019050602083039250611b95565b6001836020036101000a0380198251168184511680821785525050505050509050018581526020018481526020018381526020018281526020019950505050505050505050604051602081830303815290604052805190602001206126ca565b90506000611c278287876117d8565b90506060611c3a898d8c8e3a8d8a6127f7565b905080945050505050979650505050505050565b611c57336123c8565b603560008273ffffffffffffffffffffffffffffffffffffffff1673ffffffffffffffffffffffffffffffffffffffff16815260200190815260200160002060009054906101000a900460ff16611d16576040517f08c379a00000000000000000000000000000000000000000000000000000000081526004018080602001828103825260168152602001807f41757468206b6579206e6f74207965742061646465640000000000000000000081525060200191505060405180910390fd5b6001611d206120c8565b11611d93576040517f08c379a000000000000000000000000000000000000000000000000000000000815260040180806020018281038252601b8152602001807f43616e6e6f742072656d6f7665206c6173742061757468206b6579000000000081525060200191505060405180910390fd5b6000603560008373ffffffffffffffffffffffffffffffffffffffff1673ffffffffffffffffffffffffffffffffffffffff16815260200190815260200160002060006101000a81548160ff021916908315150217905550611df48161283a565b6000603460008373ffffffffffffffffffffffffffffffffffffffff1673ffffffffffffffffffffffffffffffffffffffff168152602001908152602001600020819055508073ffffffffffffffffffffffffffffffffffffffff167f24a1d50afe4670e7a657fa10322b233e347dc26799afb2d72147a679e693f31f60405160405180910390a250565b60396020528060005260406000206000915090505481565b60365481565b603560008373ffffffffffffffffffffffffffffffffffffffff1673ffffffffffffffffffffffffffffffffffffffff16815260200190815260200160002060009054906101000a900460ff16611f5c576040517f08c379a000000000000000000000000000000000000000000000000000000000815260040180806020018281038252601b8152602001807f4f6c642061757468206b657920646f6573206e6f74206578697374000000000081525060200191505060405180910390fd5b603560008273ffffffffffffffffffffffffffffffffffffffff1673ffffffffffffffffffffffffffffffffffffffff16815260200190815260200160002060009054906101000a900460ff161561201c576040517f08c379a000000000000000000000000000000000000000000000000000000000815260040180806020018281038252601b8152602001807f4e65772061757468206b657920616c726561647920657869737473000000000081525060200191505060405180910390fd5b61202581611426565b61202e82611c4e565b8073ffffffffffffffffffffffffffffffffffffffff168273ffffffffffffffffffffffffffffffffffffffff167f084d1bb6d163e102e9e0ca9dcb761e37f325346ac27c1d8bbfb23c105ffba70660405160405180910390a35050565b6033818154811061209957fe5b906000526020600020016000915054906101000a900473ffffffffffffffffffffffffffffffffffffffff1681565b6000603380549050905090565b6120de336123c8565b806038819055506038543373ffffffffffffffffffffffffffffffffffffffff167fca0b3dabefdbd8c72c0a9cf4a6e9d107da897abf036ef3f3f3b010cdd259415960405160405180910390a350565b60006060612149600060418561298e9092919063ffffffff16565b905060606121636041808661298e9092919063ffffffff16565b9050600061218283612174886124c7565b6125c690919063ffffffff16565b905060006121e482604051602001808273ffffffffffffffffffffffffffffffffffffffff1673ffffffffffffffffffffffffffffffffffffffff1660601b8152601401915050604051602081830303815290604052805190602001206126ca565b905060006121fb84836125c690919063ffffffff16565b9050603560008273ffffffffffffffffffffffffffffffffffffffff1673ffffffffffffffffffffffffffffffffffffffff16815260200190815260200160002060009054906101000a900460ff1615612263576320c13b0b60e01b95505050505050612273565b63ffffffff60e01b955050505050505b92915050565b6060612284336123c8565b61229085858585612a1a565b9050949350505050565b60346020528060005260406000206000915090505481565b6122bb336123c8565b60008090505b81518110156122f3576122e68282815181106122d957fe5b6020026020010151611426565b80806001019150506122c1565b5050565b60008061235884604051602001808273ffffffffffffffffffffffffffffffffffffffff1673ffffffffffffffffffffffffffffffffffffffff1660601b8152601401915050604051602081830303815290604052805190602001206126ca565b9050600061236f84836125c690919063ffffffff16565b9050603560008273ffffffffffffffffffffffffffffffffffffffff1673ffffffffffffffffffffffffffffffffffffffff16815260200190815260200160002060009054906101000a900460ff169250505092915050565b60011515603560008373ffffffffffffffffffffffffffffffffffffffff1673ffffffffffffffffffffffffffffffffffffffff16815260200190815260200160002060009054906101000a900460ff161515148061245257503073ffffffffffffffffffffffffffffffffffffffff163373ffffffffffffffffffffffffffffffffffffffff16145b6124c4576040517f08c379a00000000000000000000000000000000000000000000000000000000081526004018080602001828103825260138152602001807f41757468206b657920697320696e76616c69640000000000000000000000000081525060200191505060405180910390fd5b50565b60006124d38251612bbc565b8260405160200180807f19457468657265756d205369676e6564204d6573736167653a0a000000000000815250601a0183805190602001908083835b60208310612532578051825260208201915060208101905060208303925061250f565b6001836020036101000a03801982511681845116808217855250505050505090500182805190602001908083835b602083106125835780518252602082019150602081019050602083039250612560565b6001836020036101000a03801982511681845116808217855250505050505090500192505050604051602081830303815290604052805190602001209050919050565b600060418251146125da57600090506126c4565b60008060006020850151925060408501519150606085015160001a90507f7fffffffffffffffffffffffffffffff5d576e7357a4501ddfe92f46681b20a08260001c111561262e57600093505050506126c4565b601b8160ff16141580156126465750601c8160ff1614155b1561265757600093505050506126c4565b60018682858560405160008152602001604052604051808581526020018460ff1660ff1681526020018381526020018281526020019450505050506020604051602081039080840390855afa1580156126b4573d6000803e3d6000fd5b5050506020604051035193505050505b92915050565b60008160405160200180807f19457468657265756d205369676e6564204d6573736167653a0a333200000000815250601c01828152602001915050604051602081830303815290604052805190602001209050919050565b600080303b90506000811491505090565b600061273d611730565b905060008260396000848152602001908152602001600020540190506038548111156127d1576040517f08c379a00000000000000000000000000000000000000000000000000000000081526004018080602001828103825260138152602001807f4461696c79206c696d697420726561636865640000000000000000000000000081525060200191505060405180910390fd5b826039600084815260200190815260200160002060008282540192505081905550505050565b60608061280689898989612a1a565b9050600061281d5a85612cef90919063ffffffff16565b905061282a818787612d78565b8192505050979650505050505050565b6000603460008373ffffffffffffffffffffffffffffffffffffffff1673ffffffffffffffffffffffffffffffffffffffff16815260200190815260200160002054905060008190505b60016033805490500381101561293157603360018201815481106128a457fe5b9060005260206000200160009054906101000a900473ffffffffffffffffffffffffffffffffffffffff16603382815481106128dc57fe5b9060005260206000200160006101000a81548173ffffffffffffffffffffffffffffffffffffffff021916908373ffffffffffffffffffffffffffffffffffffffff1602179055508080600101915050612884565b5060336001603380549050038154811061294757fe5b9060005260206000200160006101000a81549073ffffffffffffffffffffffffffffffffffffffff021916905560338054809190600190036129899190612f97565b505050565b6060818301845110156129a057600080fd5b60608215600081146129bd57604051915060208201604052612a0e565b6040519150601f8416801560200281840101858101878315602002848b0101015b818310156129fb57805183526020830192506020810190506129de565b50868552601f19601f8301166040525050505b50809150509392505050565b60606036548514612a93576040517f08c379a000000000000000000000000000000000000000000000000000000000815260040180806020018281038252600f8152602001807f496e636f7272656374206e6f6e6365000000000000000000000000000000000081525060200191505060405180910390fd5b603660008154809291906001019190505550600060608573ffffffffffffffffffffffffffffffffffffffff1685856040518082805190602001908083835b60208310612af55780518252602082019150602081019050602083039250612ad2565b6001836020036101000a03801982511681845116808217855250505050505090500191505060006040518083038185875af1925050503d8060008114612b57576040519150601f19603f3d011682016040523d82523d6000602084013e612b5c565b606091505b509150915081612baf576000612b7488888888612e4c565b90507fe22e3683fe845a34c5adea424d0beb84895f513ea06745002d9d65f90100591a816040518082815260200191505060405180910390a1505b8092505050949350505050565b60606000821415612c04576040518060400160405280600181526020017f30000000000000000000000000000000000000000000000000000000000000008152509050612cea565b6000829050600083905060005b60008214612c33578080600101915050600a8281612c2b57fe5b049150612c11565b6060816040519080825280601f01601f191660200182016040528015612c685781602001600182028038833980820191505090505b50905060006001830390505b60008514612ce157600a8581612c8657fe5b0660300160f81b82828060019003935081518110612ca057fe5b60200101907effffffffffffffffffffffffffffffffffffffffffffffffffffffffffffff1916908160001a905350600a8581612cd957fe5b049450612c74565b81955050505050505b919050565b600082821115612d67576040517f08c379a000000000000000000000000000000000000000000000000000000000815260040180806020018281038252601e8152602001807f536166654d6174683a207375627472616374696f6e206f766572666c6f77000081525060200191505060405180910390fd5b600082840390508091505092915050565b80831115612dee576040517f08c379a000000000000000000000000000000000000000000000000000000000815260040180806020018281038252601b8152602001807f496e73756666696369656e742067617320666f7220726566756e64000000000081525060200191505060405180910390fd5b3373ffffffffffffffffffffffffffffffffffffffff166108fc612e1b8486612f1190919063ffffffff16565b9081150290604051600060405180830381858888f19350505050158015612e46573d6000803e3d6000fd5b50505050565b600084848484604051602001808581526020018473ffffffffffffffffffffffffffffffffffffffff1673ffffffffffffffffffffffffffffffffffffffff1660601b815260140183815260200182805190602001908083835b60208310612ec95780518252602082019150602081019050602083039250612ea6565b6001836020036101000a038019825116818451168082178552505050505050905001945050505050604051602081830303815290604052805190602001209050949350505050565b600080831415612f245760009050612f91565b6000828402905082848281612f3557fe5b0414612f8c576040517f08c379a0000000000000000000000000000000000000000000000000000000008152600401808060200182810382526021815260200180612fe96021913960400191505060405180910390fd5b809150505b92915050565b815481835581811115612fbe57818360005260206000209182019101612fbd9190612fc3565b5b505050565b612fe591905b80821115612fe1576000816000905550600101612fc9565b5090565b9056fe536166654d6174683a206d756c7469706c69636174696f6e206f766572666c6f77436f6e747261637420696e7374616e63652068617320616c7265616479206265656e20696e697469616c697a6564a165627a7a72305820c535870f92c5d0d4c886b683be3e293ae871d490aec8bb960f3a9a19d81a163e0029",
  "source": "pragma solidity ^0.5.8;\n\nimport \"./Account.sol\";\nimport \"../firewall/TransactionLimit.sol\";\n\ncontract LoginKeyMetaTxAccount is Account, TransactionLimit {\n\n    /// @dev Check if a loginKey is valid\n    /// @param transactionDataSigner loginKey that signed the tx data\n    /// @param _loginKeyAuthorizationSignature Signed loginKey\n    function isValidLoginKey(\n        address transactionDataSigner,\n        bytes memory _loginKeyAuthorizationSignature\n    )\n        public\n        view\n        returns (bool)\n    {\n        bytes32 loginKeyAuthorizationMessageHash = keccak256(abi.encodePacked(\n            transactionDataSigner\n        )).toEthSignedMessageHash();\n\n        address authorizationSigner = loginKeyAuthorizationMessageHash.recover(\n            _loginKeyAuthorizationSignature\n        );\n\n        return authKeys[authorizationSigner];\n    }\n\n    /// @dev Execute an loginKey meta transaction\n    /// @param _destination Destination of the transaction\n    /// @param _data Data of the transaction\n    /// @param _value Value of the transaction\n    /// @param _nonce Nonce of the transaction\n    /// @param _gasLimit Gas limit of the transaction\n    /// @param _transactionDataSignature Signed tx data\n    /// @param _loginKeyAuthorizationSignature Signed loginKey\n    function executeLoginKeyMetaTx(\n        address _destination,\n        bytes memory _data,\n        uint256 _value,\n        uint256 _nonce,\n        uint256 _gasLimit,\n        bytes memory _transactionDataSignature,\n        bytes memory _loginKeyAuthorizationSignature\n    )\n        public\n        returns (bytes memory)\n    {\n        uint256 startGas = gasleft();\n        checkDailyTransactionLimit(_value);\n\n        bytes32 _txDataMessageHash = keccak256(abi.encodePacked(\n            address(this),\n            msg.sig,\n            CHAIN_ID,\n            _destination,\n            _data,\n            _value,\n            _nonce,\n            tx.gasprice,\n            _gasLimit\n        )).toEthSignedMessageHash();\n\n        address transactionDataSigner = validateLoginKeyMetaTxSigs(\n            _txDataMessageHash, _transactionDataSignature, _loginKeyAuthorizationSignature\n        );\n\n        bytes memory response = _executeTransactionWithRefund(\n            _nonce, _destination, _value, _data, tx.gasprice, _gasLimit, startGas\n        );\n\n        return response;\n    }\n}",
  "sourcePath": "/Users/sh/Dev/authereumorg/authereum/monorepo/packages/contracts/contracts/account/LoginKeyMetaTxAccount.sol",
  "compiler": {
    "name": "solc",
    "version": "0.5.8+commit.23d335f2.Emscripten.clang"
  },
  "schemaVersion": "3.0.11",
  "updatedAt": "2019-08-03T02:41:48.278Z",
  "devdoc": {
    "methods": {
      "addAuthKey(address)": {
        "details": "Add an auth key to the list of auth keys",
        "params": {
          "_authKey": "Address of the auth key to add"
        }
      },
      "addMultipleAuthKeys(address[])": {
        "details": "Add multiple auth keys to the list of auth keys",
        "params": {
          "_authKeys": "Array of addresses to add to the auth keys list"
        }
      },
      "changeDailyLimit(uint256)": {
        "details": "Change the daily limit for a user_newDailyLimit New daily limit to set"
      },
      "executeLoginKeyMetaTx(address,bytes,uint256,uint256,uint256,bytes,bytes)": {
        "details": "Execute an loginKey meta transaction",
        "params": {
          "_data": "Data of the transaction",
          "_destination": "Destination of the transaction",
          "_gasLimit": "Gas limit of the transaction",
          "_loginKeyAuthorizationSignature": "Signed loginKey",
          "_nonce": "Nonce of the transaction",
          "_transactionDataSignature": "Signed tx data",
          "_value": "Value of the transaction"
        }
      },
      "executeTransaction(uint256,address,uint256,bytes)": {
        "details": "Execute a transaction",
        "params": {
          "_data": "Data of the transaction",
          "_destination": "Destination of the transaction",
          "_nonce": "Nonce of the transaction",
          "_value": "Value of the transaction"
        }
      },
      "getAuthKeysArrayLength()": {
        "details": "Return the length of the authKeysArray"
      },
      "getCurrentDay()": {
        "details": "Sets the current day for the contract"
      },
      "isValidLoginKey(address,bytes)": {
        "details": "Check if a loginKey is valid",
        "params": {
          "_loginKeyAuthorizationSignature": "Signed loginKey",
          "transactionDataSigner": "loginKey that signed the tx data"
        }
      },
      "removeAuthKey(address)": {
        "details": "Remove an auth key from the list of auth keys",
        "params": {
          "_authKey": "Address of the auth key to remove"
        }
      },
      "removeMultipleAuthKeys(address[])": {
        "details": "Remove multiple auth keys to the list of auth keys",
        "params": {
          "_authKeys": "Array of addresses to remove to the auth keys list"
        }
      },
      "swapAuthKeys(address,address)": {
        "details": "Swap one authKey for a non-authKey",
        "params": {
          "_newAuthKey": "A non-existing authKey",
          "_oldAuthKey": "An existing authKey"
        }
      },
      "swapMultipleAuthKeys(address[],address[])": {
        "details": "Swap multiple auth keys to the list of auth keys",
        "params": {
          "_newAuthKeys": "Array of addresses to add to the auth keys list",
          "_oldAuthKeys": "Array of addresses to remove to the auth keys list"
        }
      },
      "validateLoginKeyMetaTxSigs(bytes32,bytes,bytes)": {
        "details": "Validate signatures from an AuthKeyMetaTx",
        "params": {
          "_loginKeyAuthorizationSignature": "Signed loginKey",
          "_transactionDataSignature": "Signed tx data",
          "_txDataMessageHash": "Ethereum signed message of the transaction"
        }
      }
    }
  },
  "userdoc": {
    "methods": {
      "executeTransaction(uint256,address,uint256,bytes)": {
        "notice": "This is to be called directly by an AuthKey"
      },
      "initialize()": {
        "notice": "Public functions"
      }
    }
  }
}