{
  "contractName": "TransactionLimit",
  "abi": [
    {
      "constant": false,
      "inputs": [
        {
          "name": "_authKey",
          "type": "address"
        }
      ],
      "name": "addAuthKey",
      "outputs": [],
      "payable": false,
      "stateMutability": "nonpayable",
      "type": "function"
    },
    {
      "constant": false,
      "inputs": [
        {
          "name": "_authKeys",
          "type": "address[]"
        }
      ],
      "name": "removeMultipleAuthKeys",
      "outputs": [],
      "payable": false,
      "stateMutability": "nonpayable",
      "type": "function"
    },
    {
      "constant": true,
      "inputs": [
        {
          "name": "_msg",
          "type": "bytes"
        },
        {
          "name": "_signatures",
          "type": "bytes"
        }
      ],
      "name": "isValidSignature",
      "outputs": [
        {
          "name": "",
          "type": "bytes4"
        }
      ],
      "payable": false,
      "stateMutability": "view",
      "type": "function"
    },
    {
      "constant": true,
      "inputs": [
        {
          "name": "_msg",
          "type": "bytes"
        },
        {
          "name": "_signature",
          "type": "bytes"
        }
      ],
      "name": "isValidAuthKeySignature",
      "outputs": [
        {
          "name": "",
          "type": "bytes4"
        }
      ],
      "payable": false,
      "stateMutability": "view",
      "type": "function"
    },
    {
      "constant": true,
      "inputs": [
        {
          "name": "_txDataMessageHash",
          "type": "bytes32"
        },
        {
          "name": "_transactionDataSignature",
          "type": "bytes"
        },
        {
          "name": "_loginKeyAuthorizationSignature",
          "type": "bytes"
        }
      ],
      "name": "validateLoginKeyMetaTxSigs",
      "outputs": [
        {
          "name": "",
          "type": "address"
        }
      ],
      "payable": false,
      "stateMutability": "view",
      "type": "function"
    },
    {
      "constant": true,
      "inputs": [
        {
          "name": "",
          "type": "address"
        }
      ],
      "name": "authKeys",
      "outputs": [
        {
          "name": "",
          "type": "bool"
        }
      ],
      "payable": false,
      "stateMutability": "view",
      "type": "function"
    },
    {
      "constant": false,
      "inputs": [
        {
          "name": "_oldAuthKeys",
          "type": "address[]"
        },
        {
          "name": "_newAuthKeys",
          "type": "address[]"
        }
      ],
      "name": "swapMultipleAuthKeys",
      "outputs": [],
      "payable": false,
      "stateMutability": "nonpayable",
      "type": "function"
    },
    {
      "constant": true,
      "inputs": [],
      "name": "dailyLimit",
      "outputs": [
        {
          "name": "",
          "type": "uint256"
        }
      ],
      "payable": false,
      "stateMutability": "view",
      "type": "function"
    },
    {
      "constant": true,
      "inputs": [],
      "name": "CHAIN_ID",
      "outputs": [
        {
          "name": "",
          "type": "uint256"
        }
      ],
      "payable": false,
      "stateMutability": "view",
      "type": "function"
    },
    {
      "constant": false,
      "inputs": [
        {
          "name": "_authKey",
          "type": "address"
        }
      ],
      "name": "removeAuthKey",
      "outputs": [],
      "payable": false,
      "stateMutability": "nonpayable",
      "type": "function"
    },
    {
      "constant": true,
      "inputs": [
        {
          "name": "",
          "type": "uint256"
        }
      ],
      "name": "dailyLimitTracker",
      "outputs": [
        {
          "name": "",
          "type": "uint256"
        }
      ],
      "payable": false,
      "stateMutability": "view",
      "type": "function"
    },
    {
      "constant": true,
      "inputs": [],
      "name": "nonce",
      "outputs": [
        {
          "name": "",
          "type": "uint256"
        }
      ],
      "payable": false,
      "stateMutability": "view",
      "type": "function"
    },
    {
      "constant": false,
      "inputs": [
        {
          "name": "_oldAuthKey",
          "type": "address"
        },
        {
          "name": "_newAuthKey",
          "type": "address"
        }
      ],
      "name": "swapAuthKeys",
      "outputs": [],
      "payable": false,
      "stateMutability": "nonpayable",
      "type": "function"
    },
    {
      "constant": true,
      "inputs": [
        {
          "name": "",
          "type": "uint256"
        }
      ],
      "name": "authKeysArray",
      "outputs": [
        {
          "name": "",
          "type": "address"
        }
      ],
      "payable": false,
      "stateMutability": "view",
      "type": "function"
    },
    {
      "constant": true,
      "inputs": [],
      "name": "getAuthKeysArrayLength",
      "outputs": [
        {
          "name": "",
          "type": "uint256"
        }
      ],
      "payable": false,
      "stateMutability": "view",
      "type": "function"
    },
    {
      "constant": true,
      "inputs": [
        {
          "name": "_msg",
          "type": "bytes"
        },
        {
          "name": "_signatures",
          "type": "bytes"
        }
      ],
      "name": "isValidLoginKeySignature",
      "outputs": [
        {
          "name": "",
          "type": "bytes4"
        }
      ],
      "payable": false,
      "stateMutability": "view",
      "type": "function"
    },
    {
      "constant": false,
      "inputs": [
        {
          "name": "_nonce",
          "type": "uint256"
        },
        {
          "name": "_destination",
          "type": "address"
        },
        {
          "name": "_value",
          "type": "uint256"
        },
        {
          "name": "_data",
          "type": "bytes"
        }
      ],
      "name": "executeTransaction",
      "outputs": [
        {
          "name": "",
          "type": "bytes"
        }
      ],
      "payable": false,
      "stateMutability": "nonpayable",
      "type": "function"
    },
    {
      "constant": true,
      "inputs": [
        {
          "name": "",
          "type": "address"
        }
      ],
      "name": "authKeysArrayIndex",
      "outputs": [
        {
          "name": "",
          "type": "uint256"
        }
      ],
      "payable": false,
      "stateMutability": "view",
      "type": "function"
    },
    {
      "constant": false,
      "inputs": [
        {
          "name": "_authKeys",
          "type": "address[]"
        }
      ],
      "name": "addMultipleAuthKeys",
      "outputs": [],
      "payable": false,
      "stateMutability": "nonpayable",
      "type": "function"
    },
    {
      "payable": true,
      "stateMutability": "payable",
      "type": "fallback"
    },
    {
      "anonymous": false,
      "inputs": [
        {
          "indexed": true,
          "name": "authKey",
          "type": "address"
        },
        {
          "indexed": true,
          "name": "newDailyLimit",
          "type": "uint256"
        }
      ],
      "name": "DailyLimitChanged",
      "type": "event"
    },
    {
      "anonymous": false,
      "inputs": [
        {
          "indexed": true,
          "name": "sender",
          "type": "address"
        },
        {
          "indexed": true,
          "name": "value",
          "type": "uint256"
        }
      ],
      "name": "FundsReceived",
      "type": "event"
    },
    {
      "anonymous": false,
      "inputs": [
        {
          "indexed": true,
          "name": "authKey",
          "type": "address"
        }
      ],
      "name": "AddedAuthKey",
      "type": "event"
    },
    {
      "anonymous": false,
      "inputs": [
        {
          "indexed": true,
          "name": "authKey",
          "type": "address"
        }
      ],
      "name": "RemovedAuthKey",
      "type": "event"
    },
    {
      "anonymous": false,
      "inputs": [
        {
          "indexed": true,
          "name": "oldAuthKey",
          "type": "address"
        },
        {
          "indexed": true,
          "name": "newAuthKey",
          "type": "address"
        }
      ],
      "name": "SwappedAuthKeys",
      "type": "event"
    },
    {
      "anonymous": false,
      "inputs": [
        {
          "indexed": false,
          "name": "encodedData",
          "type": "bytes32"
        }
      ],
      "name": "CallFailed",
      "type": "event"
    },
    {
      "constant": false,
      "inputs": [],
      "name": "initialize",
      "outputs": [],
      "payable": false,
      "stateMutability": "nonpayable",
      "type": "function"
    },
    {
      "constant": false,
      "inputs": [
        {
          "name": "_newDailyLimit",
          "type": "uint256"
        }
      ],
      "name": "changeDailyLimit",
      "outputs": [],
      "payable": false,
      "stateMutability": "nonpayable",
      "type": "function"
    },
    {
      "constant": true,
      "inputs": [],
      "name": "getCurrentDay",
      "outputs": [
        {
          "name": "",
          "type": "uint256"
        }
      ],
      "payable": false,
      "stateMutability": "view",
      "type": "function"
    }
  ],
  "bytecode": "0x608060405234801561001057600080fd5b50612700806100206000396000f3fe6080604052600436106101355760003560e01c80639565389e116100ab578063cd11331e1161006f578063cd11331e14610bad578063cea0862114610bd8578063d59e3e9814610c13578063e0eae14d14610dc4578063ed8fc6b814610f39578063f399f1dd14610f9e57610135565b80639565389e146109f65780639657b80914610a47578063affed0e014610a96578063b4c2716414610ac1578063bd1a84ab14610b3257610135565b80634c477daf116100fd5780634c477daf1461061e5780635175ca5e146107c75780635b79818f1461083057806367eeba0c146109895780638129fc1c146109b457806385e1f4d0146109cb57610135565b806313f8c5781461017b5780631704db30146101cc57806320c13b0b146102915780633e6968b61461044257806340914b061461046d575b343373ffffffffffffffffffffffffffffffffffffffff167f8e47b87b0ef542cdfa1659c551d88bad38aa7f452d2bbb349ab7530dfec8be8f60405160405180910390a3005b34801561018757600080fd5b506101ca6004803603602081101561019e57600080fd5b81019080803573ffffffffffffffffffffffffffffffffffffffff169060200190929190505050611063565b005b3480156101d857600080fd5b5061028f600480360360208110156101ef57600080fd5b810190808035906020019064010000000081111561020c57600080fd5b82018360208201111561021e57600080fd5b8035906020019184602083028401116401000000008311171561024057600080fd5b919080806020026020016040519081016040528093929190818152602001838360200280828437600081840152601f19601f82011690508083019250505050505050919291929050505061127c565b005b34801561029d57600080fd5b506103ee600480360360408110156102b457600080fd5b81019080803590602001906401000000008111156102d157600080fd5b8201836020820111156102e357600080fd5b8035906020019184600183028401116401000000008311171561030557600080fd5b91908080601f016020809104026020016040519081016040528093929190818152602001838380828437600081840152601f19601f8201169050808301925050505050505091929192908035906020019064010000000081111561036857600080fd5b82018360208201111561037a57600080fd5b8035906020019184600183028401116401000000008311171561039c57600080fd5b91908080601f016020809104026020016040519081016040528093929190818152602001838380828437600081840152601f19601f8201169050808301925050505050505091929192905050506112c1565b60405180827bffffffffffffffffffffffffffffffffffffffffffffffffffffffff19167bffffffffffffffffffffffffffffffffffffffffffffffffffffffff1916815260200191505060405180910390f35b34801561044e57600080fd5b5061045761136d565b6040518082815260200191505060405180910390f35b34801561047957600080fd5b506105ca6004803603604081101561049057600080fd5b81019080803590602001906401000000008111156104ad57600080fd5b8201836020820111156104bf57600080fd5b803590602001918460018302840111640100000000831117156104e157600080fd5b91908080601f016020809104026020016040519081016040528093929190818152602001838380828437600081840152601f19601f8201169050808301925050505050505091929192908035906020019064010000000081111561054457600080fd5b82018360208201111561055657600080fd5b8035906020019184600183028401116401000000008311171561057857600080fd5b91908080601f016020809104026020016040519081016040528093929190818152602001838380828437600081840152601f19601f820116905080830192505050505050509192919290505050611381565b60405180827bffffffffffffffffffffffffffffffffffffffffffffffffffffffff19167bffffffffffffffffffffffffffffffffffffffffffffffffffffffff1916815260200191505060405180910390f35b34801561062a57600080fd5b506107856004803603606081101561064157600080fd5b81019080803590602001909291908035906020019064010000000081111561066857600080fd5b82018360208201111561067a57600080fd5b8035906020019184600183028401116401000000008311171561069c57600080fd5b91908080601f016020809104026020016040519081016040528093929190818152602001838380828437600081840152601f19601f820116905080830192505050505050509192919290803590602001906401000000008111156106ff57600080fd5b82018360208201111561071157600080fd5b8035906020019184600183028401116401000000008311171561073357600080fd5b91908080601f016020809104026020016040519081016040528093929190818152602001838380828437600081840152601f19601f820116905080830192505050505050509192919290505050611415565b604051808273ffffffffffffffffffffffffffffffffffffffff1673ffffffffffffffffffffffffffffffffffffffff16815260200191505060405180910390f35b3480156107d357600080fd5b50610816600480360360208110156107ea57600080fd5b81019080803573ffffffffffffffffffffffffffffffffffffffff1690602001909291905050506114bc565b604051808215151515815260200191505060405180910390f35b34801561083c57600080fd5b506109876004803603604081101561085357600080fd5b810190808035906020019064010000000081111561087057600080fd5b82018360208201111561088257600080fd5b803590602001918460208302840111640100000000831117156108a457600080fd5b919080806020026020016040519081016040528093929190818152602001838360200280828437600081840152601f19601f8201169050808301925050505050505091929192908035906020019064010000000081111561090457600080fd5b82018360208201111561091657600080fd5b8035906020019184602083028401116401000000008311171561093857600080fd5b919080806020026020016040519081016040528093929190818152602001838360200280828437600081840152601f19601f8201169050808301925050505050505091929192905050506114dc565b005b34801561099557600080fd5b5061099e6115ad565b6040518082815260200191505060405180910390f35b3480156109c057600080fd5b506109c96115b3565b005b3480156109d757600080fd5b506109e06116c1565b6040518082815260200191505060405180910390f35b348015610a0257600080fd5b50610a4560048036036020811015610a1957600080fd5b81019080803573ffffffffffffffffffffffffffffffffffffffff1690602001909291905050506116c7565b005b348015610a5357600080fd5b50610a8060048036036020811015610a6a57600080fd5b81019080803590602001909291905050506118f8565b6040518082815260200191505060405180910390f35b348015610aa257600080fd5b50610aab611910565b6040518082815260200191505060405180910390f35b348015610acd57600080fd5b50610b3060048036036040811015610ae457600080fd5b81019080803573ffffffffffffffffffffffffffffffffffffffff169060200190929190803573ffffffffffffffffffffffffffffffffffffffff169060200190929190505050611916565b005b348015610b3e57600080fd5b50610b6b60048036036020811015610b5557600080fd5b8101908080359060200190929190505050611b05565b604051808273ffffffffffffffffffffffffffffffffffffffff1673ffffffffffffffffffffffffffffffffffffffff16815260200191505060405180910390f35b348015610bb957600080fd5b50610bc2611b41565b6040518082815260200191505060405180910390f35b348015610be457600080fd5b50610c1160048036036020811015610bfb57600080fd5b8101908080359060200190929190505050611b4e565b005b348015610c1f57600080fd5b50610d7060048036036040811015610c3657600080fd5b8101908080359060200190640100000000811115610c5357600080fd5b820183602082011115610c6557600080fd5b80359060200191846001830284011164010000000083111715610c8757600080fd5b91908080601f016020809104026020016040519081016040528093929190818152602001838380828437600081840152601f19601f82011690508083019250505050505050919291929080359060200190640100000000811115610cea57600080fd5b820183602082011115610cfc57600080fd5b80359060200191846001830284011164010000000083111715610d1e57600080fd5b91908080601f016020809104026020016040519081016040528093929190818152602001838380828437600081840152601f19601f820116905080830192505050505050509192919290505050611ba7565b60405180827bffffffffffffffffffffffffffffffffffffffffffffffffffffffff19167bffffffffffffffffffffffffffffffffffffffffffffffffffffffff1916815260200191505060405180910390f35b348015610dd057600080fd5b50610ebe60048036036080811015610de757600080fd5b8101908080359060200190929190803573ffffffffffffffffffffffffffffffffffffffff1690602001909291908035906020019092919080359060200190640100000000811115610e3857600080fd5b820183602082011115610e4a57600080fd5b80359060200191846001830284011164010000000083111715610e6c57600080fd5b91908080601f016020809104026020016040519081016040528093929190818152602001838380828437600081840152601f19601f820116905080830192505050505050509192919290505050611cf2565b6040518080602001828103825283818151815260200191508051906020019080838360005b83811015610efe578082015181840152602081019050610ee3565b50505050905090810190601f168015610f2b5780820380516001836020036101000a031916815260200191505b509250505060405180910390f35b348015610f4557600080fd5b50610f8860048036036020811015610f5c57600080fd5b81019080803573ffffffffffffffffffffffffffffffffffffffff169060200190929190505050611d13565b6040518082815260200191505060405180910390f35b348015610faa57600080fd5b5061106160048036036020811015610fc157600080fd5b8101908080359060200190640100000000811115610fde57600080fd5b820183602082011115610ff057600080fd5b8035906020019184602083028401116401000000008311171561101257600080fd5b919080806020026020016040519081016040528093929190818152602001838360200280828437600081840152601f19601f820116905080830192505050505050509192919290505050611d2b565b005b61106c33611d70565b603560008273ffffffffffffffffffffffffffffffffffffffff1673ffffffffffffffffffffffffffffffffffffffff16815260200190815260200160002060009054906101000a900460ff161561112c576040517f08c379a00000000000000000000000000000000000000000000000000000000081526004018080602001828103825260168152602001807f41757468206b657920616c72656164792061646465640000000000000000000081525060200191505060405180910390fd5b6001603560008373ffffffffffffffffffffffffffffffffffffffff1673ffffffffffffffffffffffffffffffffffffffff16815260200190815260200160002060006101000a81548160ff02191690831515021790555060338190806001815401808255809150509060018203906000526020600020016000909192909190916101000a81548173ffffffffffffffffffffffffffffffffffffffff021916908373ffffffffffffffffffffffffffffffffffffffff16021790555050600160338054905003603460008373ffffffffffffffffffffffffffffffffffffffff1673ffffffffffffffffffffffffffffffffffffffff168152602001908152602001600020819055508073ffffffffffffffffffffffffffffffffffffffff167f9e46251f3febb4bf40cf64591f0efc1d6ac8a9f0b8900b2adaeb83227757058860405160405180910390a250565b61128533611d70565b60008090505b81518110156112bd576112b08282815181106112a357fe5b60200260200101516116c7565b808060010191505061128b565b5050565b60006041825114156112de576112d78383611381565b9050611367565b6082825114156112f9576112f28383611ba7565b9050611367565b6040517f08c379a000000000000000000000000000000000000000000000000000000000815260040180806020018281038252601a8152602001807f496e76616c6964205f7369676e617475726573206c656e67746800000000000081525060200191505060405180910390fd5b92915050565b600062015180428161137b57fe5b06905090565b60008061139f8361139186611e6f565b611f6e90919063ffffffff16565b9050603560008273ffffffffffffffffffffffffffffffffffffffff1673ffffffffffffffffffffffffffffffffffffffff16815260200190815260200160002060009054906101000a900460ff1615611403576320c13b0b60e01b91505061140f565b63ffffffff60e01b9150505b92915050565b60008061142b8486611f6e90919063ffffffff16565b9050600061148d82604051602001808273ffffffffffffffffffffffffffffffffffffffff1673ffffffffffffffffffffffffffffffffffffffff1660601b815260140191505060405160208183030381529060405280519060200120612072565b905060006114a48583611f6e90919063ffffffff16565b90506114af81611d70565b8293505050509392505050565b60356020528060005260406000206000915054906101000a900460ff1681565b6114e533611d70565b805182511461155c576040517f08c379a000000000000000000000000000000000000000000000000000000000815260040180806020018281038252601d8152602001807f496e70757420617272617973206e6f7420657175616c206c656e67746800000081525060200191505060405180910390fd5b60008090505b82518110156115a85761159b83828151811061157a57fe5b602002602001015183838151811061158e57fe5b6020026020010151611916565b8080600101915050611562565b505050565b60385481565b600060019054906101000a900460ff16806115d257506115d16120ca565b5b806115e957506000809054906101000a900460ff16155b61163e576040517f08c379a000000000000000000000000000000000000000000000000000000000815260040180806020018281038252602e8152602001806126a7602e913960400191505060405180910390fd5b60008060019054906101000a900460ff16159050801561168e576001600060016101000a81548160ff02191690831515021790555060016000806101000a81548160ff0219169083151502179055505b678ac7230489e8000060388190555080156116be5760008060016101000a81548160ff0219169083151502179055505b50565b60375481565b6116d033611d70565b603560008273ffffffffffffffffffffffffffffffffffffffff1673ffffffffffffffffffffffffffffffffffffffff16815260200190815260200160002060009054906101000a900460ff1661178f576040517f08c379a00000000000000000000000000000000000000000000000000000000081526004018080602001828103825260168152602001807f41757468206b6579206e6f74207965742061646465640000000000000000000081525060200191505060405180910390fd5b6001611799611b41565b1161180c576040517f08c379a000000000000000000000000000000000000000000000000000000000815260040180806020018281038252601b8152602001807f43616e6e6f742072656d6f7665206c6173742061757468206b6579000000000081525060200191505060405180910390fd5b6000603560008373ffffffffffffffffffffffffffffffffffffffff1673ffffffffffffffffffffffffffffffffffffffff16815260200190815260200160002060006101000a81548160ff02191690831515021790555061186d816120db565b6000603460008373ffffffffffffffffffffffffffffffffffffffff1673ffffffffffffffffffffffffffffffffffffffff168152602001908152602001600020819055508073ffffffffffffffffffffffffffffffffffffffff167f24a1d50afe4670e7a657fa10322b233e347dc26799afb2d72147a679e693f31f60405160405180910390a250565b60396020528060005260406000206000915090505481565b60365481565b603560008373ffffffffffffffffffffffffffffffffffffffff1673ffffffffffffffffffffffffffffffffffffffff16815260200190815260200160002060009054906101000a900460ff166119d5576040517f08c379a000000000000000000000000000000000000000000000000000000000815260040180806020018281038252601b8152602001807f4f6c642061757468206b657920646f6573206e6f74206578697374000000000081525060200191505060405180910390fd5b603560008273ffffffffffffffffffffffffffffffffffffffff1673ffffffffffffffffffffffffffffffffffffffff16815260200190815260200160002060009054906101000a900460ff1615611a95576040517f08c379a000000000000000000000000000000000000000000000000000000000815260040180806020018281038252601b8152602001807f4e65772061757468206b657920616c726561647920657869737473000000000081525060200191505060405180910390fd5b611a9e81611063565b611aa7826116c7565b8073ffffffffffffffffffffffffffffffffffffffff168273ffffffffffffffffffffffffffffffffffffffff167f084d1bb6d163e102e9e0ca9dcb761e37f325346ac27c1d8bbfb23c105ffba70660405160405180910390a35050565b60338181548110611b1257fe5b906000526020600020016000915054906101000a900473ffffffffffffffffffffffffffffffffffffffff1681565b6000603380549050905090565b611b5733611d70565b806038819055506038543373ffffffffffffffffffffffffffffffffffffffff167fca0b3dabefdbd8c72c0a9cf4a6e9d107da897abf036ef3f3f3b010cdd259415960405160405180910390a350565b60006060611bc2600060418561222f9092919063ffffffff16565b90506060611bdc6041808661222f9092919063ffffffff16565b90506000611bfb83611bed88611e6f565b611f6e90919063ffffffff16565b90506000611c5d82604051602001808273ffffffffffffffffffffffffffffffffffffffff1673ffffffffffffffffffffffffffffffffffffffff1660601b815260140191505060405160208183030381529060405280519060200120612072565b90506000611c748483611f6e90919063ffffffff16565b9050603560008273ffffffffffffffffffffffffffffffffffffffff1673ffffffffffffffffffffffffffffffffffffffff16815260200190815260200160002060009054906101000a900460ff1615611cdc576320c13b0b60e01b95505050505050611cec565b63ffffffff60e01b955050505050505b92915050565b6060611cfd33611d70565b611d09858585856122bb565b9050949350505050565b60346020528060005260406000206000915090505481565b611d3433611d70565b60008090505b8151811015611d6c57611d5f828281518110611d5257fe5b6020026020010151611063565b8080600101915050611d3a565b5050565b60011515603560008373ffffffffffffffffffffffffffffffffffffffff1673ffffffffffffffffffffffffffffffffffffffff16815260200190815260200160002060009054906101000a900460ff1615151480611dfa57503073ffffffffffffffffffffffffffffffffffffffff163373ffffffffffffffffffffffffffffffffffffffff16145b611e6c576040517f08c379a00000000000000000000000000000000000000000000000000000000081526004018080602001828103825260138152602001807f41757468206b657920697320696e76616c69640000000000000000000000000081525060200191505060405180910390fd5b50565b6000611e7b825161245d565b8260405160200180807f19457468657265756d205369676e6564204d6573736167653a0a000000000000815250601a0183805190602001908083835b60208310611eda5780518252602082019150602081019050602083039250611eb7565b6001836020036101000a03801982511681845116808217855250505050505090500182805190602001908083835b60208310611f2b5780518252602082019150602081019050602083039250611f08565b6001836020036101000a03801982511681845116808217855250505050505090500192505050604051602081830303815290604052805190602001209050919050565b60006041825114611f82576000905061206c565b60008060006020850151925060408501519150606085015160001a90507f7fffffffffffffffffffffffffffffff5d576e7357a4501ddfe92f46681b20a08260001c1115611fd6576000935050505061206c565b601b8160ff1614158015611fee5750601c8160ff1614155b15611fff576000935050505061206c565b60018682858560405160008152602001604052604051808581526020018460ff1660ff1681526020018381526020018281526020019450505050506020604051602081039080840390855afa15801561205c573d6000803e3d6000fd5b5050506020604051035193505050505b92915050565b60008160405160200180807f19457468657265756d205369676e6564204d6573736167653a0a333200000000815250601c01828152602001915050604051602081830303815290604052805190602001209050919050565b600080303b90506000811491505090565b6000603460008373ffffffffffffffffffffffffffffffffffffffff1673ffffffffffffffffffffffffffffffffffffffff16815260200190815260200160002054905060008190505b6001603380549050038110156121d2576033600182018154811061214557fe5b9060005260206000200160009054906101000a900473ffffffffffffffffffffffffffffffffffffffff166033828154811061217d57fe5b9060005260206000200160006101000a81548173ffffffffffffffffffffffffffffffffffffffff021916908373ffffffffffffffffffffffffffffffffffffffff1602179055508080600101915050612125565b506033600160338054905003815481106121e857fe5b9060005260206000200160006101000a81549073ffffffffffffffffffffffffffffffffffffffff0219169055603380548091906001900361222a9190612655565b505050565b60608183018451101561224157600080fd5b606082156000811461225e576040519150602082016040526122af565b6040519150601f8416801560200281840101858101878315602002848b0101015b8183101561229c578051835260208301925060208101905061227f565b50868552601f19601f8301166040525050505b50809150509392505050565b60606036548514612334576040517f08c379a000000000000000000000000000000000000000000000000000000000815260040180806020018281038252600f8152602001807f496e636f7272656374206e6f6e6365000000000000000000000000000000000081525060200191505060405180910390fd5b603660008154809291906001019190505550600060608573ffffffffffffffffffffffffffffffffffffffff1685856040518082805190602001908083835b602083106123965780518252602082019150602081019050602083039250612373565b6001836020036101000a03801982511681845116808217855250505050505090500191505060006040518083038185875af1925050503d80600081146123f8576040519150601f19603f3d011682016040523d82523d6000602084013e6123fd565b606091505b50915091508161245057600061241588888888612590565b90507fe22e3683fe845a34c5adea424d0beb84895f513ea06745002d9d65f90100591a816040518082815260200191505060405180910390a1505b8092505050949350505050565b606060008214156124a5576040518060400160405280600181526020017f3000000000000000000000000000000000000000000000000000000000000000815250905061258b565b6000829050600083905060005b600082146124d4578080600101915050600a82816124cc57fe5b0491506124b2565b6060816040519080825280601f01601f1916602001820160405280156125095781602001600182028038833980820191505090505b50905060006001830390505b6000851461258257600a858161252757fe5b0660300160f81b8282806001900393508151811061254157fe5b60200101907effffffffffffffffffffffffffffffffffffffffffffffffffffffffffffff1916908160001a905350600a858161257a57fe5b049450612515565b81955050505050505b919050565b600084848484604051602001808581526020018473ffffffffffffffffffffffffffffffffffffffff1673ffffffffffffffffffffffffffffffffffffffff1660601b815260140183815260200182805190602001908083835b6020831061260d57805182526020820191506020810190506020830392506125ea565b6001836020036101000a038019825116818451168082178552505050505050905001945050505050604051602081830303815290604052805190602001209050949350505050565b81548183558181111561267c5781836000526020600020918201910161267b9190612681565b5b505050565b6126a391905b8082111561269f576000816000905550600101612687565b5090565b9056fe436f6e747261637420696e7374616e63652068617320616c7265616479206265656e20696e697469616c697a6564a165627a7a72305820123920887568ffbbb102da344237ead25a5d433df676e8da8496d7bd0e462ea20029",
  "source": "pragma solidity ^0.5.8;\n\nimport \"../account/Account.sol\";\n\ncontract TransactionLimit is Account {\n\n    uint256 public dailyLimit;\n    mapping(uint256 => uint256) public dailyLimitTracker;\n\n    event DailyLimitChanged(address indexed authKey, uint256 indexed newDailyLimit);\n\n    /**\n     *  Public functions\n     */\n\n    function initialize() public initializer {\n        dailyLimit = 10 ether;\n    }\n\n    /// @dev Change the daily limit for a user\n    /// @dev _newDailyLimit New daily limit to set\n    function changeDailyLimit(uint256 _newDailyLimit) public\n    onlyValidAuthKeyOrSelf {\n        dailyLimit = _newDailyLimit;\n        emit DailyLimitChanged(msg.sender, dailyLimit);\n    }\n\n    /// @dev Sets the current day for the contract\n    function getCurrentDay() public view returns (uint256) {\n        return block.timestamp % 86400;\n    }\n\n    /**\n     *  Internal functions\n     */\n\n    /// @dev Check the daily limit for a user\n    /// @param _value Value being sent with the current transaction\n    function checkDailyTransactionLimit(uint256 _value) internal {\n        uint256 currentDay = getCurrentDay();\n        uint256 dailySpend = dailyLimitTracker[currentDay] + _value;\n        require(dailySpend <= dailyLimit, \"Daily limit reached\");\n        dailyLimitTracker[currentDay] += _value;\n    }\n}",
  "sourcePath": "/Users/sh/Dev/authereumorg/authereum/monorepo/packages/contracts/contracts/firewall/TransactionLimit.sol",
  "compiler": {
    "name": "solc",
    "version": "0.5.8+commit.23d335f2.Emscripten.clang"
  },
  "schemaVersion": "3.0.11",
  "updatedAt": "2019-08-03T02:41:48.305Z",
  "devdoc": {
    "methods": {
      "addAuthKey(address)": {
        "details": "Add an auth key to the list of auth keys",
        "params": {
          "_authKey": "Address of the auth key to add"
        }
      },
      "addMultipleAuthKeys(address[])": {
        "details": "Add multiple auth keys to the list of auth keys",
        "params": {
          "_authKeys": "Array of addresses to add to the auth keys list"
        }
      },
      "changeDailyLimit(uint256)": {
        "details": "Change the daily limit for a user_newDailyLimit New daily limit to set"
      },
      "executeTransaction(uint256,address,uint256,bytes)": {
        "details": "Execute a transaction",
        "params": {
          "_data": "Data of the transaction",
          "_destination": "Destination of the transaction",
          "_nonce": "Nonce of the transaction",
          "_value": "Value of the transaction"
        }
      },
      "getAuthKeysArrayLength()": {
        "details": "Return the length of the authKeysArray"
      },
      "getCurrentDay()": {
        "details": "Sets the current day for the contract"
      },
      "removeAuthKey(address)": {
        "details": "Remove an auth key from the list of auth keys",
        "params": {
          "_authKey": "Address of the auth key to remove"
        }
      },
      "removeMultipleAuthKeys(address[])": {
        "details": "Remove multiple auth keys to the list of auth keys",
        "params": {
          "_authKeys": "Array of addresses to remove to the auth keys list"
        }
      },
      "swapAuthKeys(address,address)": {
        "details": "Swap one authKey for a non-authKey",
        "params": {
          "_newAuthKey": "A non-existing authKey",
          "_oldAuthKey": "An existing authKey"
        }
      },
      "swapMultipleAuthKeys(address[],address[])": {
        "details": "Swap multiple auth keys to the list of auth keys",
        "params": {
          "_newAuthKeys": "Array of addresses to add to the auth keys list",
          "_oldAuthKeys": "Array of addresses to remove to the auth keys list"
        }
      },
      "validateLoginKeyMetaTxSigs(bytes32,bytes,bytes)": {
        "details": "Validate signatures from an AuthKeyMetaTx",
        "params": {
          "_loginKeyAuthorizationSignature": "Signed loginKey",
          "_transactionDataSignature": "Signed tx data",
          "_txDataMessageHash": "Ethereum signed message of the transaction"
        }
      }
    }
  },
  "userdoc": {
    "methods": {
      "executeTransaction(uint256,address,uint256,bytes)": {
        "notice": "This is to be called directly by an AuthKey"
      },
      "initialize()": {
        "notice": "Public functions"
      }
    }
  }
}